{
  "_format": "hh-sol-artifact-1",
  "contractName": "MNBExchange",
  "sourceName": "contracts/MNBExchange.sol",
  "abi": [
    {
      "inputs": [],
      "stateMutability": "nonpayable",
      "type": "constructor"
    },
    {
      "inputs": [],
      "name": "AccessControlBadConfirmation",
      "type": "error"
    },
    {
      "inputs": [
        {
          "internalType": "address",
          "name": "account",
          "type": "address"
        },
        {
          "internalType": "bytes32",
          "name": "neededRole",
          "type": "bytes32"
        }
      ],
      "name": "AccessControlUnauthorizedAccount",
      "type": "error"
    },
    {
      "inputs": [
        {
          "internalType": "address",
          "name": "target",
          "type": "address"
        }
      ],
      "name": "AddressEmptyCode",
      "type": "error"
    },
    {
      "inputs": [
        {
          "internalType": "address",
          "name": "implementation",
          "type": "address"
        }
      ],
      "name": "ERC1967InvalidImplementation",
      "type": "error"
    },
    {
      "inputs": [],
      "name": "ERC1967NonPayable",
      "type": "error"
    },
    {
      "inputs": [],
      "name": "FailedCall",
      "type": "error"
    },
    {
      "inputs": [],
      "name": "InvalidInitialization",
      "type": "error"
    },
    {
      "inputs": [],
      "name": "NotInitializing",
      "type": "error"
    },
    {
      "inputs": [],
      "name": "UUPSUnauthorizedCallContext",
      "type": "error"
    },
    {
      "inputs": [
        {
          "internalType": "bytes32",
          "name": "slot",
          "type": "bytes32"
        }
      ],
      "name": "UUPSUnsupportedProxiableUUID",
      "type": "error"
    },
    {
      "anonymous": false,
      "inputs": [
        {
          "indexed": true,
          "internalType": "uint256",
          "name": "pairId",
          "type": "uint256"
        },
        {
          "indexed": false,
          "internalType": "uint256",
          "name": "feesCollected",
          "type": "uint256"
        }
      ],
      "name": "FeesCollected",
      "type": "event"
    },
    {
      "anonymous": false,
      "inputs": [
        {
          "indexed": false,
          "internalType": "uint64",
          "name": "version",
          "type": "uint64"
        }
      ],
      "name": "Initialized",
      "type": "event"
    },
    {
      "anonymous": false,
      "inputs": [
        {
          "indexed": true,
          "internalType": "uint256",
          "name": "pairId",
          "type": "uint256"
        },
        {
          "indexed": false,
          "internalType": "address",
          "name": "provider",
          "type": "address"
        },
        {
          "indexed": false,
          "internalType": "uint256",
          "name": "amountA",
          "type": "uint256"
        },
        {
          "indexed": false,
          "internalType": "uint256",
          "name": "amountB",
          "type": "uint256"
        },
        {
          "indexed": false,
          "internalType": "uint256",
          "name": "liquidityTokens",
          "type": "uint256"
        }
      ],
      "name": "LiquidityAdded",
      "type": "event"
    },
    {
      "anonymous": false,
      "inputs": [
        {
          "indexed": true,
          "internalType": "uint256",
          "name": "pairId",
          "type": "uint256"
        },
        {
          "indexed": false,
          "internalType": "address",
          "name": "provider",
          "type": "address"
        },
        {
          "indexed": false,
          "internalType": "uint256",
          "name": "amountA",
          "type": "uint256"
        },
        {
          "indexed": false,
          "internalType": "uint256",
          "name": "amountB",
          "type": "uint256"
        },
        {
          "indexed": false,
          "internalType": "uint256",
          "name": "liquidityTokens",
          "type": "uint256"
        }
      ],
      "name": "LiquidityRemoved",
      "type": "event"
    },
    {
      "anonymous": false,
      "inputs": [
        {
          "indexed": true,
          "internalType": "uint256",
          "name": "orderId",
          "type": "uint256"
        },
        {
          "indexed": false,
          "internalType": "address",
          "name": "user",
          "type": "address"
        },
        {
          "indexed": false,
          "internalType": "uint256",
          "name": "amountOut",
          "type": "uint256"
        }
      ],
      "name": "OrderFilled",
      "type": "event"
    },
    {
      "anonymous": false,
      "inputs": [
        {
          "indexed": true,
          "internalType": "uint256",
          "name": "orderId",
          "type": "uint256"
        },
        {
          "indexed": false,
          "internalType": "address",
          "name": "user",
          "type": "address"
        },
        {
          "indexed": false,
          "internalType": "address",
          "name": "tokenIn",
          "type": "address"
        },
        {
          "indexed": false,
          "internalType": "address",
          "name": "tokenOut",
          "type": "address"
        },
        {
          "indexed": false,
          "internalType": "uint256",
          "name": "amountIn",
          "type": "uint256"
        }
      ],
      "name": "OrderPlaced",
      "type": "event"
    },
    {
      "anonymous": false,
      "inputs": [
        {
          "indexed": true,
          "internalType": "uint256",
          "name": "pairId",
          "type": "uint256"
        },
        {
          "indexed": false,
          "internalType": "address",
          "name": "tokenA",
          "type": "address"
        },
        {
          "indexed": false,
          "internalType": "address",
          "name": "tokenB",
          "type": "address"
        }
      ],
      "name": "PairCreated",
      "type": "event"
    },
    {
      "anonymous": false,
      "inputs": [
        {
          "indexed": true,
          "internalType": "address",
          "name": "token",
          "type": "address"
        },
        {
          "indexed": false,
          "internalType": "uint256",
          "name": "newPrice",
          "type": "uint256"
        }
      ],
      "name": "PriceUpdated",
      "type": "event"
    },
    {
      "anonymous": false,
      "inputs": [
        {
          "indexed": true,
          "internalType": "bytes32",
          "name": "role",
          "type": "bytes32"
        },
        {
          "indexed": true,
          "internalType": "bytes32",
          "name": "previousAdminRole",
          "type": "bytes32"
        },
        {
          "indexed": true,
          "internalType": "bytes32",
          "name": "newAdminRole",
          "type": "bytes32"
        }
      ],
      "name": "RoleAdminChanged",
      "type": "event"
    },
    {
      "anonymous": false,
      "inputs": [
        {
          "indexed": true,
          "internalType": "bytes32",
          "name": "role",
          "type": "bytes32"
        },
        {
          "indexed": true,
          "internalType": "address",
          "name": "account",
          "type": "address"
        },
        {
          "indexed": true,
          "internalType": "address",
          "name": "sender",
          "type": "address"
        }
      ],
      "name": "RoleGranted",
      "type": "event"
    },
    {
      "anonymous": false,
      "inputs": [
        {
          "indexed": true,
          "internalType": "bytes32",
          "name": "role",
          "type": "bytes32"
        },
        {
          "indexed": true,
          "internalType": "address",
          "name": "account",
          "type": "address"
        },
        {
          "indexed": true,
          "internalType": "address",
          "name": "sender",
          "type": "address"
        }
      ],
      "name": "RoleRevoked",
      "type": "event"
    },
    {
      "anonymous": false,
      "inputs": [
        {
          "indexed": true,
          "internalType": "uint256",
          "name": "pairId",
          "type": "uint256"
        },
        {
          "indexed": false,
          "internalType": "address",
          "name": "user",
          "type": "address"
        },
        {
          "indexed": false,
          "internalType": "address",
          "name": "tokenIn",
          "type": "address"
        },
        {
          "indexed": false,
          "internalType": "address",
          "name": "tokenOut",
          "type": "address"
        },
        {
          "indexed": false,
          "internalType": "uint256",
          "name": "amountIn",
          "type": "uint256"
        },
        {
          "indexed": false,
          "internalType": "uint256",
          "name": "amountOut",
          "type": "uint256"
        }
      ],
      "name": "SwapExecuted",
      "type": "event"
    },
    {
      "anonymous": false,
      "inputs": [
        {
          "indexed": true,
          "internalType": "address",
          "name": "implementation",
          "type": "address"
        }
      ],
      "name": "Upgraded",
      "type": "event"
    },
    {
      "inputs": [],
      "name": "DEFAULT_ADMIN_ROLE",
      "outputs": [
        {
          "internalType": "bytes32",
          "name": "",
          "type": "bytes32"
        }
      ],
      "stateMutability": "view",
      "type": "function"
    },
    {
      "inputs": [],
      "name": "EXCHANGE_ADMIN_ROLE",
      "outputs": [
        {
          "internalType": "bytes32",
          "name": "",
          "type": "bytes32"
        }
      ],
      "stateMutability": "view",
      "type": "function"
    },
    {
      "inputs": [],
      "name": "LIQUIDITY_PROVIDER_ROLE",
      "outputs": [
        {
          "internalType": "bytes32",
          "name": "",
          "type": "bytes32"
        }
      ],
      "stateMutability": "view",
      "type": "function"
    },
    {
      "inputs": [],
      "name": "UPGRADE_INTERFACE_VERSION",
      "outputs": [
        {
          "internalType": "string",
          "name": "",
          "type": "string"
        }
      ],
      "stateMutability": "view",
      "type": "function"
    },
    {
      "inputs": [
        {
          "internalType": "uint256",
          "name": "pairId",
          "type": "uint256"
        },
        {
          "internalType": "uint256",
          "name": "amountA",
          "type": "uint256"
        },
        {
          "internalType": "uint256",
          "name": "amountB",
          "type": "uint256"
        }
      ],
      "name": "addLiquidity",
      "outputs": [
        {
          "internalType": "uint256",
          "name": "",
          "type": "uint256"
        }
      ],
      "stateMutability": "nonpayable",
      "type": "function"
    },
    {
      "inputs": [
        {
          "internalType": "address",
          "name": "tokenA",
          "type": "address"
        },
        {
          "internalType": "address",
          "name": "tokenB",
          "type": "address"
        },
        {
          "internalType": "uint256",
          "name": "feePercentage",
          "type": "uint256"
        }
      ],
      "name": "createPair",
      "outputs": [
        {
          "internalType": "uint256",
          "name": "",
          "type": "uint256"
        }
      ],
      "stateMutability": "nonpayable",
      "type": "function"
    },
    {
      "inputs": [
        {
          "internalType": "uint256",
          "name": "",
          "type": "uint256"
        }
      ],
      "name": "exchangePairs",
      "outputs": [
        {
          "internalType": "address",
          "name": "tokenA",
          "type": "address"
        },
        {
          "internalType": "address",
          "name": "tokenB",
          "type": "address"
        },
        {
          "internalType": "uint256",
          "name": "reserveA",
          "type": "uint256"
        },
        {
          "internalType": "uint256",
          "name": "reserveB",
          "type": "uint256"
        },
        {
          "internalType": "uint256",
          "name": "totalLiquidity",
          "type": "uint256"
        },
        {
          "internalType": "bool",
          "name": "isActive",
          "type": "bool"
        },
        {
          "internalType": "uint256",
          "name": "feePercentage",
          "type": "uint256"
        }
      ],
      "stateMutability": "view",
      "type": "function"
    },
    {
      "inputs": [
        {
          "internalType": "uint256",
          "name": "amountIn",
          "type": "uint256"
        },
        {
          "internalType": "uint256",
          "name": "reserveIn",
          "type": "uint256"
        },
        {
          "internalType": "uint256",
          "name": "reserveOut",
          "type": "uint256"
        }
      ],
      "name": "getAmountOut",
      "outputs": [
        {
          "internalType": "uint256",
          "name": "",
          "type": "uint256"
        }
      ],
      "stateMutability": "pure",
      "type": "function"
    },
    {
      "inputs": [
        {
          "internalType": "uint256",
          "name": "pairId",
          "type": "uint256"
        }
      ],
      "name": "getPairInfo",
      "outputs": [
        {
          "internalType": "address",
          "name": "tokenA",
          "type": "address"
        },
        {
          "internalType": "address",
          "name": "tokenB",
          "type": "address"
        },
        {
          "internalType": "uint256",
          "name": "reserveA",
          "type": "uint256"
        },
        {
          "internalType": "uint256",
          "name": "reserveB",
          "type": "uint256"
        },
        {
          "internalType": "uint256",
          "name": "totalLiquidity",
          "type": "uint256"
        },
        {
          "internalType": "bool",
          "name": "isActive",
          "type": "bool"
        },
        {
          "internalType": "uint256",
          "name": "feePercentage",
          "type": "uint256"
        }
      ],
      "stateMutability": "view",
      "type": "function"
    },
    {
      "inputs": [
        {
          "internalType": "address",
          "name": "token",
          "type": "address"
        }
      ],
      "name": "getPrice",
      "outputs": [
        {
          "internalType": "uint256",
          "name": "",
          "type": "uint256"
        }
      ],
      "stateMutability": "view",
      "type": "function"
    },
    {
      "inputs": [
        {
          "internalType": "bytes32",
          "name": "role",
          "type": "bytes32"
        }
      ],
      "name": "getRoleAdmin",
      "outputs": [
        {
          "internalType": "bytes32",
          "name": "",
          "type": "bytes32"
        }
      ],
      "stateMutability": "view",
      "type": "function"
    },
    {
      "inputs": [
        {
          "internalType": "address",
          "name": "user",
          "type": "address"
        },
        {
          "internalType": "uint256",
          "name": "pairId",
          "type": "uint256"
        }
      ],
      "name": "getUserLiquidity",
      "outputs": [
        {
          "internalType": "uint256",
          "name": "",
          "type": "uint256"
        }
      ],
      "stateMutability": "view",
      "type": "function"
    },
    {
      "inputs": [
        {
          "internalType": "bytes32",
          "name": "role",
          "type": "bytes32"
        },
        {
          "internalType": "address",
          "name": "account",
          "type": "address"
        }
      ],
      "name": "grantRole",
      "outputs": [],
      "stateMutability": "nonpayable",
      "type": "function"
    },
    {
      "inputs": [
        {
          "internalType": "bytes32",
          "name": "role",
          "type": "bytes32"
        },
        {
          "internalType": "address",
          "name": "account",
          "type": "address"
        }
      ],
      "name": "hasRole",
      "outputs": [
        {
          "internalType": "bool",
          "name": "",
          "type": "bool"
        }
      ],
      "stateMutability": "view",
      "type": "function"
    },
    {
      "inputs": [
        {
          "internalType": "address",
          "name": "defaultAdmin",
          "type": "address"
        },
        {
          "internalType": "address",
          "name": "_mnbTokenAddress",
          "type": "address"
        }
      ],
      "name": "initialize",
      "outputs": [],
      "stateMutability": "nonpayable",
      "type": "function"
    },
    {
      "inputs": [
        {
          "internalType": "address",
          "name": "",
          "type": "address"
        },
        {
          "internalType": "uint256",
          "name": "",
          "type": "uint256"
        }
      ],
      "name": "liquidityBalances",
      "outputs": [
        {
          "internalType": "uint256",
          "name": "",
          "type": "uint256"
        }
      ],
      "stateMutability": "view",
      "type": "function"
    },
    {
      "inputs": [
        {
          "internalType": "uint256",
          "name": "",
          "type": "uint256"
        },
        {
          "internalType": "uint256",
          "name": "",
          "type": "uint256"
        }
      ],
      "name": "liquidityPositions",
      "outputs": [
        {
          "internalType": "address",
          "name": "provider",
          "type": "address"
        },
        {
          "internalType": "uint256",
          "name": "pairId",
          "type": "uint256"
        },
        {
          "internalType": "uint256",
          "name": "liquidityTokens",
          "type": "uint256"
        },
        {
          "internalType": "uint256",
          "name": "timestamp",
          "type": "uint256"
        }
      ],
      "stateMutability": "view",
      "type": "function"
    },
    {
      "inputs": [],
      "name": "mnbToken",
      "outputs": [
        {
          "internalType": "contract MNBToken",
          "name": "",
          "type": "address"
        }
      ],
      "stateMutability": "view",
      "type": "function"
    },
    {
      "inputs": [],
      "name": "nextPairId",
      "outputs": [
        {
          "internalType": "uint256",
          "name": "",
          "type": "uint256"
        }
      ],
      "stateMutability": "view",
      "type": "function"
    },
    {
      "inputs": [
        {
          "internalType": "uint256",
          "name": "",
          "type": "uint256"
        },
        {
          "internalType": "uint256",
          "name": "",
          "type": "uint256"
        }
      ],
      "name": "orderBooks",
      "outputs": [
        {
          "internalType": "address",
          "name": "user",
          "type": "address"
        },
        {
          "internalType": "address",
          "name": "tokenIn",
          "type": "address"
        },
        {
          "internalType": "address",
          "name": "tokenOut",
          "type": "address"
        },
        {
          "internalType": "uint256",
          "name": "amountIn",
          "type": "uint256"
        },
        {
          "internalType": "uint256",
          "name": "amountOutMin",
          "type": "uint256"
        },
        {
          "internalType": "uint256",
          "name": "timestamp",
          "type": "uint256"
        },
        {
          "internalType": "bool",
          "name": "isFilled",
          "type": "bool"
        }
      ],
      "stateMutability": "view",
      "type": "function"
    },
    {
      "inputs": [],
      "name": "proxiableUUID",
      "outputs": [
        {
          "internalType": "bytes32",
          "name": "",
          "type": "bytes32"
        }
      ],
      "stateMutability": "view",
      "type": "function"
    },
    {
      "inputs": [
        {
          "internalType": "uint256",
          "name": "pairId",
          "type": "uint256"
        },
        {
          "internalType": "uint256",
          "name": "liquidityTokens",
          "type": "uint256"
        }
      ],
      "name": "removeLiquidity",
      "outputs": [
        {
          "internalType": "uint256",
          "name": "",
          "type": "uint256"
        },
        {
          "internalType": "uint256",
          "name": "",
          "type": "uint256"
        }
      ],
      "stateMutability": "nonpayable",
      "type": "function"
    },
    {
      "inputs": [
        {
          "internalType": "bytes32",
          "name": "role",
          "type": "bytes32"
        },
        {
          "internalType": "address",
          "name": "callerConfirmation",
          "type": "address"
        }
      ],
      "name": "renounceRole",
      "outputs": [],
      "stateMutability": "nonpayable",
      "type": "function"
    },
    {
      "inputs": [
        {
          "internalType": "bytes32",
          "name": "role",
          "type": "bytes32"
        },
        {
          "internalType": "address",
          "name": "account",
          "type": "address"
        }
      ],
      "name": "revokeRole",
      "outputs": [],
      "stateMutability": "nonpayable",
      "type": "function"
    },
    {
      "inputs": [
        {
          "internalType": "bytes4",
          "name": "interfaceId",
          "type": "bytes4"
        }
      ],
      "name": "supportsInterface",
      "outputs": [
        {
          "internalType": "bool",
          "name": "",
          "type": "bool"
        }
      ],
      "stateMutability": "view",
      "type": "function"
    },
    {
      "inputs": [
        {
          "internalType": "uint256",
          "name": "pairId",
          "type": "uint256"
        },
        {
          "internalType": "address",
          "name": "tokenIn",
          "type": "address"
        },
        {
          "internalType": "address",
          "name": "tokenOut",
          "type": "address"
        },
        {
          "internalType": "uint256",
          "name": "amountIn",
          "type": "uint256"
        },
        {
          "internalType": "uint256",
          "name": "amountOutMin",
          "type": "uint256"
        }
      ],
      "name": "swap",
      "outputs": [
        {
          "internalType": "uint256",
          "name": "",
          "type": "uint256"
        }
      ],
      "stateMutability": "nonpayable",
      "type": "function"
    },
    {
      "inputs": [
        {
          "internalType": "address",
          "name": "",
          "type": "address"
        }
      ],
      "name": "tokenPrices",
      "outputs": [
        {
          "internalType": "uint256",
          "name": "",
          "type": "uint256"
        }
      ],
      "stateMutability": "view",
      "type": "function"
    },
    {
      "inputs": [],
      "name": "totalFeesCollected",
      "outputs": [
        {
          "internalType": "uint256",
          "name": "",
          "type": "uint256"
        }
      ],
      "stateMutability": "view",
      "type": "function"
    },
    {
      "inputs": [],
      "name": "totalLiquidityProvided",
      "outputs": [
        {
          "internalType": "uint256",
          "name": "",
          "type": "uint256"
        }
      ],
      "stateMutability": "view",
      "type": "function"
    },
    {
      "inputs": [],
      "name": "totalTradingVolume",
      "outputs": [
        {
          "internalType": "uint256",
          "name": "",
          "type": "uint256"
        }
      ],
      "stateMutability": "view",
      "type": "function"
    },
    {
      "inputs": [
        {
          "internalType": "address",
          "name": "token",
          "type": "address"
        },
        {
          "internalType": "uint256",
          "name": "newPrice",
          "type": "uint256"
        }
      ],
      "name": "updatePrice",
      "outputs": [],
      "stateMutability": "nonpayable",
      "type": "function"
    },
    {
      "inputs": [
        {
          "internalType": "address",
          "name": "newImplementation",
          "type": "address"
        },
        {
          "internalType": "bytes",
          "name": "data",
          "type": "bytes"
        }
      ],
      "name": "upgradeToAndCall",
      "outputs": [],
      "stateMutability": "payable",
      "type": "function"
    }
  ],
  "bytecode": "0x60a06040523060805234801561001457600080fd5b5061001d610022565b6100d4565b7ff0c57e16840df040f15088dc2f81fe391c3923bec73e23a9662efc9c229c6a00805468010000000000000000900460ff16156100725760405163f92ee8a960e01b815260040160405180910390fd5b80546001600160401b03908116146100d15780546001600160401b0319166001600160401b0390811782556040519081527fc7f505b2f371ae2175ee4913f4499e1f2633a7b5936321eed1cdaeb6115181d29060200160405180910390a15b50565b60805161243e620000fe60003960008181611b8501528181611bae0152611cf2015261243e6000f3fe6080604052600436106101e35760003560e01c806352d1902d11610102578063a48b0b6911610095578063d82deafc11610064578063d82deafc146106f6578063dfb0886b14610739578063dfc851301461074f578063dfed13481461078757600080fd5b8063a48b0b6914610662578063ad3cb1cc14610678578063beeb936f146106b6578063d547741f146106d657600080fd5b806378243335116100d157806378243335146105c857806391d14854146105f85780639d7de6b314610618578063a217fddf1461064d57600080fd5b806352d1902d1461051757806356131d371461052c57806360c6d8ae146105925780636b600d1c146105a857600080fd5b806336568abe1161017a578063485cc95511610149578063485cc955146104575780634aac77e4146104775780634ac0c183146104e25780634f1ef2861461050457600080fd5b806336568abe146103c157806341976e09146103e1578063422f104314610417578063457972de1461043757600080fd5b8063204120bc116101b6578063204120bc1461031a578063248a9ca3146103475780632f2ff15d1461036757806331cb27901461038957600080fd5b806301ffc9a7146101e8578063054d50d41461021d5780631af447c81461024b57806320037cdd146102f8575b600080fd5b3480156101f457600080fd5b50610208610203366004611f7c565b61079d565b60405190151581526020015b60405180910390f35b34801561022957600080fd5b5061023d610238366004611fa6565b6107d4565b604051908152602001610214565b34801561025757600080fd5b506102b6610266366004611fd2565b600160208190526000918252604090912080549181015460028201546003830154600484015460058501546006909501546001600160a01b03968716969094169492939192909160ff9091169087565b604080516001600160a01b0398891681529790961660208801529486019390935260608501919091526080840152151560a083015260c082015260e001610214565b34801561030457600080fd5b5061023d6000805160206123c983398151915281565b34801561032657600080fd5b5061023d610335366004612007565b60056020526000908152604090205481565b34801561035357600080fd5b5061023d610362366004611fd2565b6108c6565b34801561037357600080fd5b50610387610382366004612022565b6108e8565b005b34801561039557600080fd5b506000546103a9906001600160a01b031681565b6040516001600160a01b039091168152602001610214565b3480156103cd57600080fd5b506103876103dc366004612022565b61090a565b3480156103ed57600080fd5b5061023d6103fc366004612007565b6001600160a01b031660009081526005602052604090205490565b34801561042357600080fd5b5061023d610432366004611fa6565b610942565b34801561044357600080fd5b5061038761045236600461204e565b610ccf565b34801561046357600080fd5b50610387610472366004612078565b610d41565b34801561048357600080fd5b506102b6610492366004611fd2565b600090815260016020819052604090912080549181015460028201546003830154600484015460058501546006909501546001600160a01b0396871697969094169592949193909260ff90921691565b3480156104ee57600080fd5b5061023d6000805160206123a983398151915281565b6103876105123660046120b8565b610ea3565b34801561052357600080fd5b5061023d610ec2565b34801561053857600080fd5b5061054c61054736600461217a565b610edf565b604080516001600160a01b039889168152968816602088015294909616938501939093526060840191909152608083015260a082015290151560c082015260e001610214565b34801561059e57600080fd5b5061023d60085481565b3480156105b457600080fd5b5061023d6105c336600461219c565b610f4b565b3480156105d457600080fd5b506105e86105e336600461217a565b611185565b60405161021494939291906121d8565b34801561060457600080fd5b50610208610613366004612022565b6111d5565b34801561062457600080fd5b5061063861063336600461217a565b61120d565b60408051928352602083019190915201610214565b34801561065957600080fd5b5061023d600081565b34801561066e57600080fd5b5061023d60095481565b34801561068457600080fd5b506106a9604051806040016040528060058152602001640352e302e360dc1b81525081565b6040516102149190612222565b3480156106c257600080fd5b5061023d6106d1366004612255565b611531565b3480156106e257600080fd5b506103876106f1366004612022565b6119a4565b34801561070257600080fd5b5061023d61071136600461204e565b6001600160a01b03919091166000908152600260209081526040808320938352929052205490565b34801561074557600080fd5b5061023d60065481565b34801561075b57600080fd5b5061023d61076a36600461204e565b600260209081526000928352604080842090915290825290205481565b34801561079357600080fd5b5061023d60075481565b60006001600160e01b03198216637965db0b60e01b14806107ce57506301ffc9a760e01b6001600160e01b03198316145b92915050565b60008084116108215760405162461bcd60e51b8152602060048201526014602482015273125b9d985b1a59081a5b9c1d5d08185b5bdd5b9d60621b60448201526064015b60405180910390fd5b6000831180156108315750600082115b6108765760405162461bcd60e51b8152602060048201526016602482015275496e73756666696369656e74206c697175696469747960501b6044820152606401610818565b6000610884856103e56122b9565b9050600061089284836122b9565b90506000826108a3876103e86122b9565b6108ad91906122d0565b90506108b981836122e3565b93505050505b9392505050565b60009081526000805160206123e9833981519152602052604090206001015490565b6108f1826108c6565b6108fa816119c0565b61090483836119cd565b50505050565b6001600160a01b03811633146109335760405163334bd91960e11b815260040160405180910390fd5b61093d8282611a72565b505050565b60006000805160206123c983398151915261095c816119c0565b6000858152600160205260409020600581015460ff166109b05760405162461bcd60e51b815260206004820152600f60248201526e50616972206e6f742061637469766560881b6044820152606401610818565b80546040516323b872dd60e01b8152336004820152306024820152604481018790526001600160a01b03909116906323b872dd906064016020604051808303816000875af1158015610a06573d6000803e3d6000fd5b505050506040513d601f19601f82011682018060405250810190610a2a9190612305565b610a6a5760405162461bcd60e51b8152602060048201526011602482015270151c985b9cd9995c88104819985a5b1959607a1b6044820152606401610818565b60018101546040516323b872dd60e01b8152336004820152306024820152604481018690526001600160a01b03909116906323b872dd906064016020604051808303816000875af1158015610ac3573d6000803e3d6000fd5b505050506040513d601f19601f82011682018060405250810190610ae79190612305565b610b275760405162461bcd60e51b8152602060048201526011602482015270151c985b9cd9995c88108819985a5b1959607a1b6044820152606401610818565b60008160040154600003610b4e57610b47610b4286886122b9565b611aee565b9050610b6f565b60028201546004830154610b6290886122b9565b610b6c91906122e3565b90505b85826002016000828254610b8391906122d0565b9250508190555084826003016000828254610b9e91906122d0565b9250508190555080826004016000828254610bb991906122d0565b90915550503360009081526002602090815260408083208a845290915281208054839290610be89084906122d0565b9091555050600087815260036020818152604080842081516080810183523381528084018d81529281018781524260608301908152835460018082018655948952959097209151600490950290910180546001600160a01b0319166001600160a01b039095169490941784559151908301555160028201559151910155610c6f85876122d0565b60076000828254610c8091906122d0565b92505081905550867f089607a52cca0d390ff7d0ad4e97545804dcc41418e1daee9ec3948596fec94433888885604051610cbd94939291906121d8565b60405180910390a29695505050505050565b6000805160206123a9833981519152610ce7816119c0565b6001600160a01b03831660008181526005602052604090819020849055517f0d86730737b142fc160892fa8a0f2db687a92a0e294d1ad70624cf5acef03b8490610d349085815260200190565b60405180910390a2505050565b6000610d4b611b47565b805490915060ff600160401b820416159067ffffffffffffffff16600081158015610d735750825b905060008267ffffffffffffffff166001148015610d905750303b155b905081158015610d9e575080155b15610dbc5760405163f92ee8a960e01b815260040160405180910390fd5b845467ffffffffffffffff191660011785558315610de657845460ff60401b1916600160401b1785555b610dee611b70565b610df6611b70565b610e016000886119cd565b50610e1a6000805160206123a9833981519152886119cd565b50610e336000805160206123c9833981519152886119cd565b50600080546001600160a01b0319166001600160a01b03881617905560016009558315610e9a57845460ff60401b19168555604051600181527fc7f505b2f371ae2175ee4913f4499e1f2633a7b5936321eed1cdaeb6115181d29060200160405180910390a15b50505050505050565b610eab611b7a565b610eb482611c1f565b610ebe8282611c2a565b5050565b6000610ecc611ce7565b5060008051602061238983398151915290565b60046020528160005260406000208181548110610efb57600080fd5b600091825260209091206007909102018054600182015460028301546003840154600485015460058601546006909601546001600160a01b03958616985093851696509190931693909160ff1687565b60006000805160206123a9833981519152610f65816119c0565b836001600160a01b0316856001600160a01b031603610fd25760405162461bcd60e51b815260206004820152602360248201527f43616e6e6f7420637265617465207061697220776974682073616d6520746f6b604482015262656e7360e81b6064820152608401610818565b6101f48311156110135760405162461bcd60e51b815260206004820152600c60248201526b08ccaca40e8dede40d0d2ced60a31b6044820152606401610818565b600980546000918261102483612327565b9190505590506040518060e00160405280876001600160a01b03168152602001866001600160a01b03168152602001600081526020016000815260200160008152602001600115158152602001858152506001600083815260200190815260200160002060008201518160000160006101000a8154816001600160a01b0302191690836001600160a01b0316021790555060208201518160010160006101000a8154816001600160a01b0302191690836001600160a01b0316021790555060408201518160020155606082015181600301556080820151816004015560a08201518160050160006101000a81548160ff02191690831515021790555060c08201518160060155905050807f02a47afa70a0c9a6546a7935738f3a99c674b215a93b1552adf49442a51e9e7e87876040516111749291906001600160a01b0392831681529116602082015260400190565b60405180910390a295945050505050565b600360205281600052604060002081815481106111a157600080fd5b600091825260209091206004909102018054600182015460028301546003909301546001600160a01b039092169450925084565b60009182526000805160206123e9833981519152602090815260408084206001600160a01b0393909316845291905290205460ff1690565b6000806000805160206123c9833981519152611228816119c0565b600085815260016020908152604080832033845260028352818420898552909252909120548511156112955760405162461bcd60e51b8152602060048201526016602482015275496e73756666696369656e74206c697175696469747960501b6044820152606401610818565b600081600401548260020154876112ac91906122b9565b6112b691906122e3565b9050600082600401548360030154886112cf91906122b9565b6112d991906122e3565b9050818360020160008282546112ef9190612340565b925050819055508083600301600082825461130a9190612340565b92505081905550868360040160008282546113259190612340565b90915550503360009081526002602090815260408083208b845290915281208054899290611354908490612340565b9091555050825460405163a9059cbb60e01b8152336004820152602481018490526001600160a01b039091169063a9059cbb906044016020604051808303816000875af11580156113a9573d6000803e3d6000fd5b505050506040513d601f19601f820116820180604052508101906113cd9190612305565b61140d5760405162461bcd60e51b8152602060048201526011602482015270151c985b9cd9995c88104819985a5b1959607a1b6044820152606401610818565b600183015460405163a9059cbb60e01b8152336004820152602481018390526001600160a01b039091169063a9059cbb906044016020604051808303816000875af1158015611460573d6000803e3d6000fd5b505050506040513d601f19601f820116820180604052508101906114849190612305565b6114c45760405162461bcd60e51b8152602060048201526011602482015270151c985b9cd9995c88108819985a5b1959607a1b6044820152606401610818565b6114ce81836122d0565b600760008282546114df9190612340565b92505081905550877f9c27aedc1d1fccd4271dc15980dab26a907cdb41ed08aef747c6d0a9680f55ce3384848b60405161151c94939291906121d8565b60405180910390a29097909650945050505050565b6000858152600160205260408120600581015460ff166115855760405162461bcd60e51b815260206004820152600f60248201526e50616972206e6f742061637469766560881b6044820152606401610818565b80546001600160a01b0387811691161480156115b0575060018101546001600160a01b038681169116145b806115e1575060018101546001600160a01b0387811691161480156115e1575080546001600160a01b038681169116145b6116225760405162461bcd60e51b815260206004820152601260248201527124b73b30b634b2103a37b5b2b7103830b4b960711b6044820152606401610818565b80546000906001600160a01b03908116908816036116545761164d85836002015484600301546107d4565b905061166a565b61166785836003015484600201546107d4565b90505b838110156116ba5760405162461bcd60e51b815260206004820152601a60248201527f496e73756666696369656e74206f757470757420616d6f756e740000000000006044820152606401610818565b60006127108360060154876116cf91906122b9565b6116d991906122e3565b905060006116e78288612340565b6040516323b872dd60e01b8152336004820152306024820152604481018990529091506001600160a01b038a16906323b872dd906064016020604051808303816000875af115801561173d573d6000803e3d6000fd5b505050506040513d601f19601f820116820180604052508101906117619190612305565b61179f5760405162461bcd60e51b815260206004820152600f60248201526e151c985b9cd9995c8819985a5b1959608a1b6044820152606401610818565b83546001600160a01b03908116908a16036117ee57808460020160008282546117c891906122d0565b92505081905550828460030160008282546117e39190612340565b909155506118239050565b8084600301600082825461180291906122d0565b925050819055508284600201600082825461181d9190612340565b90915550505b60405163a9059cbb60e01b8152336004820152602481018490526001600160a01b0389169063a9059cbb906044016020604051808303816000875af1158015611870573d6000803e3d6000fd5b505050506040513d601f19601f820116820180604052508101906118949190612305565b6118d25760405162461bcd60e51b815260206004820152600f60248201526e151c985b9cd9995c8819985a5b1959608a1b6044820152606401610818565b86600660008282546118e491906122d0565b9250508190555081600860008282546118fd91906122d0565b9091555050604080513381526001600160a01b038b811660208301528a1681830152606081018990526080810185905290518b917f7d52dd3ec2b5b193fe77bae34cf749a007f751f47b24c6c175bfa7bf8a4df90e919081900360a00190a2897f49d512bf9cb224241c05691e73eb9fab078cf350c7dbcbcf66788f1fc0cc8b0b8360405161198e91815260200190565b60405180910390a2509098975050505050505050565b6119ad826108c6565b6119b6816119c0565b6109048383611a72565b6119ca8133611d30565b50565b60006000805160206123e98339815191526119e884846111d5565b611a68576000848152602082815260408083206001600160a01b03871684529091529020805460ff19166001179055611a1e3390565b6001600160a01b0316836001600160a01b0316857f2f8788117e7eff1d82e926ec794901d17c78024a50270940304540a733656f0d60405160405180910390a460019150506107ce565b60009150506107ce565b60006000805160206123e9833981519152611a8d84846111d5565b15611a68576000848152602082815260408083206001600160a01b0387168085529252808320805460ff1916905551339287917ff6391f5c32d9c69d2a47ea670b442974b53935d1edc7fd64eb21e047a839171b9190a460019150506107ce565b6000806002611afe8460016122d0565b611b0891906122e3565b90508291505b81811015611b4157905080600281611b2681866122e3565b611b3091906122d0565b611b3a91906122e3565b9050611b0e565b50919050565b6000807ff0c57e16840df040f15088dc2f81fe391c3923bec73e23a9662efc9c229c6a006107ce565b611b78611d69565b565b306001600160a01b037f0000000000000000000000000000000000000000000000000000000000000000161480611c0157507f00000000000000000000000000000000000000000000000000000000000000006001600160a01b0316611bf5600080516020612389833981519152546001600160a01b031690565b6001600160a01b031614155b15611b785760405163703e46dd60e11b815260040160405180910390fd5b6000610ebe816119c0565b816001600160a01b03166352d1902d6040518163ffffffff1660e01b8152600401602060405180830381865afa925050508015611c84575060408051601f3d908101601f19168201909252611c8191810190612353565b60015b611cac57604051634c9c8ce360e01b81526001600160a01b0383166004820152602401610818565b6000805160206123898339815191528114611cdd57604051632a87526960e21b815260048101829052602401610818565b61093d8383611d8e565b306001600160a01b037f00000000000000000000000000000000000000000000000000000000000000001614611b785760405163703e46dd60e11b815260040160405180910390fd5b611d3a82826111d5565b610ebe5760405163e2517d3f60e01b81526001600160a01b038216600482015260248101839052604401610818565b611d71611de4565b611b7857604051631afcd79f60e31b815260040160405180910390fd5b611d9782611dfe565b6040516001600160a01b038316907fbc7cd75a20ee27fd9adebab32041f755214dbc6bffa90cc0225b39da2e5c2d3b90600090a2805115611ddc5761093d8282611e63565b610ebe611ed9565b6000611dee611b47565b54600160401b900460ff16919050565b806001600160a01b03163b600003611e3457604051634c9c8ce360e01b81526001600160a01b0382166004820152602401610818565b60008051602061238983398151915280546001600160a01b0319166001600160a01b0392909216919091179055565b6060600080846001600160a01b031684604051611e80919061236c565b600060405180830381855af49150503d8060008114611ebb576040519150601f19603f3d011682016040523d82523d6000602084013e611ec0565b606091505b5091509150611ed0858383611ef8565b95945050505050565b3415611b785760405163b398979f60e01b815260040160405180910390fd5b606082611f0d57611f0882611f54565b6108bf565b8151158015611f2457506001600160a01b0384163b155b15611f4d57604051639996b31560e01b81526001600160a01b0385166004820152602401610818565b50806108bf565b805115611f6357805160208201fd5b60405163d6bda27560e01b815260040160405180910390fd5b600060208284031215611f8e57600080fd5b81356001600160e01b0319811681146108bf57600080fd5b600080600060608486031215611fbb57600080fd5b505081359360208301359350604090920135919050565b600060208284031215611fe457600080fd5b5035919050565b80356001600160a01b038116811461200257600080fd5b919050565b60006020828403121561201957600080fd5b6108bf82611feb565b6000806040838503121561203557600080fd5b8235915061204560208401611feb565b90509250929050565b6000806040838503121561206157600080fd5b61206a83611feb565b946020939093013593505050565b6000806040838503121561208b57600080fd5b61209483611feb565b915061204560208401611feb565b634e487b7160e01b600052604160045260246000fd5b600080604083850312156120cb57600080fd5b6120d483611feb565b9150602083013567ffffffffffffffff808211156120f157600080fd5b818501915085601f83011261210557600080fd5b813581811115612117576121176120a2565b604051601f8201601f19908116603f0116810190838211818310171561213f5761213f6120a2565b8160405282815288602084870101111561215857600080fd5b8260208601602083013760006020848301015280955050505050509250929050565b6000806040838503121561218d57600080fd5b50508035926020909101359150565b6000806000606084860312156121b157600080fd5b6121ba84611feb565b92506121c860208501611feb565b9150604084013590509250925092565b6001600160a01b0394909416845260208401929092526040830152606082015260800190565b60005b83811015612219578181015183820152602001612201565b50506000910152565b60208152600082518060208401526122418160408501602087016121fe565b601f01601f19169190910160400192915050565b600080600080600060a0868803121561226d57600080fd5b8535945061227d60208701611feb565b935061228b60408701611feb565b94979396509394606081013594506080013592915050565b634e487b7160e01b600052601160045260246000fd5b80820281158282048414176107ce576107ce6122a3565b808201808211156107ce576107ce6122a3565b60008261230057634e487b7160e01b600052601260045260246000fd5b500490565b60006020828403121561231757600080fd5b815180151581146108bf57600080fd5b600060018201612339576123396122a3565b5060010190565b818103818111156107ce576107ce6122a3565b60006020828403121561236557600080fd5b5051919050565b6000825161237e8184602087016121fe565b919091019291505056fe360894a13ba1a3210667c828492db98dca3e2076cc3735a920a3ca505d382bbc541943c4a49765b7940b4b1392c4b1f8ede6efd4e23572572987ae02e569a78642802a37d17e698ec3d88f7a6917f1f5a6abb4d99a8f4255c389e56d10218a6402dd7bc7dec4dceedda775e58dd541e08a116c6c53815c0bd028192f7b626800a26469706673582212203eb337b9228d2597e714c427cb78ebbd277a282562f8705538bad0827348a7f264736f6c63430008160033",
  "linkReferences": {},
  "deployedLinkReferences": {}
}