{
  "_format": "hh-sol-artifact-1",
  "contractName": "MNBAuctionEscrow",
  "sourceName": "contracts/MNBAuctionEscrow.sol",
  "abi": [
    {
      "inputs": [],
      "stateMutability": "nonpayable",
      "type": "constructor"
    },
    {
      "inputs": [],
      "name": "AccessControlBadConfirmation",
      "type": "error"
    },
    {
      "inputs": [
        {
          "internalType": "address",
          "name": "account",
          "type": "address"
        },
        {
          "internalType": "bytes32",
          "name": "neededRole",
          "type": "bytes32"
        }
      ],
      "name": "AccessControlUnauthorizedAccount",
      "type": "error"
    },
    {
      "inputs": [
        {
          "internalType": "address",
          "name": "target",
          "type": "address"
        }
      ],
      "name": "AddressEmptyCode",
      "type": "error"
    },
    {
      "inputs": [
        {
          "internalType": "address",
          "name": "implementation",
          "type": "address"
        }
      ],
      "name": "ERC1967InvalidImplementation",
      "type": "error"
    },
    {
      "inputs": [],
      "name": "ERC1967NonPayable",
      "type": "error"
    },
    {
      "inputs": [],
      "name": "FailedCall",
      "type": "error"
    },
    {
      "inputs": [],
      "name": "InvalidInitialization",
      "type": "error"
    },
    {
      "inputs": [],
      "name": "NotInitializing",
      "type": "error"
    },
    {
      "inputs": [],
      "name": "ReentrancyGuardReentrantCall",
      "type": "error"
    },
    {
      "inputs": [],
      "name": "UUPSUnauthorizedCallContext",
      "type": "error"
    },
    {
      "inputs": [
        {
          "internalType": "bytes32",
          "name": "slot",
          "type": "bytes32"
        }
      ],
      "name": "UUPSUnsupportedProxiableUUID",
      "type": "error"
    },
    {
      "anonymous": false,
      "inputs": [
        {
          "indexed": true,
          "internalType": "address",
          "name": "recipient",
          "type": "address"
        },
        {
          "indexed": false,
          "internalType": "uint256",
          "name": "amount",
          "type": "uint256"
        }
      ],
      "name": "CommissionWithdrawn",
      "type": "event"
    },
    {
      "anonymous": false,
      "inputs": [
        {
          "indexed": false,
          "internalType": "uint256",
          "name": "commissionBps",
          "type": "uint256"
        },
        {
          "indexed": false,
          "internalType": "uint256",
          "name": "lockDuration",
          "type": "uint256"
        }
      ],
      "name": "ConfigUpdated",
      "type": "event"
    },
    {
      "anonymous": false,
      "inputs": [
        {
          "indexed": true,
          "internalType": "uint256",
          "name": "auctionId",
          "type": "uint256"
        },
        {
          "indexed": true,
          "internalType": "address",
          "name": "initiator",
          "type": "address"
        },
        {
          "indexed": false,
          "internalType": "string",
          "name": "reason",
          "type": "string"
        }
      ],
      "name": "DisputeRaised",
      "type": "event"
    },
    {
      "anonymous": false,
      "inputs": [
        {
          "indexed": true,
          "internalType": "uint256",
          "name": "auctionId",
          "type": "uint256"
        },
        {
          "indexed": true,
          "internalType": "address",
          "name": "resolver",
          "type": "address"
        },
        {
          "indexed": false,
          "internalType": "bool",
          "name": "favorBuyer",
          "type": "bool"
        }
      ],
      "name": "DisputeResolved",
      "type": "event"
    },
    {
      "anonymous": false,
      "inputs": [
        {
          "indexed": true,
          "internalType": "uint256",
          "name": "auctionId",
          "type": "uint256"
        },
        {
          "indexed": true,
          "internalType": "address",
          "name": "buyer",
          "type": "address"
        },
        {
          "indexed": true,
          "internalType": "address",
          "name": "seller",
          "type": "address"
        },
        {
          "indexed": false,
          "internalType": "uint256",
          "name": "amount",
          "type": "uint256"
        },
        {
          "indexed": false,
          "internalType": "bool",
          "name": "usingNativeToken",
          "type": "bool"
        }
      ],
      "name": "EscrowCreated",
      "type": "event"
    },
    {
      "anonymous": false,
      "inputs": [
        {
          "indexed": true,
          "internalType": "uint256",
          "name": "auctionId",
          "type": "uint256"
        },
        {
          "indexed": false,
          "internalType": "uint256",
          "name": "amount",
          "type": "uint256"
        }
      ],
      "name": "FundsLocked",
      "type": "event"
    },
    {
      "anonymous": false,
      "inputs": [
        {
          "indexed": true,
          "internalType": "uint256",
          "name": "auctionId",
          "type": "uint256"
        },
        {
          "indexed": true,
          "internalType": "address",
          "name": "buyer",
          "type": "address"
        },
        {
          "indexed": false,
          "internalType": "uint256",
          "name": "amount",
          "type": "uint256"
        }
      ],
      "name": "FundsRefunded",
      "type": "event"
    },
    {
      "anonymous": false,
      "inputs": [
        {
          "indexed": true,
          "internalType": "uint256",
          "name": "auctionId",
          "type": "uint256"
        },
        {
          "indexed": true,
          "internalType": "address",
          "name": "seller",
          "type": "address"
        },
        {
          "indexed": false,
          "internalType": "uint256",
          "name": "netAmount",
          "type": "uint256"
        },
        {
          "indexed": false,
          "internalType": "uint256",
          "name": "commission",
          "type": "uint256"
        }
      ],
      "name": "FundsReleased",
      "type": "event"
    },
    {
      "anonymous": false,
      "inputs": [
        {
          "indexed": false,
          "internalType": "uint64",
          "name": "version",
          "type": "uint64"
        }
      ],
      "name": "Initialized",
      "type": "event"
    },
    {
      "anonymous": false,
      "inputs": [
        {
          "indexed": true,
          "internalType": "bytes32",
          "name": "role",
          "type": "bytes32"
        },
        {
          "indexed": true,
          "internalType": "bytes32",
          "name": "previousAdminRole",
          "type": "bytes32"
        },
        {
          "indexed": true,
          "internalType": "bytes32",
          "name": "newAdminRole",
          "type": "bytes32"
        }
      ],
      "name": "RoleAdminChanged",
      "type": "event"
    },
    {
      "anonymous": false,
      "inputs": [
        {
          "indexed": true,
          "internalType": "bytes32",
          "name": "role",
          "type": "bytes32"
        },
        {
          "indexed": true,
          "internalType": "address",
          "name": "account",
          "type": "address"
        },
        {
          "indexed": true,
          "internalType": "address",
          "name": "sender",
          "type": "address"
        }
      ],
      "name": "RoleGranted",
      "type": "event"
    },
    {
      "anonymous": false,
      "inputs": [
        {
          "indexed": true,
          "internalType": "bytes32",
          "name": "role",
          "type": "bytes32"
        },
        {
          "indexed": true,
          "internalType": "address",
          "name": "account",
          "type": "address"
        },
        {
          "indexed": true,
          "internalType": "address",
          "name": "sender",
          "type": "address"
        }
      ],
      "name": "RoleRevoked",
      "type": "event"
    },
    {
      "anonymous": false,
      "inputs": [
        {
          "indexed": true,
          "internalType": "address",
          "name": "implementation",
          "type": "address"
        }
      ],
      "name": "Upgraded",
      "type": "event"
    },
    {
      "inputs": [],
      "name": "DEFAULT_ADMIN_ROLE",
      "outputs": [
        {
          "internalType": "bytes32",
          "name": "",
          "type": "bytes32"
        }
      ],
      "stateMutability": "view",
      "type": "function"
    },
    {
      "inputs": [],
      "name": "DISPUTE_RESOLVER_ROLE",
      "outputs": [
        {
          "internalType": "bytes32",
          "name": "",
          "type": "bytes32"
        }
      ],
      "stateMutability": "view",
      "type": "function"
    },
    {
      "inputs": [],
      "name": "ESCROW_ADMIN_ROLE",
      "outputs": [
        {
          "internalType": "bytes32",
          "name": "",
          "type": "bytes32"
        }
      ],
      "stateMutability": "view",
      "type": "function"
    },
    {
      "inputs": [],
      "name": "UPGRADE_INTERFACE_VERSION",
      "outputs": [
        {
          "internalType": "string",
          "name": "",
          "type": "string"
        }
      ],
      "stateMutability": "view",
      "type": "function"
    },
    {
      "inputs": [],
      "name": "activeEscrowCount",
      "outputs": [
        {
          "internalType": "uint256",
          "name": "",
          "type": "uint256"
        }
      ],
      "stateMutability": "view",
      "type": "function"
    },
    {
      "inputs": [],
      "name": "defaultCommissionBasisPoints",
      "outputs": [
        {
          "internalType": "uint256",
          "name": "",
          "type": "uint256"
        }
      ],
      "stateMutability": "view",
      "type": "function"
    },
    {
      "inputs": [
        {
          "internalType": "address",
          "name": "token",
          "type": "address"
        },
        {
          "internalType": "uint256",
          "name": "amount",
          "type": "uint256"
        }
      ],
      "name": "emergencyWithdraw",
      "outputs": [],
      "stateMutability": "nonpayable",
      "type": "function"
    },
    {
      "inputs": [],
      "name": "escrowLockDuration",
      "outputs": [
        {
          "internalType": "uint256",
          "name": "",
          "type": "uint256"
        }
      ],
      "stateMutability": "view",
      "type": "function"
    },
    {
      "inputs": [
        {
          "internalType": "uint256",
          "name": "",
          "type": "uint256"
        }
      ],
      "name": "escrows",
      "outputs": [
        {
          "internalType": "uint256",
          "name": "auctionId",
          "type": "uint256"
        },
        {
          "internalType": "address",
          "name": "buyer",
          "type": "address"
        },
        {
          "internalType": "address",
          "name": "seller",
          "type": "address"
        },
        {
          "internalType": "uint256",
          "name": "amount",
          "type": "uint256"
        },
        {
          "internalType": "uint256",
          "name": "commission",
          "type": "uint256"
        },
        {
          "internalType": "enum MNBAuctionEscrow.EscrowStatus",
          "name": "status",
          "type": "uint8"
        },
        {
          "internalType": "uint256",
          "name": "createdAt",
          "type": "uint256"
        },
        {
          "internalType": "uint256",
          "name": "releasedAt",
          "type": "uint256"
        },
        {
          "internalType": "uint256",
          "name": "expiresAt",
          "type": "uint256"
        },
        {
          "internalType": "bool",
          "name": "usingNativeToken",
          "type": "bool"
        }
      ],
      "stateMutability": "view",
      "type": "function"
    },
    {
      "inputs": [
        {
          "internalType": "uint256",
          "name": "auctionId",
          "type": "uint256"
        }
      ],
      "name": "getEscrow",
      "outputs": [
        {
          "components": [
            {
              "internalType": "uint256",
              "name": "auctionId",
              "type": "uint256"
            },
            {
              "internalType": "address",
              "name": "buyer",
              "type": "address"
            },
            {
              "internalType": "address",
              "name": "seller",
              "type": "address"
            },
            {
              "internalType": "uint256",
              "name": "amount",
              "type": "uint256"
            },
            {
              "internalType": "uint256",
              "name": "commission",
              "type": "uint256"
            },
            {
              "internalType": "enum MNBAuctionEscrow.EscrowStatus",
              "name": "status",
              "type": "uint8"
            },
            {
              "internalType": "uint256",
              "name": "createdAt",
              "type": "uint256"
            },
            {
              "internalType": "uint256",
              "name": "releasedAt",
              "type": "uint256"
            },
            {
              "internalType": "uint256",
              "name": "expiresAt",
              "type": "uint256"
            },
            {
              "internalType": "bool",
              "name": "usingNativeToken",
              "type": "bool"
            }
          ],
          "internalType": "struct MNBAuctionEscrow.Escrow",
          "name": "",
          "type": "tuple"
        }
      ],
      "stateMutability": "view",
      "type": "function"
    },
    {
      "inputs": [
        {
          "internalType": "bytes32",
          "name": "role",
          "type": "bytes32"
        }
      ],
      "name": "getRoleAdmin",
      "outputs": [
        {
          "internalType": "bytes32",
          "name": "",
          "type": "bytes32"
        }
      ],
      "stateMutability": "view",
      "type": "function"
    },
    {
      "inputs": [],
      "name": "getStats",
      "outputs": [
        {
          "internalType": "uint256",
          "name": "volume",
          "type": "uint256"
        },
        {
          "internalType": "uint256",
          "name": "commission",
          "type": "uint256"
        },
        {
          "internalType": "uint256",
          "name": "activeCount",
          "type": "uint256"
        }
      ],
      "stateMutability": "view",
      "type": "function"
    },
    {
      "inputs": [
        {
          "internalType": "address",
          "name": "user",
          "type": "address"
        }
      ],
      "name": "getUserEscrows",
      "outputs": [
        {
          "internalType": "uint256[]",
          "name": "",
          "type": "uint256[]"
        }
      ],
      "stateMutability": "view",
      "type": "function"
    },
    {
      "inputs": [
        {
          "internalType": "bytes32",
          "name": "role",
          "type": "bytes32"
        },
        {
          "internalType": "address",
          "name": "account",
          "type": "address"
        }
      ],
      "name": "grantRole",
      "outputs": [],
      "stateMutability": "nonpayable",
      "type": "function"
    },
    {
      "inputs": [
        {
          "internalType": "uint256",
          "name": "auctionId",
          "type": "uint256"
        }
      ],
      "name": "handleExpiredEscrow",
      "outputs": [],
      "stateMutability": "nonpayable",
      "type": "function"
    },
    {
      "inputs": [
        {
          "internalType": "bytes32",
          "name": "role",
          "type": "bytes32"
        },
        {
          "internalType": "address",
          "name": "account",
          "type": "address"
        }
      ],
      "name": "hasRole",
      "outputs": [
        {
          "internalType": "bool",
          "name": "",
          "type": "bool"
        }
      ],
      "stateMutability": "view",
      "type": "function"
    },
    {
      "inputs": [
        {
          "internalType": "address",
          "name": "defaultAdmin",
          "type": "address"
        },
        {
          "internalType": "address",
          "name": "_mnbTokenAddress",
          "type": "address"
        },
        {
          "internalType": "address",
          "name": "_treasuryAddress",
          "type": "address"
        }
      ],
      "name": "initialize",
      "outputs": [],
      "stateMutability": "nonpayable",
      "type": "function"
    },
    {
      "inputs": [
        {
          "internalType": "uint256",
          "name": "auctionId",
          "type": "uint256"
        },
        {
          "internalType": "address",
          "name": "seller",
          "type": "address"
        },
        {
          "internalType": "uint256",
          "name": "amount",
          "type": "uint256"
        },
        {
          "internalType": "bool",
          "name": "useNativeToken",
          "type": "bool"
        }
      ],
      "name": "lockFunds",
      "outputs": [],
      "stateMutability": "payable",
      "type": "function"
    },
    {
      "inputs": [],
      "name": "mnbToken",
      "outputs": [
        {
          "internalType": "contract IERC20",
          "name": "",
          "type": "address"
        }
      ],
      "stateMutability": "view",
      "type": "function"
    },
    {
      "inputs": [],
      "name": "proxiableUUID",
      "outputs": [
        {
          "internalType": "bytes32",
          "name": "",
          "type": "bytes32"
        }
      ],
      "stateMutability": "view",
      "type": "function"
    },
    {
      "inputs": [
        {
          "internalType": "uint256",
          "name": "auctionId",
          "type": "uint256"
        },
        {
          "internalType": "string",
          "name": "reason",
          "type": "string"
        }
      ],
      "name": "raiseDispute",
      "outputs": [],
      "stateMutability": "nonpayable",
      "type": "function"
    },
    {
      "inputs": [
        {
          "internalType": "uint256",
          "name": "auctionId",
          "type": "uint256"
        }
      ],
      "name": "refundBuyer",
      "outputs": [],
      "stateMutability": "nonpayable",
      "type": "function"
    },
    {
      "inputs": [
        {
          "internalType": "uint256",
          "name": "auctionId",
          "type": "uint256"
        }
      ],
      "name": "releaseFunds",
      "outputs": [],
      "stateMutability": "nonpayable",
      "type": "function"
    },
    {
      "inputs": [
        {
          "internalType": "bytes32",
          "name": "role",
          "type": "bytes32"
        },
        {
          "internalType": "address",
          "name": "callerConfirmation",
          "type": "address"
        }
      ],
      "name": "renounceRole",
      "outputs": [],
      "stateMutability": "nonpayable",
      "type": "function"
    },
    {
      "inputs": [
        {
          "internalType": "uint256",
          "name": "auctionId",
          "type": "uint256"
        },
        {
          "internalType": "bool",
          "name": "favorBuyer",
          "type": "bool"
        }
      ],
      "name": "resolveDispute",
      "outputs": [],
      "stateMutability": "nonpayable",
      "type": "function"
    },
    {
      "inputs": [
        {
          "internalType": "bytes32",
          "name": "role",
          "type": "bytes32"
        },
        {
          "internalType": "address",
          "name": "account",
          "type": "address"
        }
      ],
      "name": "revokeRole",
      "outputs": [],
      "stateMutability": "nonpayable",
      "type": "function"
    },
    {
      "inputs": [
        {
          "internalType": "bytes4",
          "name": "interfaceId",
          "type": "bytes4"
        }
      ],
      "name": "supportsInterface",
      "outputs": [
        {
          "internalType": "bool",
          "name": "",
          "type": "bool"
        }
      ],
      "stateMutability": "view",
      "type": "function"
    },
    {
      "inputs": [],
      "name": "totalCommissionCollected",
      "outputs": [
        {
          "internalType": "uint256",
          "name": "",
          "type": "uint256"
        }
      ],
      "stateMutability": "view",
      "type": "function"
    },
    {
      "inputs": [],
      "name": "totalEscrowVolume",
      "outputs": [
        {
          "internalType": "uint256",
          "name": "",
          "type": "uint256"
        }
      ],
      "stateMutability": "view",
      "type": "function"
    },
    {
      "inputs": [],
      "name": "treasuryAddress",
      "outputs": [
        {
          "internalType": "address",
          "name": "",
          "type": "address"
        }
      ],
      "stateMutability": "view",
      "type": "function"
    },
    {
      "inputs": [
        {
          "internalType": "uint256",
          "name": "commissionBps",
          "type": "uint256"
        },
        {
          "internalType": "uint256",
          "name": "lockDuration",
          "type": "uint256"
        }
      ],
      "name": "updateConfig",
      "outputs": [],
      "stateMutability": "nonpayable",
      "type": "function"
    },
    {
      "inputs": [
        {
          "internalType": "address",
          "name": "newTreasury",
          "type": "address"
        }
      ],
      "name": "updateTreasury",
      "outputs": [],
      "stateMutability": "nonpayable",
      "type": "function"
    },
    {
      "inputs": [
        {
          "internalType": "address",
          "name": "newImplementation",
          "type": "address"
        },
        {
          "internalType": "bytes",
          "name": "data",
          "type": "bytes"
        }
      ],
      "name": "upgradeToAndCall",
      "outputs": [],
      "stateMutability": "payable",
      "type": "function"
    },
    {
      "inputs": [
        {
          "internalType": "address",
          "name": "",
          "type": "address"
        },
        {
          "internalType": "uint256",
          "name": "",
          "type": "uint256"
        }
      ],
      "name": "userEscrows",
      "outputs": [
        {
          "internalType": "uint256",
          "name": "",
          "type": "uint256"
        }
      ],
      "stateMutability": "view",
      "type": "function"
    },
    {
      "stateMutability": "payable",
      "type": "receive"
    }
  ],
  "bytecode": "0x60a06040523060805260fa60075562093a806008553480156200002157600080fd5b506200002c62000032565b620000e6565b7ff0c57e16840df040f15088dc2f81fe391c3923bec73e23a9662efc9c229c6a00805468010000000000000000900460ff1615620000835760405163f92ee8a960e01b815260040160405180910390fd5b80546001600160401b0390811614620000e35780546001600160401b0319166001600160401b0390811782556040519081527fc7f505b2f371ae2175ee4913f4499e1f2633a7b5936321eed1cdaeb6115181d29060200160405180910390a15b50565b6080516129d96200011060003960008181611ea301528181611ecc015261201201526129d96000f3fe6080604052600436106101fd5760003560e01c80637d19e5961161010d5780639f8c6cc7116100a0578063c0c53b8b1161006f578063c0c53b8b14610655578063c59d484714610675578063c5f956af146106a6578063c781aa41146106c6578063d547741f146106dc57600080fd5b80639f8c6cc7146105ae578063a217fddf146105ce578063ad3cb1cc146105e3578063bfe42a371461062157600080fd5b80638248e722116100dc5780638248e7221461053857806391d148541461055857806395ccea67146105785780639d3979c41461059857600080fd5b80637d19e596146104b85780637f51bb1f146104e55780637f944dd014610505578063801b24ae1461052557600080fd5b806336568abe116101905780634f1ef2861161015f5780634f1ef2861461042157806352d1902d146104345780635aef573c146104495780635ccea85e146104695780636e61462a1461049657600080fd5b806336568abe146103ab57806339292763146103cb5780633cd88968146103eb5780634d68282f1461040157600080fd5b8063248a9ca3116101cc578063248a9ca3146103115780632f2ff15d1461033157806331cb27901461035357806334b25ee21461038b57600080fd5b8063012f52ee1461020957806301ffc9a7146102a75780630c116d2b146102d75780632304e9dc146102fb57600080fd5b3661020457005b600080fd5b34801561021557600080fd5b506102886102243660046122e8565b6002602081905260009182526040909120805460018201549282015460038301546004840154600585015460068601546007870154600888015460099098015496986001600160a01b03908116989616969495939460ff938416949293919291168a565b60405161029e9a99989796959493929190612339565b60405180910390f35b3480156102b357600080fd5b506102c76102c236600461239e565b6106fc565b604051901515815260200161029e565b3480156102e357600080fd5b506102ed60075481565b60405190815260200161029e565b34801561030757600080fd5b506102ed60045481565b34801561031d57600080fd5b506102ed61032c3660046122e8565b610733565b34801561033d57600080fd5b5061035161034c3660046123e4565b610755565b005b34801561035f57600080fd5b50600054610373906001600160a01b031681565b6040516001600160a01b03909116815260200161029e565b34801561039757600080fd5b506103516103a636600461241e565b610777565b3480156103b757600080fd5b506103516103c63660046123e4565b6108f9565b3480156103d757600080fd5b506103516103e63660046122e8565b610931565b3480156103f757600080fd5b506102ed60055481565b34801561040d57600080fd5b5061035161041c3660046122e8565b610b8e565b61035161042f366004612464565b610f1f565b34801561044057600080fd5b506102ed610f3a565b34801561045557600080fd5b50610351610464366004612526565b610f57565b34801561047557600080fd5b506104896104843660046125a2565b611046565b60405161029e91906125bd565b3480156104a257600080fd5b506102ed60008051602061298483398151915281565b3480156104c457600080fd5b506104d86104d33660046122e8565b6110b2565b60405161029e9190612601565b3480156104f157600080fd5b506103516105003660046125a2565b6111cd565b34801561051157600080fd5b506102ed6105203660046126a4565b611244565b6103516105333660046126ce565b611275565b34801561054457600080fd5b50610351610553366004612716565b611780565b34801561056457600080fd5b506102c76105733660046123e4565b611870565b34801561058457600080fd5b506103516105933660046126a4565b6118a8565b3480156105a457600080fd5b506102ed60085481565b3480156105ba57600080fd5b506103516105c93660046122e8565b61195f565b3480156105da57600080fd5b506102ed600081565b3480156105ef57600080fd5b50610614604051806040016040528060058152602001640352e302e360dc1b81525081565b60405161029e919061275c565b34801561062d57600080fd5b506102ed7f7b8bb8356a3f32f5c111ff23f050d97f08988e0883529ea7bff3b918887a6e0e81565b34801561066157600080fd5b5061035161067036600461278f565b611b75565b34801561068157600080fd5b506004546005546006546040805193845260208401929092529082015260600161029e565b3480156106b257600080fd5b50600154610373906001600160a01b031681565b3480156106d257600080fd5b506102ed60065481565b3480156106e857600080fd5b506103516106f73660046123e4565b611d02565b60006001600160e01b03198216637965db0b60e01b148061072d57506301ffc9a760e01b6001600160e01b03198316145b92915050565b6000908152600080516020612944833981519152602052604090206001015490565b61075e82610733565b61076781611d1e565b6107718383611d2b565b50505050565b7f7b8bb8356a3f32f5c111ff23f050d97f08988e0883529ea7bff3b918887a6e0e6107a181611d1e565b6000838152600260205260409020600460058083015460ff16908111156107ca576107ca612301565b1461080b5760405162461bcd60e51b815260206004820152600c60248201526b139bdd08191a5cdc1d5d195960a21b60448201526064015b60405180910390fd5b821561086757604051633929276360e01b8152600481018590523090633929276390602401600060405180830381600087803b15801561084a57600080fd5b505af115801561085e573d6000803e3d6000fd5b505050506108b9565b604051634d68282f60e01b8152600481018590523090634d68282f90602401600060405180830381600087803b1580156108a057600080fd5b505af11580156108b4573d6000803e3d6000fd5b505050505b6040518315158152339085907f8fdd4548a8481406b6e29c0d6f25e27cd72502f79f4adf409468502e7920dabc906020015b60405180910390a350505050565b6001600160a01b03811633146109225760405163334bd91960e11b815260040160405180910390fd5b61092c8282611dd0565b505050565b60008051602061298483398151915261094981611d1e565b610951611e4c565b6000828152600260205260409020600160058083015460ff169081111561097a5761097a612301565b148061099e5750600460058083015460ff169081111561099c5761099c612301565b145b6109ea5760405162461bcd60e51b815260206004820152601960248201527f496e76616c69642073746174757320666f7220726566756e64000000000000006044820152606401610802565b60058101805460ff1916600317905560068054906000610a09836127e8565b9091555050600981015460ff1615610a6157600181015460038201546040516001600160a01b039092169181156108fc0291906000818181858888f19350505050158015610a5b573d6000803e3d6000fd5b50610b27565b6000546001820154600383015460405163a9059cbb60e01b81526001600160a01b039283166004820152602481019190915291169063a9059cbb906044016020604051808303816000875af1158015610abe573d6000803e3d6000fd5b505050506040513d601f19601f82011682018060405250810190610ae291906127ff565b610b275760405162461bcd60e51b81526020600482015260166024820152751499599d5b99081d1c985b9cd9995c8819985a5b195960521b6044820152606401610802565b600181015460038201546040519081526001600160a01b039091169084907f80b577b4fc190ab86d963549e29f496afd079c5d81a2480d61217d4b5060a28c9060200160405180910390a350610b8a600160008051602061296483398151915255565b5050565b600080516020612984833981519152610ba681611d1e565b610bae611e4c565b6000828152600260205260409020600160058083015460ff1690811115610bd757610bd7612301565b14610bf45760405162461bcd60e51b81526004016108029061281c565b8060080154421115610c395760405162461bcd60e51b815260206004820152600e60248201526d115cd8dc9bddc8195e1c1a5c995960921b6044820152606401610802565b600081600401548260030154610c4f9190612847565b60058301805460ff19166002179055426007840155600680549192506000610c76836127e8565b9190505550816004015460056000828254610c91919061285a565b9091555050600982015460ff1615610d245760028201546040516001600160a01b039091169082156108fc029083906000818181858888f19350505050158015610cdf573d6000803e3d6000fd5b5060015460048301546040516001600160a01b039092169181156108fc0291906000818181858888f19350505050158015610d1e573d6000803e3d6000fd5b50610eaf565b600054600283015460405163a9059cbb60e01b81526001600160a01b0391821660048201526024810184905291169063a9059cbb906044016020604051808303816000875af1158015610d7b573d6000803e3d6000fd5b505050506040513d601f19601f82011682018060405250810190610d9f91906127ff565b610de45760405162461bcd60e51b815260206004820152601660248201527514d95b1b195c881d1c985b9cd9995c8819985a5b195960521b6044820152606401610802565b60005460015460048481015460405163a9059cbb60e01b81526001600160a01b0393841692810192909252602482015291169063a9059cbb906044016020604051808303816000875af1158015610e3f573d6000803e3d6000fd5b505050506040513d601f19601f82011682018060405250810190610e6391906127ff565b610eaf5760405162461bcd60e51b815260206004820152601a60248201527f436f6d6d697373696f6e207472616e73666572206661696c65640000000000006044820152606401610802565b600282015460048301546040516001600160a01b039092169186917f93e901cc5aea20ea9655887d9290a3215a5b3999c024812f4e4b749f7534349c91610efe91868252602082015260400190565b60405180910390a35050610b8a600160008051602061296483398151915255565b610f27611e98565b610f3082611f3f565b610b8a8282611f4a565b6000610f44612007565b5060008051602061292483398151915290565b600083815260026020526040902060018101546001600160a01b0316331480610f8c575060028101546001600160a01b031633145b610fc95760405162461bcd60e51b815260206004820152600e60248201526d139bdd08185d5d1a1bdc9a5e995960921b6044820152606401610802565b600160058083015460ff1690811115610fe457610fe4612301565b146110015760405162461bcd60e51b81526004016108029061281c565b60058101805460ff19166004179055604051339085907f1b84372106d77c6daea0dda35bbc0229d10a83f58ec899092884925193682341906108eb908790879061286d565b6001600160a01b0381166000908152600360209081526040918290208054835181840281018401909452808452606093928301828280156110a657602002820191906000526020600020905b815481526020019060010190808311611092575b50505050509050919050565b61110a604080516101408101825260008082526020820181905291810182905260608101829052608081018290529060a082019081526020016000815260200160008152602001600081526020016000151581525090565b6000828152600260208181526040928390208351610140810185528154815260018201546001600160a01b03908116938201939093529281015490911692820192909252600382015460608201526004820154608082015260058083015491929160a084019160ff9091169081111561118557611185612301565b600581111561119657611196612301565b815260068201546020820152600782015460408201526008820154606082015260099091015460ff16151560809091015292915050565b60006111d881611d1e565b6001600160a01b0382166112215760405162461bcd60e51b815260206004820152601060248201526f496e76616c696420747265617375727960801b6044820152606401610802565b50600180546001600160a01b0319166001600160a01b0392909216919091179055565b6003602052816000526040600020818154811061126057600080fd5b90600052602060002001600091509150505481565b61127d611e4c565b6001600160a01b0383166112cc5760405162461bcd60e51b8152602060048201526016602482015275496e76616c69642073656c6c6572206164647265737360501b6044820152606401610802565b6000821161131c5760405162461bcd60e51b815260206004820152601d60248201527f416d6f756e74206d7573742062652067726561746572207468616e20300000006044820152606401610802565b600084815260026020526040812060059081015460ff169081111561134357611343612301565b148061136757506000848152600260205260409020600101546001600160a01b0316155b6113ab5760405162461bcd60e51b8152602060048201526015602482015274457363726f7720616c72656164792065786973747360581b6044820152606401610802565b6000612710600754846113be919061289c565b6113c891906128b3565b905081156114245782341461141f5760405162461bcd60e51b815260206004820152601d60248201527f496e636f7272656374206e617469766520746f6b656e20616d6f756e740000006044820152606401610802565b611531565b34156114725760405162461bcd60e51b815260206004820152601c60248201527f53686f756c64206e6f742073656e64206e617469766520746f6b656e000000006044820152606401610802565b6000546040516323b872dd60e01b8152336004820152306024820152604481018590526001600160a01b03909116906323b872dd906064016020604051808303816000875af11580156114c9573d6000803e3d6000fd5b505050506040513d601f19601f820116820180604052508101906114ed91906127ff565b6115315760405162461bcd60e51b8152602060048201526015602482015274151bdad95b881d1c985b9cd9995c8819985a5b1959605a1b6044820152606401610802565b604051806101400160405280868152602001336001600160a01b03168152602001856001600160a01b031681526020018481526020018281526020016001600581111561158057611580612301565b815260200142815260200160008152602001600854426115a0919061285a565b8152831515602091820152600087815260028083526040918290208451815592840151600180850180546001600160a01b039384166001600160a01b0319918216179091559386015192850180549390921692909316919091179055606083015160038301556080830151600483015560a0830151600580840180549293909260ff191691849081111561163657611636612301565b021790555060c0820151600682015560e082015160078201556101008201516008820155610120909101516009909101805460ff1916911515919091179055336000908152600360209081526040808320805460018181018355918552838520018990556001600160a01b038816845290832080549182018155835290822001869055600480548592906116cb90849061285a565b9091555050600680549060006116e0836128d5565b90915550506040805184815283151560208201526001600160a01b03861691339188917fe083885ec29ccbce7a6f80b5c5925fbd25e4e68e91c35b9405c536ef0fa6e275910160405180910390a4847fbedc4e5ac6876307c4b4b5761039aa2ebce89052490a34e15cc655d9142ba0dc8460405161176091815260200190565b60405180910390a250610771600160008051602061296483398151915255565b600061178b81611d1e565b6103e88311156117d35760405162461bcd60e51b8152602060048201526013602482015272086dedadad2e6e6d2dedc40e8dede40d0d2ced606b1b6044820152606401610802565b6201518082101580156117e9575062278d008211155b6118285760405162461bcd60e51b815260206004820152601060248201526f24b73b30b634b210323ab930ba34b7b760811b6044820152606401610802565b6007839055600882905560408051848152602081018490527f0936b3616d5072fa8f7381ef8e7c35d39bed9ecfb2184e908a56027ad5c0b6bc910160405180910390a1505050565b6000918252600080516020612944833981519152602090815260408084206001600160a01b0393909316845291905290205460ff1690565b60006118b381611d1e565b6001600160a01b0383166118ee57604051339083156108fc029084906000818181858888f19350505050158015610771573d6000803e3d6000fd5b60405163a9059cbb60e01b8152336004820152602481018390526001600160a01b0384169063a9059cbb906044016020604051808303816000875af115801561193b573d6000803e3d6000fd5b505050506040513d601f19601f8201168201806040525081019061077191906127ff565b6000818152600260205260409020600160058083015460ff169081111561198857611988612301565b146119a55760405162461bcd60e51b81526004016108029061281c565b806008015442116119ea5760405162461bcd60e51b815260206004820152600f60248201526e139bdd08195e1c1a5c9959081e595d608a1b6044820152606401610802565b6005818101805460ff1916909117905560068054906000611a0a836127e8565b9091555050600981015460ff1615611a6257600181015460038201546040516001600160a01b039092169181156108fc0291906000818181858888f19350505050158015611a5c573d6000803e3d6000fd5b50611b26565b6000546001820154600383015460405163a9059cbb60e01b81526001600160a01b039283166004820152602481019190915291169063a9059cbb906044016020604051808303816000875af1158015611abf573d6000803e3d6000fd5b505050506040513d601f19601f82011682018060405250810190611ae391906127ff565b611b265760405162461bcd60e51b8152602060048201526014602482015273115e1c1a5c9e481c99599d5b990819985a5b195960621b6044820152606401610802565b600181015460038201546040519081526001600160a01b039091169083907f80b577b4fc190ab86d963549e29f496afd079c5d81a2480d61217d4b5060a28c9060200160405180910390a35050565b6000611b7f612050565b805490915060ff600160401b820416159067ffffffffffffffff16600081158015611ba75750825b905060008267ffffffffffffffff166001148015611bc45750303b155b905081158015611bd2575080155b15611bf05760405163f92ee8a960e01b815260040160405180910390fd5b845467ffffffffffffffff191660011785558315611c1a57845460ff60401b1916600160401b1785555b611c22612079565b611c2a612079565b611c32612081565b611c3d600089611d2b565b50611c5660008051602061298483398151915289611d2b565b50611c817f7b8bb8356a3f32f5c111ff23f050d97f08988e0883529ea7bff3b918887a6e0e89611d2b565b50600080546001600160a01b03808a166001600160a01b03199283161790925560018054928916929091169190911790558315611cf857845460ff60401b19168555604051600181527fc7f505b2f371ae2175ee4913f4499e1f2633a7b5936321eed1cdaeb6115181d29060200160405180910390a15b5050505050505050565b611d0b82610733565b611d1481611d1e565b6107718383611dd0565b611d288133612091565b50565b6000600080516020612944833981519152611d468484611870565b611dc6576000848152602082815260408083206001600160a01b03871684529091529020805460ff19166001179055611d7c3390565b6001600160a01b0316836001600160a01b0316857f2f8788117e7eff1d82e926ec794901d17c78024a50270940304540a733656f0d60405160405180910390a4600191505061072d565b600091505061072d565b6000600080516020612944833981519152611deb8484611870565b15611dc6576000848152602082815260408083206001600160a01b0387168085529252808320805460ff1916905551339287917ff6391f5c32d9c69d2a47ea670b442974b53935d1edc7fd64eb21e047a839171b9190a4600191505061072d565b600080516020612964833981519152805460011901611e7e57604051633ee5aeb560e01b815260040160405180910390fd5b60029055565b600160008051602061296483398151915255565b306001600160a01b037f0000000000000000000000000000000000000000000000000000000000000000161480611f1f57507f00000000000000000000000000000000000000000000000000000000000000006001600160a01b0316611f13600080516020612924833981519152546001600160a01b031690565b6001600160a01b031614155b15611f3d5760405163703e46dd60e11b815260040160405180910390fd5b565b6000610b8a81611d1e565b816001600160a01b03166352d1902d6040518163ffffffff1660e01b8152600401602060405180830381865afa925050508015611fa4575060408051601f3d908101601f19168201909252611fa1918101906128ee565b60015b611fcc57604051634c9c8ce360e01b81526001600160a01b0383166004820152602401610802565b6000805160206129248339815191528114611ffd57604051632a87526960e21b815260048101829052602401610802565b61092c83836120ca565b306001600160a01b037f00000000000000000000000000000000000000000000000000000000000000001614611f3d5760405163703e46dd60e11b815260040160405180910390fd5b6000807ff0c57e16840df040f15088dc2f81fe391c3923bec73e23a9662efc9c229c6a0061072d565b611f3d612120565b612089612120565b611f3d612145565b61209b8282611870565b610b8a5760405163e2517d3f60e01b81526001600160a01b038216600482015260248101839052604401610802565b6120d38261214d565b6040516001600160a01b038316907fbc7cd75a20ee27fd9adebab32041f755214dbc6bffa90cc0225b39da2e5c2d3b90600090a28051156121185761092c82826121b2565b610b8a612228565b612128612247565b611f3d57604051631afcd79f60e31b815260040160405180910390fd5b611e84612120565b806001600160a01b03163b60000361218357604051634c9c8ce360e01b81526001600160a01b0382166004820152602401610802565b60008051602061292483398151915280546001600160a01b0319166001600160a01b0392909216919091179055565b6060600080846001600160a01b0316846040516121cf9190612907565b600060405180830381855af49150503d806000811461220a576040519150601f19603f3d011682016040523d82523d6000602084013e61220f565b606091505b509150915061221f858383612261565b95945050505050565b3415611f3d5760405163b398979f60e01b815260040160405180910390fd5b6000612251612050565b54600160401b900460ff16919050565b60608261227657612271826122c0565b6122b9565b815115801561228d57506001600160a01b0384163b155b156122b657604051639996b31560e01b81526001600160a01b0385166004820152602401610802565b50805b9392505050565b8051156122cf57805160208201fd5b60405163d6bda27560e01b815260040160405180910390fd5b6000602082840312156122fa57600080fd5b5035919050565b634e487b7160e01b600052602160045260246000fd5b6006811061233557634e487b7160e01b600052602160045260246000fd5b9052565b8a81526001600160a01b038a81166020830152891660408201526060810188905260808101879052610140810161237360a0830188612317565b8560c08301528460e0830152836101008301528215156101208301529b9a5050505050505050505050565b6000602082840312156123b057600080fd5b81356001600160e01b0319811681146122b957600080fd5b80356001600160a01b03811681146123df57600080fd5b919050565b600080604083850312156123f757600080fd5b82359150612407602084016123c8565b90509250929050565b8015158114611d2857600080fd5b6000806040838503121561243157600080fd5b82359150602083013561244381612410565b809150509250929050565b634e487b7160e01b600052604160045260246000fd5b6000806040838503121561247757600080fd5b612480836123c8565b9150602083013567ffffffffffffffff8082111561249d57600080fd5b818501915085601f8301126124b157600080fd5b8135818111156124c3576124c361244e565b604051601f8201601f19908116603f011681019083821181831017156124eb576124eb61244e565b8160405282815288602084870101111561250457600080fd5b8260208601602083013760006020848301015280955050505050509250929050565b60008060006040848603121561253b57600080fd5b83359250602084013567ffffffffffffffff8082111561255a57600080fd5b818601915086601f83011261256e57600080fd5b81358181111561257d57600080fd5b87602082850101111561258f57600080fd5b6020830194508093505050509250925092565b6000602082840312156125b457600080fd5b6122b9826123c8565b6020808252825182820181905260009190848201906040850190845b818110156125f5578351835292840192918401916001016125d9565b50909695505050505050565b81518152602080830151610140830191612625908401826001600160a01b03169052565b50604083015161264060408401826001600160a01b03169052565b50606083015160608301526080830151608083015260a083015161266760a0840182612317565b5060c083015160c083015260e083015160e08301526101008084015181840152506101208084015161269c8285018215159052565b505092915050565b600080604083850312156126b757600080fd5b6126c0836123c8565b946020939093013593505050565b600080600080608085870312156126e457600080fd5b843593506126f4602086016123c8565b925060408501359150606085013561270b81612410565b939692955090935050565b6000806040838503121561272957600080fd5b50508035926020909101359150565b60005b8381101561275357818101518382015260200161273b565b50506000910152565b602081526000825180602084015261277b816040850160208701612738565b601f01601f19169190910160400192915050565b6000806000606084860312156127a457600080fd5b6127ad846123c8565b92506127bb602085016123c8565b91506127c9604085016123c8565b90509250925092565b634e487b7160e01b600052601160045260246000fd5b6000816127f7576127f76127d2565b506000190190565b60006020828403121561281157600080fd5b81516122b981612410565b602080825260119082015270115cd8dc9bddc81b9bdd081b1bd8dad959607a1b604082015260600190565b8181038181111561072d5761072d6127d2565b8082018082111561072d5761072d6127d2565b60208152816020820152818360408301376000818301604090810191909152601f909201601f19160101919050565b808202811582820484141761072d5761072d6127d2565b6000826128d057634e487b7160e01b600052601260045260246000fd5b500490565b6000600182016128e7576128e76127d2565b5060010190565b60006020828403121561290057600080fd5b5051919050565b60008251612919818460208701612738565b919091019291505056fe360894a13ba1a3210667c828492db98dca3e2076cc3735a920a3ca505d382bbc02dd7bc7dec4dceedda775e58dd541e08a116c6c53815c0bd028192f7b6268009b779b17422d0df92223018b32b4d1fa46e071723d6817e2486d003becc55f00d471dbbd825301629315dc9fd24c8fa5addf08088354ca89ae2cdac6dc12d950a2646970667358221220ce52340b9a0bfe3607f11e7bfcc216c101cca3754b88e4e667beda6f9eb72ffe64736f6c63430008160033",
  "linkReferences": {},
  "deployedLinkReferences": {}
}