{
  "_format": "hh-sol-artifact-1",
  "contractName": "MNBToken",
  "sourceName": "contracts/MNBToken.sol",
  "abi": [
    {
      "inputs": [],
      "stateMutability": "nonpayable",
      "type": "constructor"
    },
    {
      "inputs": [],
      "name": "AccessControlBadConfirmation",
      "type": "error"
    },
    {
      "inputs": [
        {
          "internalType": "address",
          "name": "account",
          "type": "address"
        },
        {
          "internalType": "bytes32",
          "name": "neededRole",
          "type": "bytes32"
        }
      ],
      "name": "AccessControlUnauthorizedAccount",
      "type": "error"
    },
    {
      "inputs": [
        {
          "internalType": "address",
          "name": "target",
          "type": "address"
        }
      ],
      "name": "AddressEmptyCode",
      "type": "error"
    },
    {
      "inputs": [
        {
          "internalType": "address",
          "name": "implementation",
          "type": "address"
        }
      ],
      "name": "ERC1967InvalidImplementation",
      "type": "error"
    },
    {
      "inputs": [],
      "name": "ERC1967NonPayable",
      "type": "error"
    },
    {
      "inputs": [
        {
          "internalType": "address",
          "name": "spender",
          "type": "address"
        },
        {
          "internalType": "uint256",
          "name": "allowance",
          "type": "uint256"
        },
        {
          "internalType": "uint256",
          "name": "needed",
          "type": "uint256"
        }
      ],
      "name": "ERC20InsufficientAllowance",
      "type": "error"
    },
    {
      "inputs": [
        {
          "internalType": "address",
          "name": "sender",
          "type": "address"
        },
        {
          "internalType": "uint256",
          "name": "balance",
          "type": "uint256"
        },
        {
          "internalType": "uint256",
          "name": "needed",
          "type": "uint256"
        }
      ],
      "name": "ERC20InsufficientBalance",
      "type": "error"
    },
    {
      "inputs": [
        {
          "internalType": "address",
          "name": "approver",
          "type": "address"
        }
      ],
      "name": "ERC20InvalidApprover",
      "type": "error"
    },
    {
      "inputs": [
        {
          "internalType": "address",
          "name": "receiver",
          "type": "address"
        }
      ],
      "name": "ERC20InvalidReceiver",
      "type": "error"
    },
    {
      "inputs": [
        {
          "internalType": "address",
          "name": "sender",
          "type": "address"
        }
      ],
      "name": "ERC20InvalidSender",
      "type": "error"
    },
    {
      "inputs": [
        {
          "internalType": "address",
          "name": "spender",
          "type": "address"
        }
      ],
      "name": "ERC20InvalidSpender",
      "type": "error"
    },
    {
      "inputs": [],
      "name": "EnforcedPause",
      "type": "error"
    },
    {
      "inputs": [],
      "name": "ExpectedPause",
      "type": "error"
    },
    {
      "inputs": [],
      "name": "FailedCall",
      "type": "error"
    },
    {
      "inputs": [],
      "name": "InvalidInitialization",
      "type": "error"
    },
    {
      "inputs": [],
      "name": "NotInitializing",
      "type": "error"
    },
    {
      "inputs": [],
      "name": "UUPSUnauthorizedCallContext",
      "type": "error"
    },
    {
      "inputs": [
        {
          "internalType": "bytes32",
          "name": "slot",
          "type": "bytes32"
        }
      ],
      "name": "UUPSUnsupportedProxiableUUID",
      "type": "error"
    },
    {
      "anonymous": false,
      "inputs": [
        {
          "indexed": true,
          "internalType": "address",
          "name": "account",
          "type": "address"
        }
      ],
      "name": "AccountFrozen",
      "type": "event"
    },
    {
      "anonymous": false,
      "inputs": [
        {
          "indexed": true,
          "internalType": "address",
          "name": "account",
          "type": "address"
        }
      ],
      "name": "AccountUnfrozen",
      "type": "event"
    },
    {
      "anonymous": false,
      "inputs": [
        {
          "indexed": true,
          "internalType": "address",
          "name": "owner",
          "type": "address"
        },
        {
          "indexed": true,
          "internalType": "address",
          "name": "spender",
          "type": "address"
        },
        {
          "indexed": false,
          "internalType": "uint256",
          "name": "value",
          "type": "uint256"
        }
      ],
      "name": "Approval",
      "type": "event"
    },
    {
      "anonymous": false,
      "inputs": [
        {
          "indexed": true,
          "internalType": "address",
          "name": "from",
          "type": "address"
        },
        {
          "indexed": false,
          "internalType": "uint256",
          "name": "amount",
          "type": "uint256"
        },
        {
          "indexed": false,
          "internalType": "string",
          "name": "ref",
          "type": "string"
        }
      ],
      "name": "BurnedWithReference",
      "type": "event"
    },
    {
      "anonymous": false,
      "inputs": [
        {
          "indexed": false,
          "internalType": "uint64",
          "name": "version",
          "type": "uint64"
        }
      ],
      "name": "Initialized",
      "type": "event"
    },
    {
      "anonymous": false,
      "inputs": [
        {
          "indexed": true,
          "internalType": "address",
          "name": "account",
          "type": "address"
        },
        {
          "indexed": false,
          "internalType": "uint256",
          "name": "tier",
          "type": "uint256"
        }
      ],
      "name": "KYCTierUpdated",
      "type": "event"
    },
    {
      "anonymous": false,
      "inputs": [
        {
          "indexed": true,
          "internalType": "address",
          "name": "to",
          "type": "address"
        },
        {
          "indexed": false,
          "internalType": "uint256",
          "name": "amount",
          "type": "uint256"
        },
        {
          "indexed": false,
          "internalType": "string",
          "name": "ref",
          "type": "string"
        }
      ],
      "name": "MintedWithReference",
      "type": "event"
    },
    {
      "anonymous": false,
      "inputs": [
        {
          "indexed": false,
          "internalType": "address",
          "name": "account",
          "type": "address"
        }
      ],
      "name": "Paused",
      "type": "event"
    },
    {
      "anonymous": false,
      "inputs": [
        {
          "indexed": true,
          "internalType": "bytes32",
          "name": "role",
          "type": "bytes32"
        },
        {
          "indexed": true,
          "internalType": "bytes32",
          "name": "previousAdminRole",
          "type": "bytes32"
        },
        {
          "indexed": true,
          "internalType": "bytes32",
          "name": "newAdminRole",
          "type": "bytes32"
        }
      ],
      "name": "RoleAdminChanged",
      "type": "event"
    },
    {
      "anonymous": false,
      "inputs": [
        {
          "indexed": true,
          "internalType": "bytes32",
          "name": "role",
          "type": "bytes32"
        },
        {
          "indexed": true,
          "internalType": "address",
          "name": "account",
          "type": "address"
        },
        {
          "indexed": true,
          "internalType": "address",
          "name": "sender",
          "type": "address"
        }
      ],
      "name": "RoleGranted",
      "type": "event"
    },
    {
      "anonymous": false,
      "inputs": [
        {
          "indexed": true,
          "internalType": "bytes32",
          "name": "role",
          "type": "bytes32"
        },
        {
          "indexed": true,
          "internalType": "address",
          "name": "account",
          "type": "address"
        },
        {
          "indexed": true,
          "internalType": "address",
          "name": "sender",
          "type": "address"
        }
      ],
      "name": "RoleRevoked",
      "type": "event"
    },
    {
      "anonymous": false,
      "inputs": [
        {
          "indexed": true,
          "internalType": "address",
          "name": "from",
          "type": "address"
        },
        {
          "indexed": true,
          "internalType": "address",
          "name": "to",
          "type": "address"
        },
        {
          "indexed": false,
          "internalType": "uint256",
          "name": "value",
          "type": "uint256"
        }
      ],
      "name": "Transfer",
      "type": "event"
    },
    {
      "anonymous": false,
      "inputs": [
        {
          "indexed": false,
          "internalType": "address",
          "name": "account",
          "type": "address"
        }
      ],
      "name": "Unpaused",
      "type": "event"
    },
    {
      "anonymous": false,
      "inputs": [
        {
          "indexed": true,
          "internalType": "address",
          "name": "implementation",
          "type": "address"
        }
      ],
      "name": "Upgraded",
      "type": "event"
    },
    {
      "inputs": [],
      "name": "COMPLIANCE_ROLE",
      "outputs": [
        {
          "internalType": "bytes32",
          "name": "",
          "type": "bytes32"
        }
      ],
      "stateMutability": "view",
      "type": "function"
    },
    {
      "inputs": [],
      "name": "DEFAULT_ADMIN_ROLE",
      "outputs": [
        {
          "internalType": "bytes32",
          "name": "",
          "type": "bytes32"
        }
      ],
      "stateMutability": "view",
      "type": "function"
    },
    {
      "inputs": [],
      "name": "MINTER_ROLE",
      "outputs": [
        {
          "internalType": "bytes32",
          "name": "",
          "type": "bytes32"
        }
      ],
      "stateMutability": "view",
      "type": "function"
    },
    {
      "inputs": [],
      "name": "PAUSER_ROLE",
      "outputs": [
        {
          "internalType": "bytes32",
          "name": "",
          "type": "bytes32"
        }
      ],
      "stateMutability": "view",
      "type": "function"
    },
    {
      "inputs": [],
      "name": "UPGRADER_ROLE",
      "outputs": [
        {
          "internalType": "bytes32",
          "name": "",
          "type": "bytes32"
        }
      ],
      "stateMutability": "view",
      "type": "function"
    },
    {
      "inputs": [],
      "name": "UPGRADE_INTERFACE_VERSION",
      "outputs": [
        {
          "internalType": "string",
          "name": "",
          "type": "string"
        }
      ],
      "stateMutability": "view",
      "type": "function"
    },
    {
      "inputs": [
        {
          "internalType": "address",
          "name": "owner",
          "type": "address"
        },
        {
          "internalType": "address",
          "name": "spender",
          "type": "address"
        }
      ],
      "name": "allowance",
      "outputs": [
        {
          "internalType": "uint256",
          "name": "",
          "type": "uint256"
        }
      ],
      "stateMutability": "view",
      "type": "function"
    },
    {
      "inputs": [
        {
          "internalType": "address",
          "name": "spender",
          "type": "address"
        },
        {
          "internalType": "uint256",
          "name": "value",
          "type": "uint256"
        }
      ],
      "name": "approve",
      "outputs": [
        {
          "internalType": "bool",
          "name": "",
          "type": "bool"
        }
      ],
      "stateMutability": "nonpayable",
      "type": "function"
    },
    {
      "inputs": [
        {
          "internalType": "address",
          "name": "account",
          "type": "address"
        }
      ],
      "name": "balanceOf",
      "outputs": [
        {
          "internalType": "uint256",
          "name": "",
          "type": "uint256"
        }
      ],
      "stateMutability": "view",
      "type": "function"
    },
    {
      "inputs": [
        {
          "internalType": "uint256",
          "name": "value",
          "type": "uint256"
        }
      ],
      "name": "burn",
      "outputs": [],
      "stateMutability": "nonpayable",
      "type": "function"
    },
    {
      "inputs": [
        {
          "internalType": "address",
          "name": "account",
          "type": "address"
        },
        {
          "internalType": "uint256",
          "name": "value",
          "type": "uint256"
        }
      ],
      "name": "burnFrom",
      "outputs": [],
      "stateMutability": "nonpayable",
      "type": "function"
    },
    {
      "inputs": [
        {
          "internalType": "address",
          "name": "from",
          "type": "address"
        },
        {
          "internalType": "uint256",
          "name": "amount",
          "type": "uint256"
        },
        {
          "internalType": "string",
          "name": "ref",
          "type": "string"
        }
      ],
      "name": "burnWithReference",
      "outputs": [],
      "stateMutability": "nonpayable",
      "type": "function"
    },
    {
      "inputs": [
        {
          "internalType": "address",
          "name": "",
          "type": "address"
        }
      ],
      "name": "dailyTransferAmount",
      "outputs": [
        {
          "internalType": "uint256",
          "name": "",
          "type": "uint256"
        }
      ],
      "stateMutability": "view",
      "type": "function"
    },
    {
      "inputs": [],
      "name": "decimals",
      "outputs": [
        {
          "internalType": "uint8",
          "name": "",
          "type": "uint8"
        }
      ],
      "stateMutability": "view",
      "type": "function"
    },
    {
      "inputs": [
        {
          "internalType": "address",
          "name": "account",
          "type": "address"
        }
      ],
      "name": "freezeAccount",
      "outputs": [],
      "stateMutability": "nonpayable",
      "type": "function"
    },
    {
      "inputs": [
        {
          "internalType": "address",
          "name": "",
          "type": "address"
        }
      ],
      "name": "frozenAccounts",
      "outputs": [
        {
          "internalType": "bool",
          "name": "",
          "type": "bool"
        }
      ],
      "stateMutability": "view",
      "type": "function"
    },
    {
      "inputs": [
        {
          "internalType": "address",
          "name": "account",
          "type": "address"
        }
      ],
      "name": "getKYCTier",
      "outputs": [
        {
          "internalType": "uint256",
          "name": "",
          "type": "uint256"
        }
      ],
      "stateMutability": "view",
      "type": "function"
    },
    {
      "inputs": [
        {
          "internalType": "address",
          "name": "account",
          "type": "address"
        }
      ],
      "name": "getRemainingDailyLimit",
      "outputs": [
        {
          "internalType": "uint256",
          "name": "",
          "type": "uint256"
        }
      ],
      "stateMutability": "view",
      "type": "function"
    },
    {
      "inputs": [
        {
          "internalType": "bytes32",
          "name": "role",
          "type": "bytes32"
        }
      ],
      "name": "getRoleAdmin",
      "outputs": [
        {
          "internalType": "bytes32",
          "name": "",
          "type": "bytes32"
        }
      ],
      "stateMutability": "view",
      "type": "function"
    },
    {
      "inputs": [
        {
          "internalType": "bytes32",
          "name": "role",
          "type": "bytes32"
        },
        {
          "internalType": "address",
          "name": "account",
          "type": "address"
        }
      ],
      "name": "grantRole",
      "outputs": [],
      "stateMutability": "nonpayable",
      "type": "function"
    },
    {
      "inputs": [
        {
          "internalType": "bytes32",
          "name": "role",
          "type": "bytes32"
        },
        {
          "internalType": "address",
          "name": "account",
          "type": "address"
        }
      ],
      "name": "hasRole",
      "outputs": [
        {
          "internalType": "bool",
          "name": "",
          "type": "bool"
        }
      ],
      "stateMutability": "view",
      "type": "function"
    },
    {
      "inputs": [
        {
          "internalType": "address",
          "name": "defaultAdmin",
          "type": "address"
        }
      ],
      "name": "initialize",
      "outputs": [],
      "stateMutability": "nonpayable",
      "type": "function"
    },
    {
      "inputs": [
        {
          "internalType": "address",
          "name": "account",
          "type": "address"
        }
      ],
      "name": "isFrozen",
      "outputs": [
        {
          "internalType": "bool",
          "name": "",
          "type": "bool"
        }
      ],
      "stateMutability": "view",
      "type": "function"
    },
    {
      "inputs": [
        {
          "internalType": "address",
          "name": "",
          "type": "address"
        }
      ],
      "name": "kycTiers",
      "outputs": [
        {
          "internalType": "uint256",
          "name": "",
          "type": "uint256"
        }
      ],
      "stateMutability": "view",
      "type": "function"
    },
    {
      "inputs": [
        {
          "internalType": "address",
          "name": "",
          "type": "address"
        }
      ],
      "name": "lastTransferTime",
      "outputs": [
        {
          "internalType": "uint256",
          "name": "",
          "type": "uint256"
        }
      ],
      "stateMutability": "view",
      "type": "function"
    },
    {
      "inputs": [
        {
          "internalType": "address",
          "name": "to",
          "type": "address"
        },
        {
          "internalType": "uint256",
          "name": "amount",
          "type": "uint256"
        },
        {
          "internalType": "string",
          "name": "ref",
          "type": "string"
        }
      ],
      "name": "mintWithReference",
      "outputs": [],
      "stateMutability": "nonpayable",
      "type": "function"
    },
    {
      "inputs": [],
      "name": "name",
      "outputs": [
        {
          "internalType": "string",
          "name": "",
          "type": "string"
        }
      ],
      "stateMutability": "view",
      "type": "function"
    },
    {
      "inputs": [],
      "name": "pause",
      "outputs": [],
      "stateMutability": "nonpayable",
      "type": "function"
    },
    {
      "inputs": [],
      "name": "paused",
      "outputs": [
        {
          "internalType": "bool",
          "name": "",
          "type": "bool"
        }
      ],
      "stateMutability": "view",
      "type": "function"
    },
    {
      "inputs": [],
      "name": "proxiableUUID",
      "outputs": [
        {
          "internalType": "bytes32",
          "name": "",
          "type": "bytes32"
        }
      ],
      "stateMutability": "view",
      "type": "function"
    },
    {
      "inputs": [
        {
          "internalType": "bytes32",
          "name": "role",
          "type": "bytes32"
        },
        {
          "internalType": "address",
          "name": "callerConfirmation",
          "type": "address"
        }
      ],
      "name": "renounceRole",
      "outputs": [],
      "stateMutability": "nonpayable",
      "type": "function"
    },
    {
      "inputs": [
        {
          "internalType": "bytes32",
          "name": "role",
          "type": "bytes32"
        },
        {
          "internalType": "address",
          "name": "account",
          "type": "address"
        }
      ],
      "name": "revokeRole",
      "outputs": [],
      "stateMutability": "nonpayable",
      "type": "function"
    },
    {
      "inputs": [
        {
          "internalType": "bytes4",
          "name": "interfaceId",
          "type": "bytes4"
        }
      ],
      "name": "supportsInterface",
      "outputs": [
        {
          "internalType": "bool",
          "name": "",
          "type": "bool"
        }
      ],
      "stateMutability": "view",
      "type": "function"
    },
    {
      "inputs": [],
      "name": "symbol",
      "outputs": [
        {
          "internalType": "string",
          "name": "",
          "type": "string"
        }
      ],
      "stateMutability": "view",
      "type": "function"
    },
    {
      "inputs": [],
      "name": "totalSupply",
      "outputs": [
        {
          "internalType": "uint256",
          "name": "",
          "type": "uint256"
        }
      ],
      "stateMutability": "view",
      "type": "function"
    },
    {
      "inputs": [
        {
          "internalType": "address",
          "name": "to",
          "type": "address"
        },
        {
          "internalType": "uint256",
          "name": "value",
          "type": "uint256"
        }
      ],
      "name": "transfer",
      "outputs": [
        {
          "internalType": "bool",
          "name": "",
          "type": "bool"
        }
      ],
      "stateMutability": "nonpayable",
      "type": "function"
    },
    {
      "inputs": [
        {
          "internalType": "address",
          "name": "from",
          "type": "address"
        },
        {
          "internalType": "address",
          "name": "to",
          "type": "address"
        },
        {
          "internalType": "uint256",
          "name": "value",
          "type": "uint256"
        }
      ],
      "name": "transferFrom",
      "outputs": [
        {
          "internalType": "bool",
          "name": "",
          "type": "bool"
        }
      ],
      "stateMutability": "nonpayable",
      "type": "function"
    },
    {
      "inputs": [
        {
          "internalType": "address",
          "name": "account",
          "type": "address"
        }
      ],
      "name": "unfreezeAccount",
      "outputs": [],
      "stateMutability": "nonpayable",
      "type": "function"
    },
    {
      "inputs": [],
      "name": "unpause",
      "outputs": [],
      "stateMutability": "nonpayable",
      "type": "function"
    },
    {
      "inputs": [
        {
          "internalType": "address",
          "name": "account",
          "type": "address"
        },
        {
          "internalType": "uint256",
          "name": "newTier",
          "type": "uint256"
        }
      ],
      "name": "updateKYCTier",
      "outputs": [],
      "stateMutability": "nonpayable",
      "type": "function"
    },
    {
      "inputs": [
        {
          "internalType": "address",
          "name": "newImplementation",
          "type": "address"
        },
        {
          "internalType": "bytes",
          "name": "data",
          "type": "bytes"
        }
      ],
      "name": "upgradeToAndCall",
      "outputs": [],
      "stateMutability": "payable",
      "type": "function"
    }
  ],
  "bytecode": "0x60a06040523060805234801561001457600080fd5b5061001d610022565b6100d4565b7ff0c57e16840df040f15088dc2f81fe391c3923bec73e23a9662efc9c229c6a00805468010000000000000000900460ff16156100725760405163f92ee8a960e01b815260040160405180910390fd5b80546001600160401b03908116146100d15780546001600160401b0319166001600160401b0390811782556040519081527fc7f505b2f371ae2175ee4913f4499e1f2633a7b5936321eed1cdaeb6115181d29060200160405180910390a15b50565b6080516123d2620000fe600039600081816112ef01528181611318015261147d01526123d26000f3fe6080604052600436106102465760003560e01c8063788649ea11610139578063ad3cb1cc116100b6578063dd62ed3e1161007a578063dd62ed3e14610728578063e583983614610748578063e63ab1e914610781578063ec37d259146107a3578063f26c159f146107c3578063f72c0d8b146107e357600080fd5b8063ad3cb1cc1461065f578063c4d66de814610690578063c828daa4146106b0578063d5391393146106e6578063d547741f1461070857600080fd5b806395d89b41116100fd57806395d89b41146105c8578063a217fddf146105dd578063a9059cbb146105f2578063a97f2e8a14610612578063ac9358a71461063257600080fd5b8063788649ea1461052357806379cc6790146105435780638456cb5914610563578063860838a51461057857806391d14854146105a857600080fd5b8063313ce567116101c75780634f1ef2861161018b5780634f1ef2861461047357806352d1902d146104865780635c975abb1461049b5780635ca3399f146104c057806370a08231146104e057600080fd5b8063313ce567146103d557806336568abe146103f15780633860a682146104115780633f4ba83a1461043e57806342966c681461045357600080fd5b806318160ddd1161020e57806318160ddd1461031f57806321204b551461035357806323b872dd14610375578063248a9ca3146103955780632f2ff15d146103b557600080fd5b806301ffc9a71461024b578063062d3bd71461028057806306fdde03146102b0578063095ea7b3146102d25780630d2d8a31146102f2575b600080fd5b34801561025757600080fd5b5061026b610266366004611cf4565b610817565b60405190151581526020015b60405180910390f35b34801561028c57600080fd5b506102a26000805160206122fd83398151915281565b604051908152602001610277565b3480156102bc57600080fd5b506102c561084e565b6040516102779190611d6e565b3480156102de57600080fd5b5061026b6102ed366004611d9d565b610911565b3480156102fe57600080fd5b506102a261030d366004611dc7565b60036020526000908152604090205481565b34801561032b57600080fd5b507f52c63247e1f47db19d5ce0460030c497f067ca4cebf71ba98eeadabe20bace02546102a2565b34801561035f57600080fd5b5061037361036e366004611e6e565b610929565b005b34801561038157600080fd5b5061026b610390366004611ed9565b610994565b3480156103a157600080fd5b506102a26103b0366004611f15565b6109ba565b3480156103c157600080fd5b506103736103d0366004611f2e565b6109dc565b3480156103e157600080fd5b5060405160128152602001610277565b3480156103fd57600080fd5b5061037361040c366004611f2e565b6109fe565b34801561041d57600080fd5b506102a261042c366004611dc7565b60006020819052908152604090205481565b34801561044a57600080fd5b50610373610a36565b34801561045f57600080fd5b5061037361046e366004611f15565b610a59565b610373610481366004611f5a565b610a63565b34801561049257600080fd5b506102a2610a82565b3480156104a757600080fd5b5060008051602061237d8339815191525460ff1661026b565b3480156104cc57600080fd5b506103736104db366004611e6e565b610a9f565b3480156104ec57600080fd5b506102a26104fb366004611dc7565b6001600160a01b031660009081526000805160206122bd833981519152602052604090205490565b34801561052f57600080fd5b5061037361053e366004611dc7565b610afc565b34801561054f57600080fd5b5061037361055e366004611d9d565b610b5e565b34801561056f57600080fd5b50610373610b73565b34801561058457600080fd5b5061026b610593366004611dc7565b60016020526000908152604090205460ff1681565b3480156105b457600080fd5b5061026b6105c3366004611f2e565b610b93565b3480156105d457600080fd5b506102c5610bcb565b3480156105e957600080fd5b506102a2600081565b3480156105fe57600080fd5b5061026b61060d366004611d9d565b610c0a565b34801561061e57600080fd5b5061037361062d366004611d9d565b610c18565b34801561063e57600080fd5b506102a261064d366004611dc7565b60026020526000908152604090205481565b34801561066b57600080fd5b506102c5604051806040016040528060058152602001640352e302e360dc1b81525081565b34801561069c57600080fd5b506103736106ab366004611dc7565b610cc7565b3480156106bc57600080fd5b506102a26106cb366004611dc7565b6001600160a01b031660009081526020819052604090205490565b3480156106f257600080fd5b506102a260008051602061233d83398151915281565b34801561071457600080fd5b50610373610723366004611f2e565b610ea6565b34801561073457600080fd5b506102a2610743366004611fbc565b610ec2565b34801561075457600080fd5b5061026b610763366004611dc7565b6001600160a01b031660009081526001602052604090205460ff1690565b34801561078d57600080fd5b506102a260008051602061231d83398151915281565b3480156107af57600080fd5b506102a26107be366004611dc7565b610f0c565b3480156107cf57600080fd5b506103736107de366004611dc7565b610fb8565b3480156107ef57600080fd5b506102a27f189ab7a9244df0848122154315af71fe140f3db0fe014031783b0946b8c9d2e381565b60006001600160e01b03198216637965db0b60e01b148061084857506301ffc9a760e01b6001600160e01b03198316145b92915050565b7f52c63247e1f47db19d5ce0460030c497f067ca4cebf71ba98eeadabe20bace0380546060916000805160206122bd8339815191529161088d90611fe6565b80601f01602080910402602001604051908101604052809291908181526020018280546108b990611fe6565b80156109065780601f106108db57610100808354040283529160200191610906565b820191906000526020600020905b8154815290600101906020018083116108e957829003601f168201915b505050505091505090565b60003361091f818585611020565b5060019392505050565b60008051602061233d8339815191526109418161102d565b61094b8484611037565b836001600160a01b03167f49f7cb93fda07b12be7b183c557aae9cacc45fec78e3ec20e7cee96b4424e4dd8484604051610986929190612020565b60405180910390a250505050565b6000336109a285828561106d565b6109ad8585856110ce565b60019150505b9392505050565b600090815260008051602061235d833981519152602052604090206001015490565b6109e5826109ba565b6109ee8161102d565b6109f8838361112d565b50505050565b6001600160a01b0381163314610a275760405163334bd91960e11b815260040160405180910390fd5b610a3182826111d2565b505050565b60008051602061231d833981519152610a4e8161102d565b610a5661124e565b50565b610a5633826112ae565b610a6b6112e4565b610a748261138b565b610a7e82826113b5565b5050565b6000610a8c611472565b506000805160206122dd83398151915290565b60008051602061233d833981519152610ab78161102d565b610ac184846112ae565b836001600160a01b03167f2f94c168de7c683059bd987086f406649e5f27f5a8a1dbae72bfdb2c433511d78484604051610986929190612020565b6000805160206122fd833981519152610b148161102d565b6001600160a01b038216600081815260016020526040808220805460ff19169055517ff915cd9fe234de6e8d3afe7bf2388d35b2b6d48e8c629a24602019bde79c213a9190a25050565b610b6982338361106d565b610a7e82826112ae565b60008051602061231d833981519152610b8b8161102d565b610a566114bb565b600091825260008051602061235d833981519152602090815260408084206001600160a01b0393909316845291905290205460ff1690565b7f52c63247e1f47db19d5ce0460030c497f067ca4cebf71ba98eeadabe20bace0480546060916000805160206122bd8339815191529161088d90611fe6565b60003361091f8185856110ce565b6000805160206122fd833981519152610c308161102d565b6003821115610c755760405162461bcd60e51b815260206004820152600c60248201526b24b73b30b634b2103a34b2b960a11b60448201526064015b60405180910390fd5b6001600160a01b0383166000818152602081815260409182902085905590518481527f8b7906cd19c6197e5fda699a1c9306cb6eab980a0660c1b65a0e2c2d91c6aede910160405180910390a2505050565b6000610cd1611504565b805490915060ff600160401b820416159067ffffffffffffffff16600081158015610cf95750825b905060008267ffffffffffffffff166001148015610d165750303b155b905081158015610d24575080155b15610d425760405163f92ee8a960e01b815260040160405180910390fd5b845467ffffffffffffffff191660011785558315610d6c57845460ff60401b1916600160401b1785555b610db66040518060400160405280600c81526020016b26a72130b930902a37b5b2b760a11b815250604051806040016040528060048152602001631353909560e21b81525061152d565b610dbe61153f565b610dc661153f565b610dce61153f565b610dd661153f565b610de160008761112d565b50610dfa60008051602061233d8339815191528761112d565b50610e1360008051602061231d8339815191528761112d565b50610e3e7f189ab7a9244df0848122154315af71fe140f3db0fe014031783b0946b8c9d2e38761112d565b50610e576000805160206122fd8339815191528761112d565b508315610e9e57845460ff60401b19168555604051600181527fc7f505b2f371ae2175ee4913f4499e1f2633a7b5936321eed1cdaeb6115181d29060200160405180910390a15b505050505050565b610eaf826109ba565b610eb88161102d565b6109f883836111d2565b6001600160a01b0391821660009081527f52c63247e1f47db19d5ce0460030c497f067ca4cebf71ba98eeadabe20bace016020908152604080832093909416825291909152205490565b6001600160a01b03811660009081526020819052604081205481610f2f82611547565b6001600160a01b0385166000908152600360205260409020549091506201518090610f5a904261204f565b1115610f67579392505050565b6001600160a01b0384166000908152600260205260409020548111610f8d576000610fb0565b6001600160a01b038416600090815260026020526040902054610fb0908261204f565b949350505050565b6000805160206122fd833981519152610fd08161102d565b6001600160a01b0382166000818152600160208190526040808320805460ff1916909217909155517f4f2a367e694e71282f29ab5eaa04c4c0be45ac5bf2ca74fb67068b98bdc2887d9190a25050565b610a3183838360016115c2565b610a5681336116aa565b6001600160a01b0382166110615760405163ec442f0560e01b815260006004820152602401610c6c565b610a7e600083836116e3565b60006110798484610ec2565b90506000198110156109f857818110156110bf57604051637dc7a0d960e11b81526001600160a01b03841660048201526024810182905260448101839052606401610c6c565b6109f8848484840360006115c2565b6001600160a01b0383166110f857604051634b637e8f60e11b815260006004820152602401610c6c565b6001600160a01b0382166111225760405163ec442f0560e01b815260006004820152602401610c6c565b610a318383836116e3565b600060008051602061235d8339815191526111488484610b93565b6111c8576000848152602082815260408083206001600160a01b03871684529091529020805460ff1916600117905561117e3390565b6001600160a01b0316836001600160a01b0316857f2f8788117e7eff1d82e926ec794901d17c78024a50270940304540a733656f0d60405160405180910390a46001915050610848565b6000915050610848565b600060008051602061235d8339815191526111ed8484610b93565b156111c8576000848152602082815260408083206001600160a01b0387168085529252808320805460ff1916905551339287917ff6391f5c32d9c69d2a47ea670b442974b53935d1edc7fd64eb21e047a839171b9190a46001915050610848565b6112566117bd565b60008051602061237d833981519152805460ff191681557f5db9ee0a495bf2e6ff9c91a7834c1ba4fdd244a5e8aa4e537bd38aeae4b073aa335b6040516001600160a01b03909116815260200160405180910390a150565b6001600160a01b0382166112d857604051634b637e8f60e11b815260006004820152602401610c6c565b610a7e826000836116e3565b306001600160a01b037f000000000000000000000000000000000000000000000000000000000000000016148061136b57507f00000000000000000000000000000000000000000000000000000000000000006001600160a01b031661135f6000805160206122dd833981519152546001600160a01b031690565b6001600160a01b031614155b156113895760405163703e46dd60e11b815260040160405180910390fd5b565b7f189ab7a9244df0848122154315af71fe140f3db0fe014031783b0946b8c9d2e3610a7e8161102d565b816001600160a01b03166352d1902d6040518163ffffffff1660e01b8152600401602060405180830381865afa92505050801561140f575060408051601f3d908101601f1916820190925261140c91810190612062565b60015b61143757604051634c9c8ce360e01b81526001600160a01b0383166004820152602401610c6c565b6000805160206122dd833981519152811461146857604051632a87526960e21b815260048101829052602401610c6c565b610a3183836117ed565b306001600160a01b037f000000000000000000000000000000000000000000000000000000000000000016146113895760405163703e46dd60e11b815260040160405180910390fd5b6114c3611843565b60008051602061237d833981519152805460ff191660011781557f62e78cea01bee320cd4e420270b5ea74000d11b0c9f74754ebdbfc544b05a25833611290565b6000807ff0c57e16840df040f15088dc2f81fe391c3923bec73e23a9662efc9c229c6a00610848565b611535611874565b610a7e8282611899565b611389611874565b60008160000361156a5760125b61155f90600a61215f565b61084890606461216e565b8160010361158a5761157e6012600a61215f565b610848906103e861216e565b816002036115aa5761159e6012600a61215f565b6108489061271061216e565b816003036115bb5750600019919050565b6012611554565b6000805160206122bd8339815191526001600160a01b0385166115fb5760405163e602df0560e01b815260006004820152602401610c6c565b6001600160a01b03841661162557604051634a1406b160e11b815260006004820152602401610c6c565b6001600160a01b038086166000908152600183016020908152604080832093881683529290522083905581156116a357836001600160a01b0316856001600160a01b03167f8c5be1e5ebec7d5bd14f71427d1e84f3dd0314c0f7b2291e5b200ac8c7c3b9258560405161169a91815260200190565b60405180910390a35b5050505050565b6116b48282610b93565b610a7e5760405163e2517d3f60e01b81526001600160a01b038216600482015260248101839052604401610c6c565b6001600160a01b03831660009081526001602052604090205460ff161561173d5760405162461bcd60e51b815260206004820152600e60248201526d20b1b1b7bab73a10333937bd32b760911b6044820152606401610c6c565b6001600160a01b03821660009081526001602052604090205460ff16156117995760405162461bcd60e51b815260206004820152601060248201526f2932b1b4b834b2b73a10333937bd32b760811b6044820152606401610c6c565b6001600160a01b038316156117b2576117b283826118ea565b610a31838383611a0b565b60008051602061237d8339815191525460ff1661138957604051638dfc202b60e01b815260040160405180910390fd5b6117f682611a1e565b6040516001600160a01b038316907fbc7cd75a20ee27fd9adebab32041f755214dbc6bffa90cc0225b39da2e5c2d3b90600090a280511561183b57610a318282611a83565b610a7e611af9565b60008051602061237d8339815191525460ff16156113895760405163d93c066560e01b815260040160405180910390fd5b61187c611b18565b61138957604051631afcd79f60e31b815260040160405180910390fd5b6118a1611874565b6000805160206122bd8339815191527f52c63247e1f47db19d5ce0460030c497f067ca4cebf71ba98eeadabe20bace036118db84826121cd565b50600481016109f883826121cd565b6001600160a01b038216600090815260036020526040902054429062015180908190611916908461204f565b1115611945576001600160a01b0384166000908152600260209081526040808320839055600390915290208290555b6001600160a01b0384166000908152602081905260408120549061196882611547565b6001600160a01b038716600090815260026020526040902054909150819061199190879061228d565b11156119d65760405162461bcd60e51b815260206004820152601460248201527311185a5b1e481b1a5b5a5d08195e18d95959195960621b6044820152606401610c6c565b6001600160a01b038616600090815260026020526040812080548792906119fe90849061228d565b9091555050505050505050565b611a13611843565b610a31838383611b32565b806001600160a01b03163b600003611a5457604051634c9c8ce360e01b81526001600160a01b0382166004820152602401610c6c565b6000805160206122dd83398151915280546001600160a01b0319166001600160a01b0392909216919091179055565b6060600080846001600160a01b031684604051611aa091906122a0565b600060405180830381855af49150503d8060008114611adb576040519150601f19603f3d011682016040523d82523d6000602084013e611ae0565b606091505b5091509150611af0858383611c70565b95945050505050565b34156113895760405163b398979f60e01b815260040160405180910390fd5b6000611b22611504565b54600160401b900460ff16919050565b6000805160206122bd8339815191526001600160a01b038416611b6e5781816002016000828254611b63919061228d565b90915550611be09050565b6001600160a01b03841660009081526020829052604090205482811015611bc15760405163391434e360e21b81526001600160a01b03861660048201526024810182905260448101849052606401610c6c565b6001600160a01b03851660009081526020839052604090209083900390555b6001600160a01b038316611bfe576002810180548390039055611c1d565b6001600160a01b03831660009081526020829052604090208054830190555b826001600160a01b0316846001600160a01b03167fddf252ad1be2c89b69c2b068fc378daa952ba7f163c4a11628f55a4df523b3ef84604051611c6291815260200190565b60405180910390a350505050565b606082611c8557611c8082611ccc565b6109b3565b8151158015611c9c57506001600160a01b0384163b155b15611cc557604051639996b31560e01b81526001600160a01b0385166004820152602401610c6c565b50806109b3565b805115611cdb57805160208201fd5b60405163d6bda27560e01b815260040160405180910390fd5b600060208284031215611d0657600080fd5b81356001600160e01b0319811681146109b357600080fd5b60005b83811015611d39578181015183820152602001611d21565b50506000910152565b60008151808452611d5a816020860160208601611d1e565b601f01601f19169290920160200192915050565b6020815260006109b36020830184611d42565b80356001600160a01b0381168114611d9857600080fd5b919050565b60008060408385031215611db057600080fd5b611db983611d81565b946020939093013593505050565b600060208284031215611dd957600080fd5b6109b382611d81565b634e487b7160e01b600052604160045260246000fd5b600067ffffffffffffffff80841115611e1357611e13611de2565b604051601f8501601f19908116603f01168101908282118183101715611e3b57611e3b611de2565b81604052809350858152868686011115611e5457600080fd5b858560208301376000602087830101525050509392505050565b600080600060608486031215611e8357600080fd5b611e8c84611d81565b925060208401359150604084013567ffffffffffffffff811115611eaf57600080fd5b8401601f81018613611ec057600080fd5b611ecf86823560208401611df8565b9150509250925092565b600080600060608486031215611eee57600080fd5b611ef784611d81565b9250611f0560208501611d81565b9150604084013590509250925092565b600060208284031215611f2757600080fd5b5035919050565b60008060408385031215611f4157600080fd5b82359150611f5160208401611d81565b90509250929050565b60008060408385031215611f6d57600080fd5b611f7683611d81565b9150602083013567ffffffffffffffff811115611f9257600080fd5b8301601f81018513611fa357600080fd5b611fb285823560208401611df8565b9150509250929050565b60008060408385031215611fcf57600080fd5b611fd883611d81565b9150611f5160208401611d81565b600181811c90821680611ffa57607f821691505b60208210810361201a57634e487b7160e01b600052602260045260246000fd5b50919050565b828152604060208201526000610fb06040830184611d42565b634e487b7160e01b600052601160045260246000fd5b8181038181111561084857610848612039565b60006020828403121561207457600080fd5b5051919050565b600181815b808511156120b657816000190482111561209c5761209c612039565b808516156120a957918102915b93841c9390800290612080565b509250929050565b6000826120cd57506001610848565b816120da57506000610848565b81600181146120f057600281146120fa57612116565b6001915050610848565b60ff84111561210b5761210b612039565b50506001821b610848565b5060208310610133831016604e8410600b8410161715612139575081810a610848565b612143838361207b565b806000190482111561215757612157612039565b029392505050565b60006109b360ff8416836120be565b808202811582820484141761084857610848612039565b601f821115610a31576000816000526020600020601f850160051c810160208610156121ae5750805b601f850160051c820191505b81811015610e9e578281556001016121ba565b815167ffffffffffffffff8111156121e7576121e7611de2565b6121fb816121f58454611fe6565b84612185565b602080601f83116001811461223057600084156122185750858301515b600019600386901b1c1916600185901b178555610e9e565b600085815260208120601f198616915b8281101561225f57888601518255948401946001909101908401612240565b508582101561227d5787850151600019600388901b60f8161c191681555b5050505050600190811b01905550565b8082018082111561084857610848612039565b600082516122b2818460208701611d1e565b919091019291505056fe52c63247e1f47db19d5ce0460030c497f067ca4cebf71ba98eeadabe20bace00360894a13ba1a3210667c828492db98dca3e2076cc3735a920a3ca505d382bbc442a94f1a1fac79af32856af2a64f63648cfa2ef3b98610a5bb7cbec4cee698565d7a28e3265b37a6474929f336521b332c1681b933f6cb9f3376673440d862a9f2df0fed2c77648de5860a4cc508cd0818c85b8b8a1ab4ceeef8d981c8956a602dd7bc7dec4dceedda775e58dd541e08a116c6c53815c0bd028192f7b626800cd5ed15c6e187e77e9aee88184c21f4f2182ab5827cb3b7e07fbedcd63f03300a2646970667358221220a4d9c1f42304647133055095812f18ed26cc62cdc5f387029397ae66d227022964736f6c63430008160033",
  "linkReferences": {},
  "deployedLinkReferences": {}
}