{
  "_format": "hh-sol-artifact-1",
  "contractName": "MNBStaking",
  "sourceName": "contracts/MNBStaking.sol",
  "abi": [
    {
      "inputs": [],
      "stateMutability": "nonpayable",
      "type": "constructor"
    },
    {
      "inputs": [],
      "name": "AccessControlBadConfirmation",
      "type": "error"
    },
    {
      "inputs": [
        {
          "internalType": "address",
          "name": "account",
          "type": "address"
        },
        {
          "internalType": "bytes32",
          "name": "neededRole",
          "type": "bytes32"
        }
      ],
      "name": "AccessControlUnauthorizedAccount",
      "type": "error"
    },
    {
      "inputs": [
        {
          "internalType": "address",
          "name": "target",
          "type": "address"
        }
      ],
      "name": "AddressEmptyCode",
      "type": "error"
    },
    {
      "inputs": [
        {
          "internalType": "address",
          "name": "implementation",
          "type": "address"
        }
      ],
      "name": "ERC1967InvalidImplementation",
      "type": "error"
    },
    {
      "inputs": [],
      "name": "ERC1967NonPayable",
      "type": "error"
    },
    {
      "inputs": [],
      "name": "FailedCall",
      "type": "error"
    },
    {
      "inputs": [],
      "name": "InvalidInitialization",
      "type": "error"
    },
    {
      "inputs": [],
      "name": "NotInitializing",
      "type": "error"
    },
    {
      "inputs": [],
      "name": "UUPSUnauthorizedCallContext",
      "type": "error"
    },
    {
      "inputs": [
        {
          "internalType": "bytes32",
          "name": "slot",
          "type": "bytes32"
        }
      ],
      "name": "UUPSUnsupportedProxiableUUID",
      "type": "error"
    },
    {
      "anonymous": false,
      "inputs": [
        {
          "indexed": true,
          "internalType": "address",
          "name": "user",
          "type": "address"
        },
        {
          "indexed": false,
          "internalType": "uint256",
          "name": "stakeId",
          "type": "uint256"
        },
        {
          "indexed": false,
          "internalType": "uint256",
          "name": "amount",
          "type": "uint256"
        },
        {
          "indexed": false,
          "internalType": "uint256",
          "name": "penalty",
          "type": "uint256"
        }
      ],
      "name": "EmergencyUnstake",
      "type": "event"
    },
    {
      "anonymous": false,
      "inputs": [
        {
          "indexed": false,
          "internalType": "uint64",
          "name": "version",
          "type": "uint64"
        }
      ],
      "name": "Initialized",
      "type": "event"
    },
    {
      "anonymous": false,
      "inputs": [
        {
          "indexed": true,
          "internalType": "uint256",
          "name": "poolId",
          "type": "uint256"
        },
        {
          "indexed": false,
          "internalType": "string",
          "name": "name",
          "type": "string"
        },
        {
          "indexed": false,
          "internalType": "uint256",
          "name": "lockPeriod",
          "type": "uint256"
        },
        {
          "indexed": false,
          "internalType": "uint256",
          "name": "rewardRate",
          "type": "uint256"
        }
      ],
      "name": "PoolCreated",
      "type": "event"
    },
    {
      "anonymous": false,
      "inputs": [
        {
          "indexed": true,
          "internalType": "uint256",
          "name": "poolId",
          "type": "uint256"
        },
        {
          "indexed": false,
          "internalType": "uint256",
          "name": "rewardRate",
          "type": "uint256"
        },
        {
          "indexed": false,
          "internalType": "bool",
          "name": "isActive",
          "type": "bool"
        }
      ],
      "name": "PoolUpdated",
      "type": "event"
    },
    {
      "anonymous": false,
      "inputs": [
        {
          "indexed": false,
          "internalType": "uint256",
          "name": "amount",
          "type": "uint256"
        }
      ],
      "name": "RewardsAdded",
      "type": "event"
    },
    {
      "anonymous": false,
      "inputs": [
        {
          "indexed": true,
          "internalType": "address",
          "name": "user",
          "type": "address"
        },
        {
          "indexed": false,
          "internalType": "uint256",
          "name": "amount",
          "type": "uint256"
        }
      ],
      "name": "RewardsClaimed",
      "type": "event"
    },
    {
      "anonymous": false,
      "inputs": [
        {
          "indexed": false,
          "internalType": "uint256",
          "name": "amount",
          "type": "uint256"
        }
      ],
      "name": "RewardsDistributed",
      "type": "event"
    },
    {
      "anonymous": false,
      "inputs": [
        {
          "indexed": true,
          "internalType": "bytes32",
          "name": "role",
          "type": "bytes32"
        },
        {
          "indexed": true,
          "internalType": "bytes32",
          "name": "previousAdminRole",
          "type": "bytes32"
        },
        {
          "indexed": true,
          "internalType": "bytes32",
          "name": "newAdminRole",
          "type": "bytes32"
        }
      ],
      "name": "RoleAdminChanged",
      "type": "event"
    },
    {
      "anonymous": false,
      "inputs": [
        {
          "indexed": true,
          "internalType": "bytes32",
          "name": "role",
          "type": "bytes32"
        },
        {
          "indexed": true,
          "internalType": "address",
          "name": "account",
          "type": "address"
        },
        {
          "indexed": true,
          "internalType": "address",
          "name": "sender",
          "type": "address"
        }
      ],
      "name": "RoleGranted",
      "type": "event"
    },
    {
      "anonymous": false,
      "inputs": [
        {
          "indexed": true,
          "internalType": "bytes32",
          "name": "role",
          "type": "bytes32"
        },
        {
          "indexed": true,
          "internalType": "address",
          "name": "account",
          "type": "address"
        },
        {
          "indexed": true,
          "internalType": "address",
          "name": "sender",
          "type": "address"
        }
      ],
      "name": "RoleRevoked",
      "type": "event"
    },
    {
      "anonymous": false,
      "inputs": [
        {
          "indexed": true,
          "internalType": "address",
          "name": "user",
          "type": "address"
        },
        {
          "indexed": true,
          "internalType": "uint256",
          "name": "stakeId",
          "type": "uint256"
        },
        {
          "indexed": false,
          "internalType": "uint256",
          "name": "poolId",
          "type": "uint256"
        },
        {
          "indexed": false,
          "internalType": "uint256",
          "name": "amount",
          "type": "uint256"
        },
        {
          "indexed": false,
          "internalType": "uint256",
          "name": "unlockTime",
          "type": "uint256"
        }
      ],
      "name": "Staked",
      "type": "event"
    },
    {
      "anonymous": false,
      "inputs": [
        {
          "indexed": true,
          "internalType": "address",
          "name": "user",
          "type": "address"
        },
        {
          "indexed": true,
          "internalType": "uint256",
          "name": "stakeId",
          "type": "uint256"
        },
        {
          "indexed": false,
          "internalType": "uint256",
          "name": "amount",
          "type": "uint256"
        },
        {
          "indexed": false,
          "internalType": "uint256",
          "name": "rewards",
          "type": "uint256"
        }
      ],
      "name": "Unstaked",
      "type": "event"
    },
    {
      "anonymous": false,
      "inputs": [
        {
          "indexed": true,
          "internalType": "address",
          "name": "implementation",
          "type": "address"
        }
      ],
      "name": "Upgraded",
      "type": "event"
    },
    {
      "inputs": [],
      "name": "DEFAULT_ADMIN_ROLE",
      "outputs": [
        {
          "internalType": "bytes32",
          "name": "",
          "type": "bytes32"
        }
      ],
      "stateMutability": "view",
      "type": "function"
    },
    {
      "inputs": [],
      "name": "REWARD_MANAGER_ROLE",
      "outputs": [
        {
          "internalType": "bytes32",
          "name": "",
          "type": "bytes32"
        }
      ],
      "stateMutability": "view",
      "type": "function"
    },
    {
      "inputs": [],
      "name": "STAKING_ADMIN_ROLE",
      "outputs": [
        {
          "internalType": "bytes32",
          "name": "",
          "type": "bytes32"
        }
      ],
      "stateMutability": "view",
      "type": "function"
    },
    {
      "inputs": [],
      "name": "UPGRADE_INTERFACE_VERSION",
      "outputs": [
        {
          "internalType": "string",
          "name": "",
          "type": "string"
        }
      ],
      "stateMutability": "view",
      "type": "function"
    },
    {
      "inputs": [
        {
          "internalType": "uint256",
          "name": "amount",
          "type": "uint256"
        }
      ],
      "name": "addRewards",
      "outputs": [],
      "stateMutability": "nonpayable",
      "type": "function"
    },
    {
      "inputs": [
        {
          "internalType": "uint256",
          "name": "stakeId",
          "type": "uint256"
        }
      ],
      "name": "calculatePendingRewards",
      "outputs": [
        {
          "internalType": "uint256",
          "name": "",
          "type": "uint256"
        }
      ],
      "stateMutability": "view",
      "type": "function"
    },
    {
      "inputs": [
        {
          "internalType": "uint256",
          "name": "stakeId",
          "type": "uint256"
        }
      ],
      "name": "claimRewards",
      "outputs": [],
      "stateMutability": "nonpayable",
      "type": "function"
    },
    {
      "inputs": [
        {
          "internalType": "string",
          "name": "name",
          "type": "string"
        },
        {
          "internalType": "uint256",
          "name": "lockPeriod",
          "type": "uint256"
        },
        {
          "internalType": "uint256",
          "name": "minStakeAmount",
          "type": "uint256"
        },
        {
          "internalType": "uint256",
          "name": "maxStakeAmount",
          "type": "uint256"
        },
        {
          "internalType": "uint256",
          "name": "rewardRate",
          "type": "uint256"
        }
      ],
      "name": "createStakingPool",
      "outputs": [
        {
          "internalType": "uint256",
          "name": "",
          "type": "uint256"
        }
      ],
      "stateMutability": "nonpayable",
      "type": "function"
    },
    {
      "inputs": [
        {
          "internalType": "uint256",
          "name": "stakeId",
          "type": "uint256"
        }
      ],
      "name": "emergencyUnstake",
      "outputs": [],
      "stateMutability": "nonpayable",
      "type": "function"
    },
    {
      "inputs": [
        {
          "internalType": "uint256",
          "name": "poolId",
          "type": "uint256"
        }
      ],
      "name": "getPoolInfo",
      "outputs": [
        {
          "internalType": "string",
          "name": "name",
          "type": "string"
        },
        {
          "internalType": "uint256",
          "name": "lockPeriod",
          "type": "uint256"
        },
        {
          "internalType": "uint256",
          "name": "minStakeAmount",
          "type": "uint256"
        },
        {
          "internalType": "uint256",
          "name": "maxStakeAmount",
          "type": "uint256"
        },
        {
          "internalType": "uint256",
          "name": "rewardRate",
          "type": "uint256"
        },
        {
          "internalType": "uint256",
          "name": "poolTotalStaked",
          "type": "uint256"
        },
        {
          "internalType": "bool",
          "name": "isActive",
          "type": "bool"
        }
      ],
      "stateMutability": "view",
      "type": "function"
    },
    {
      "inputs": [
        {
          "internalType": "bytes32",
          "name": "role",
          "type": "bytes32"
        }
      ],
      "name": "getRoleAdmin",
      "outputs": [
        {
          "internalType": "bytes32",
          "name": "",
          "type": "bytes32"
        }
      ],
      "stateMutability": "view",
      "type": "function"
    },
    {
      "inputs": [
        {
          "internalType": "uint256",
          "name": "stakeId",
          "type": "uint256"
        }
      ],
      "name": "getStakeInfo",
      "outputs": [
        {
          "internalType": "uint256",
          "name": "poolId",
          "type": "uint256"
        },
        {
          "internalType": "uint256",
          "name": "amount",
          "type": "uint256"
        },
        {
          "internalType": "uint256",
          "name": "stakedAt",
          "type": "uint256"
        },
        {
          "internalType": "uint256",
          "name": "unlockTime",
          "type": "uint256"
        },
        {
          "internalType": "uint256",
          "name": "lastRewardClaimTime",
          "type": "uint256"
        },
        {
          "internalType": "uint256",
          "name": "claimedRewards",
          "type": "uint256"
        },
        {
          "internalType": "uint256",
          "name": "pendingRewards",
          "type": "uint256"
        },
        {
          "internalType": "bool",
          "name": "isActive",
          "type": "bool"
        }
      ],
      "stateMutability": "view",
      "type": "function"
    },
    {
      "inputs": [
        {
          "internalType": "address",
          "name": "user",
          "type": "address"
        }
      ],
      "name": "getUserStakeIds",
      "outputs": [
        {
          "internalType": "uint256[]",
          "name": "",
          "type": "uint256[]"
        }
      ],
      "stateMutability": "view",
      "type": "function"
    },
    {
      "inputs": [
        {
          "internalType": "address",
          "name": "user",
          "type": "address"
        }
      ],
      "name": "getUserTotalPendingRewards",
      "outputs": [
        {
          "internalType": "uint256",
          "name": "",
          "type": "uint256"
        }
      ],
      "stateMutability": "view",
      "type": "function"
    },
    {
      "inputs": [
        {
          "internalType": "bytes32",
          "name": "role",
          "type": "bytes32"
        },
        {
          "internalType": "address",
          "name": "account",
          "type": "address"
        }
      ],
      "name": "grantRole",
      "outputs": [],
      "stateMutability": "nonpayable",
      "type": "function"
    },
    {
      "inputs": [
        {
          "internalType": "bytes32",
          "name": "role",
          "type": "bytes32"
        },
        {
          "internalType": "address",
          "name": "account",
          "type": "address"
        }
      ],
      "name": "hasRole",
      "outputs": [
        {
          "internalType": "bool",
          "name": "",
          "type": "bool"
        }
      ],
      "stateMutability": "view",
      "type": "function"
    },
    {
      "inputs": [
        {
          "internalType": "address",
          "name": "_stakingToken",
          "type": "address"
        },
        {
          "internalType": "address",
          "name": "_rewardToken",
          "type": "address"
        },
        {
          "internalType": "address",
          "name": "defaultAdmin",
          "type": "address"
        }
      ],
      "name": "initialize",
      "outputs": [],
      "stateMutability": "nonpayable",
      "type": "function"
    },
    {
      "inputs": [
        {
          "internalType": "address",
          "name": "newToken",
          "type": "address"
        }
      ],
      "name": "migrateRewardToken",
      "outputs": [],
      "stateMutability": "nonpayable",
      "type": "function"
    },
    {
      "inputs": [
        {
          "internalType": "address",
          "name": "newToken",
          "type": "address"
        }
      ],
      "name": "migrateStakingToken",
      "outputs": [],
      "stateMutability": "nonpayable",
      "type": "function"
    },
    {
      "inputs": [],
      "name": "nextPoolId",
      "outputs": [
        {
          "internalType": "uint256",
          "name": "",
          "type": "uint256"
        }
      ],
      "stateMutability": "view",
      "type": "function"
    },
    {
      "inputs": [],
      "name": "nextStakeId",
      "outputs": [
        {
          "internalType": "uint256",
          "name": "",
          "type": "uint256"
        }
      ],
      "stateMutability": "view",
      "type": "function"
    },
    {
      "inputs": [],
      "name": "proxiableUUID",
      "outputs": [
        {
          "internalType": "bytes32",
          "name": "",
          "type": "bytes32"
        }
      ],
      "stateMutability": "view",
      "type": "function"
    },
    {
      "inputs": [
        {
          "internalType": "bytes32",
          "name": "role",
          "type": "bytes32"
        },
        {
          "internalType": "address",
          "name": "callerConfirmation",
          "type": "address"
        }
      ],
      "name": "renounceRole",
      "outputs": [],
      "stateMutability": "nonpayable",
      "type": "function"
    },
    {
      "inputs": [
        {
          "internalType": "bytes32",
          "name": "role",
          "type": "bytes32"
        },
        {
          "internalType": "address",
          "name": "account",
          "type": "address"
        }
      ],
      "name": "revokeRole",
      "outputs": [],
      "stateMutability": "nonpayable",
      "type": "function"
    },
    {
      "inputs": [],
      "name": "rewardToken",
      "outputs": [
        {
          "internalType": "contract IERC20",
          "name": "",
          "type": "address"
        }
      ],
      "stateMutability": "view",
      "type": "function"
    },
    {
      "inputs": [
        {
          "internalType": "uint256",
          "name": "poolId",
          "type": "uint256"
        },
        {
          "internalType": "uint256",
          "name": "amount",
          "type": "uint256"
        }
      ],
      "name": "stake",
      "outputs": [],
      "stateMutability": "nonpayable",
      "type": "function"
    },
    {
      "inputs": [
        {
          "internalType": "uint256",
          "name": "",
          "type": "uint256"
        }
      ],
      "name": "stakingPools",
      "outputs": [
        {
          "internalType": "uint256",
          "name": "poolId",
          "type": "uint256"
        },
        {
          "internalType": "string",
          "name": "name",
          "type": "string"
        },
        {
          "internalType": "uint256",
          "name": "lockPeriod",
          "type": "uint256"
        },
        {
          "internalType": "uint256",
          "name": "minStakeAmount",
          "type": "uint256"
        },
        {
          "internalType": "uint256",
          "name": "maxStakeAmount",
          "type": "uint256"
        },
        {
          "internalType": "uint256",
          "name": "rewardRate",
          "type": "uint256"
        },
        {
          "internalType": "uint256",
          "name": "totalStaked",
          "type": "uint256"
        },
        {
          "internalType": "uint256",
          "name": "totalRewardsDistributed",
          "type": "uint256"
        },
        {
          "internalType": "bool",
          "name": "isActive",
          "type": "bool"
        },
        {
          "internalType": "uint256",
          "name": "createdAt",
          "type": "uint256"
        }
      ],
      "stateMutability": "view",
      "type": "function"
    },
    {
      "inputs": [],
      "name": "stakingToken",
      "outputs": [
        {
          "internalType": "contract IERC20",
          "name": "",
          "type": "address"
        }
      ],
      "stateMutability": "view",
      "type": "function"
    },
    {
      "inputs": [
        {
          "internalType": "bytes4",
          "name": "interfaceId",
          "type": "bytes4"
        }
      ],
      "name": "supportsInterface",
      "outputs": [
        {
          "internalType": "bool",
          "name": "",
          "type": "bool"
        }
      ],
      "stateMutability": "view",
      "type": "function"
    },
    {
      "inputs": [],
      "name": "totalActiveStakers",
      "outputs": [
        {
          "internalType": "uint256",
          "name": "",
          "type": "uint256"
        }
      ],
      "stateMutability": "view",
      "type": "function"
    },
    {
      "inputs": [],
      "name": "totalRewardsDistributed",
      "outputs": [
        {
          "internalType": "uint256",
          "name": "",
          "type": "uint256"
        }
      ],
      "stateMutability": "view",
      "type": "function"
    },
    {
      "inputs": [],
      "name": "totalStaked",
      "outputs": [
        {
          "internalType": "uint256",
          "name": "",
          "type": "uint256"
        }
      ],
      "stateMutability": "view",
      "type": "function"
    },
    {
      "inputs": [
        {
          "internalType": "uint256",
          "name": "stakeId",
          "type": "uint256"
        }
      ],
      "name": "unstake",
      "outputs": [],
      "stateMutability": "nonpayable",
      "type": "function"
    },
    {
      "inputs": [
        {
          "internalType": "uint256",
          "name": "poolId",
          "type": "uint256"
        },
        {
          "internalType": "uint256",
          "name": "rewardRate",
          "type": "uint256"
        },
        {
          "internalType": "bool",
          "name": "isActive",
          "type": "bool"
        }
      ],
      "name": "updateStakingPool",
      "outputs": [],
      "stateMutability": "nonpayable",
      "type": "function"
    },
    {
      "inputs": [
        {
          "internalType": "address",
          "name": "newImplementation",
          "type": "address"
        },
        {
          "internalType": "bytes",
          "name": "data",
          "type": "bytes"
        }
      ],
      "name": "upgradeToAndCall",
      "outputs": [],
      "stateMutability": "payable",
      "type": "function"
    },
    {
      "inputs": [
        {
          "internalType": "address",
          "name": "",
          "type": "address"
        }
      ],
      "name": "userPendingRewards",
      "outputs": [
        {
          "internalType": "uint256",
          "name": "",
          "type": "uint256"
        }
      ],
      "stateMutability": "view",
      "type": "function"
    },
    {
      "inputs": [
        {
          "internalType": "uint256",
          "name": "",
          "type": "uint256"
        }
      ],
      "name": "userStakes",
      "outputs": [
        {
          "internalType": "uint256",
          "name": "stakeId",
          "type": "uint256"
        },
        {
          "internalType": "uint256",
          "name": "poolId",
          "type": "uint256"
        },
        {
          "internalType": "uint256",
          "name": "amount",
          "type": "uint256"
        },
        {
          "internalType": "uint256",
          "name": "stakedAt",
          "type": "uint256"
        },
        {
          "internalType": "uint256",
          "name": "unlockTime",
          "type": "uint256"
        },
        {
          "internalType": "uint256",
          "name": "lastRewardClaimTime",
          "type": "uint256"
        },
        {
          "internalType": "uint256",
          "name": "claimedRewards",
          "type": "uint256"
        },
        {
          "internalType": "bool",
          "name": "isActive",
          "type": "bool"
        }
      ],
      "stateMutability": "view",
      "type": "function"
    },
    {
      "inputs": [
        {
          "internalType": "address",
          "name": "",
          "type": "address"
        }
      ],
      "name": "userTotalRewards",
      "outputs": [
        {
          "internalType": "uint256",
          "name": "",
          "type": "uint256"
        }
      ],
      "stateMutability": "view",
      "type": "function"
    },
    {
      "inputs": [
        {
          "internalType": "address",
          "name": "to",
          "type": "address"
        },
        {
          "internalType": "uint256",
          "name": "amount",
          "type": "uint256"
        }
      ],
      "name": "withdrawExcessRewards",
      "outputs": [],
      "stateMutability": "nonpayable",
      "type": "function"
    }
  ],
  "bytecode": "0x60a0604052306080523480156200001557600080fd5b506200002062000026565b620000da565b7ff0c57e16840df040f15088dc2f81fe391c3923bec73e23a9662efc9c229c6a00805468010000000000000000900460ff1615620000775760405163f92ee8a960e01b815260040160405180910390fd5b80546001600160401b0390811614620000d75780546001600160401b0319166001600160401b0390811782556040519081527fc7f505b2f371ae2175ee4913f4499e1f2633a7b5936321eed1cdaeb6115181d29060200160405180910390a15b50565b6080516130d0620001046000396000818161231f01528181612348015261248e01526130d06000f3fe6080604052600436106102305760003560e01c806372f702f31161012e578063b6ed7d62116100ab578063d547741f1161006f578063d547741f1461073e578063ee1725461461075e578063f6a3f3cf14610774578063f7c618c1146107a1578063fc9d7711146107c157600080fd5b8063b6ed7d621461069e578063b7587941146106be578063beceed39146106de578063bf5e8d44146106fe578063c0c53b8b1461071e57600080fd5b80639239a750116100f25780639239a750146105a9578063a217fddf1461060b578063a75bac7514610620578063ad3cb1cc14610640578063b66cb43b1461067e57600080fd5b806372f702f31461050557806375506c961461053d5780637b0472f014610553578063817b1cd21461057357806391d148541461058957600080fd5b80632f2ff15d116101bc57806352d1902d1161018057806352d1902d146104625780635aad6cf0146104775780635ec99600146104ad5780636d750d80146104c35780637029d6a6146104e557600080fd5b80632f2ff15d146103af5780632f380b35146103cf578063313da78f1461040257806336568abe1461042f5780634f1ef2861461044f57600080fd5b8063098134821161020357806309813482146102dc57806318e5613114610339578063248a9ca31461034f57806327f7b5c61461036f5780632e17de781461038f57600080fd5b8063012ce5011461023557806301ffc9a71461025757806304f67aa11461028c5780630962ef79146102bc575b600080fd5b34801561024157600080fd5b506102556102503660046128e0565b6107ee565b005b34801561026357600080fd5b506102776102723660046128f9565b610b11565b60405190151581526020015b60405180910390f35b34801561029857600080fd5b506102ae60008051602061301b83398151915281565b604051908152602001610283565b3480156102c857600080fd5b506102556102d73660046128e0565b610b48565b3480156102e857600080fd5b506102fc6102f73660046128e0565b610d57565b604080519889526020890197909752958701949094526060860192909252608085015260a084015260c0830152151560e082015261010001610283565b34801561034557600080fd5b506102ae60035481565b34801561035b57600080fd5b506102ae61036a3660046128e0565b610e1f565b34801561037b57600080fd5b506102ae61038a36600461293f565b610e41565b34801561039b57600080fd5b506102556103aa3660046128e0565b610eb3565b3480156103bb57600080fd5b506102556103ca36600461295a565b611215565b3480156103db57600080fd5b506103ef6103ea3660046128e0565b611237565b60405161028397969594939291906129d6565b34801561040e57600080fd5b5061042261041d36600461293f565b6113a0565b6040516102839190612a1c565b34801561043b57600080fd5b5061025561044a36600461295a565b6113c4565b61025561045d366004612aec565b6113fc565b34801561046e57600080fd5b506102ae61141b565b34801561048357600080fd5b506104976104923660046128e0565b611438565b6040516102839a99989796959493929190612b4e565b3480156104b957600080fd5b506102ae600b5481565b3480156104cf57600080fd5b506102ae60008051602061305b83398151915281565b3480156104f157600080fd5b506102ae610500366004612bac565b611515565b34801561051157600080fd5b50600054610525906001600160a01b031681565b6040516001600160a01b039091168152602001610283565b34801561054957600080fd5b506102ae60065481565b34801561055f57600080fd5b5061025561056e366004612c1d565b61166e565b34801561057f57600080fd5b506102ae60095481565b34801561059557600080fd5b506102776105a436600461295a565b6119c8565b3480156105b557600080fd5b506102fc6105c43660046128e0565b600560208190526000918252604090912080546001820154600283015460038401546004850154958501546006860154600790960154949693959294919392909160ff1688565b34801561061757600080fd5b506102ae600081565b34801561062c57600080fd5b5061025561063b366004612c4d565b611a00565b34801561064c57600080fd5b50610671604051806040016040528060058152602001640352e302e360dc1b81525081565b6040516102839190612c86565b34801561068a57600080fd5b5061025561069936600461293f565b611ad2565b3480156106aa57600080fd5b506102ae6106b93660046128e0565b611b0d565b3480156106ca57600080fd5b506102556106d9366004612c99565b611cf5565b3480156106ea57600080fd5b506102556106f93660046128e0565b611efd565b34801561070a57600080fd5b5061025561071936600461293f565b611fe3565b34801561072a57600080fd5b50610255610739366004612cc3565b61201e565b34801561074a57600080fd5b5061025561075936600461295a565b612196565b34801561076a57600080fd5b506102ae600a5481565b34801561078057600080fd5b506102ae61078f36600461293f565b60076020526000908152604090205481565b3480156107ad57600080fd5b50600154610525906001600160a01b031681565b3480156107cd57600080fd5b506102ae6107dc36600461293f565b60086020526000908152604090205481565b6000818152600560205260409020600781015460ff166108295760405162461bcd60e51b815260040161082090612d06565b60405180910390fd5b33600090815260046020526040902061084290836121b2565b61085e5760405162461bcd60e51b815260040161082090612d30565b806004015442106108a75760405162461bcd60e51b815260206004820152601360248201527255736520726567756c617220756e7374616b6560681b6044820152606401610820565b600280820154906000906108bb9083612d6e565b905060006108c98284612d90565b60078501805460ff191690556001850154600090815260026020526040812060060180549293508592909190610900908490612d90565b9250508190555082600960008282546109199190612d90565b9091555050600b805490600061092e83612da3565b909155505033600090815260046020526040902061094c90866121cd565b5060005460405163a9059cbb60e01b8152336004820152602481018390526001600160a01b039091169063a9059cbb906044016020604051808303816000875af115801561099e573d6000803e3d6000fd5b505050506040513d601f19601f820116820180604052508101906109c29190612dba565b610a045760405162461bcd60e51b815260206004820152601360248201527214dd185ad9481c995d1d5c9b8819985a5b1959606a1b6044820152606401610820565b60005460405163a9059cbb60e01b815261dead6004820152602481018490526001600160a01b039091169063a9059cbb906044016020604051808303816000875af1158015610a57573d6000803e3d6000fd5b505050506040513d601f19601f82011682018060405250810190610a7b9190612dba565b610ac75760405162461bcd60e51b815260206004820152601760248201527f50656e616c7479207472616e73666572206661696c65640000000000000000006044820152606401610820565b604080518681526020810183905290810183905233907fef2ec7ade2d89c8b9c114f5a682d19fc527f3e9e3d38afaf890a584d2107f30f9060600160405180910390a25050505050565b60006001600160e01b03198216637965db0b60e01b1480610b4257506301ffc9a760e01b6001600160e01b03198316145b92915050565b6000818152600560205260409020600781015460ff16610b7a5760405162461bcd60e51b815260040161082090612d06565b336000908152600460205260409020610b9390836121b2565b610baf5760405162461bcd60e51b815260040161082090612d30565b6000610bba83611b0d565b905060008111610c025760405162461bcd60e51b81526020600482015260136024820152724e6f207265776172647320746f20636c61696d60681b6044820152606401610820565b42826005018190555080826006016000828254610c1f9190612dd7565b9091555050600182015460009081526002602052604081206007018054839290610c4a908490612dd7565b9250508190555080600a6000828254610c639190612dd7565b90915550503360009081526007602052604081208054839290610c87908490612dd7565b909155505060015460405163a9059cbb60e01b8152336004820152602481018390526001600160a01b039091169063a9059cbb906044016020604051808303816000875af1158015610cdd573d6000803e3d6000fd5b505050506040513d601f19601f82011682018060405250810190610d019190612dba565b610d1d5760405162461bcd60e51b815260040161082090612dea565b60405181815233907ffc30cddea38e2bf4d6ea7d3f9ed3b6ad7f176419f4963bd81318067a4aee73fe9060200160405180910390a2505050565b60008181526005602081815260408084208151610100810183528154815260018201549381019390935260028101549183019190915260038101546060830152600481015460808301529182015460a0820152600682015460c082015260079091015460ff16151560e0820152819081908190819081908190819081610ddc8b611b0d565b905081602001518260400151836060015184608001518560a001518660c00151868860e00151995099509950995099509950995099505050919395975091939597565b600090815260008051602061307b833981519152602052604090206001015490565b6001600160a01b038116600090815260046020526040812081908190610e66906121d9565b905060005b8151811015610eaa57610e96828281518110610e8957610e89612e1a565b6020026020010151611b0d565b610ea09084612dd7565b9250600101610e6b565b50909392505050565b6000818152600560205260409020600781015460ff16610ee55760405162461bcd60e51b815260040161082090612d06565b336000908152600460205260409020610efe90836121b2565b610f1a5760405162461bcd60e51b815260040161082090612d30565b8060040154421015610f665760405162461bcd60e51b8152602060048201526015602482015274131bd8dac81c195c9a5bd9081b9bdd08195b991959605a1b6044820152606401610820565b6000610f7183611b0d565b905080156110945742826005018190555080826006016000828254610f969190612dd7565b9091555050600182015460009081526002602052604081206007018054839290610fc1908490612dd7565b9250508190555080600a6000828254610fda9190612dd7565b90915550503360009081526007602052604081208054839290610ffe908490612dd7565b909155505060015460405163a9059cbb60e01b8152336004820152602481018390526001600160a01b039091169063a9059cbb906044016020604051808303816000875af1158015611054573d6000803e3d6000fd5b505050506040513d601f19601f820116820180604052508101906110789190612dba565b6110945760405162461bcd60e51b815260040161082090612dea565b60028083015460078401805460ff1916905560018401546000908152602092909252604082206006018054919283926110ce908490612d90565b9250508190555080600960008282546110e79190612d90565b9091555050600b80549060006110fc83612da3565b909155505033600090815260046020526040902061111a90856121cd565b5060005460405163a9059cbb60e01b8152336004820152602481018390526001600160a01b039091169063a9059cbb906044016020604051808303816000875af115801561116c573d6000803e3d6000fd5b505050506040513d601f19601f820116820180604052508101906111909190612dba565b6111d25760405162461bcd60e51b815260206004820152601360248201527214dd185ad9481c995d1d5c9b8819985a5b1959606a1b6044820152606401610820565b6040805182815260208101849052859133917f204fccf0d92ed8d48f204adb39b2e81e92bad0dedb93f5716ca9478cfb57de00910160405180910390a350505050565b61121e82610e1f565b611227816121e6565b61123183836121f3565b50505050565b60606000806000806000806000600260008a8152602001908152602001600020604051806101400160405290816000820154815260200160018201805461127d90612e30565b80601f01602080910402602001604051908101604052809291908181526020018280546112a990612e30565b80156112f65780601f106112cb576101008083540402835291602001916112f6565b820191906000526020600020905b8154815290600101906020018083116112d957829003601f168201915b505050505081526020016002820154815260200160038201548152602001600482015481526020016005820154815260200160068201548152602001600782015481526020016008820160009054906101000a900460ff16151515158152602001600982015481525050905080602001518160400151826060015183608001518460a001518560c00151866101000151975097509750975097509750975050919395979092949650565b6001600160a01b0381166000908152600460205260409020606090610b42906121d9565b6001600160a01b03811633146113ed5760405163334bd91960e11b815260040160405180910390fd5b6113f78282612298565b505050565b611404612314565b61140d826123bb565b61141782826123c6565b5050565b6000611425612483565b5060008051602061303b83398151915290565b6002602052600090815260409020805460018201805491929161145a90612e30565b80601f016020809104026020016040519081016040528092919081815260200182805461148690612e30565b80156114d35780601f106114a8576101008083540402835291602001916114d3565b820191906000526020600020905b8154815290600101906020018083116114b657829003601f168201915b505050506002830154600384015460048501546005860154600687015460078801546008890154600990990154979895979496509294919390929160ff16908a565b600060008051602061301b83398151915261152f816121e6565b600380546000918261154083612e6a565b919050559050604051806101400160405280828152602001898152602001888152602001878152602001868152602001858152602001600081526020016000815260200160011515815260200142815250600260008381526020019081526020016000206000820151816000015560208201518160010190816115c39190612ed3565b506040828101516002830155606083015160038301556080830151600483015560a0830151600583015560c0830151600683015560e0830151600783015561010083015160088301805460ff1916911515919091179055610120909201516009909101555181907fd6a5afaab19aa08059d2a773896ae3716587b8cb7dd9ffa3989de36e7ce8d6a39061165b908b908b908990612f93565b60405180910390a2979650505050505050565b6000828152600260205260409020805483146116c25760405162461bcd60e51b8152602060048201526013602482015272141bdbdb08191bd95cc81b9bdd08195e1a5cdd606a1b6044820152606401610820565b600881015460ff1661170b5760405162461bcd60e51b8152602060048201526012602482015271506f6f6c206973206e6f742061637469766560701b6044820152606401610820565b80600301548210156117565760405162461bcd60e51b8152602060048201526014602482015273416d6f756e742062656c6f77206d696e696d756d60601b6044820152606401610820565b80600401548211156117a35760405162461bcd60e51b8152602060048201526016602482015275416d6f756e742065786365656473206d6178696d756d60501b6044820152606401610820565b6000546040516323b872dd60e01b8152336004820152306024820152604481018490526001600160a01b03909116906323b872dd906064016020604051808303816000875af11580156117fa573d6000803e3d6000fd5b505050506040513d601f19601f8201168201806040525081019061181e9190612dba565b61185c5760405162461bcd60e51b815260206004820152600f60248201526e151c985b9cd9995c8819985a5b1959608a1b6044820152606401610820565b600680546000918261186d83612e6a565b91905055905060008260020154426118859190612dd7565b6040805161010081018252848152602080820189815282840189815242606085018181526080860188815260a08701928352600060c08801818152600160e08a018181528e84526005808b528c85209b518c559851918b0191909155955160028a015592516003890155905160048089019190915592519487019490945551600686015590516007909401805460ff1916941515949094179093553381529190522090915061193490836124cc565b50838360060160008282546119499190612dd7565b9250508190555083600960008282546119629190612dd7565b9091555050600b805490600061197783612e6a565b90915550506040805186815260208101869052908101829052829033907f9cfd25589d1eb8ad71e342a86a8524e83522e3936c0803048c08f6d9ad974f409060600160405180910390a35050505050565b600091825260008051602061307b833981519152602090815260408084206001600160a01b0393909316845291905290205460ff1690565b60008051602061301b833981519152611a18816121e6565b6000848152600260205260409020548414611a6b5760405162461bcd60e51b8152602060048201526013602482015272141bdbdb08191bd95cc81b9bdd08195e1a5cdd606a1b6044820152606401610820565b60008481526002602090815260409182902060058101869055600801805460ff191685151590811790915582518681529182015285917fec70f7b7f8beefa9ff0456053baafec83986e3915f156e2ed04b0acb57d7dd55910160405180910390a250505050565b60008051602061301b833981519152611aea816121e6565b50600080546001600160a01b0319166001600160a01b0392909216919091179055565b60008181526005602081815260408084208151610100810183528154815260018201549381019390935260028101549183019190915260038101546060830152600481015460808301529182015460a0820152600682015460c082015260079091015460ff16151560e08201819052611b895750600092915050565b600060026000836020015181526020019081526020016000206040518061014001604052908160008201548152602001600182018054611bc890612e30565b80601f0160208091040260200160405190810160405280929190818152602001828054611bf490612e30565b8015611c415780601f10611c1657610100808354040283529160200191611c41565b820191906000526020600020905b815481529060010190602001808311611c2457829003601f168201915b505050918352505060028201546020820152600382015460408201526004820154606082015260058201546080820152600682015460a080830191909152600783015460c0830152600883015460ff16151560e083015260099092015461010090910152830151909150600090611cb89042612d90565b9050670de0b6b3a7640000818360a001518560400151611cd89190612fb8565b611ce29190612fb8565b611cec9190612d6e565b95945050505050565b60008051602061305b833981519152611d0d816121e6565b6001546040516370a0823160e01b81523060048201526000916001600160a01b0316906370a0823190602401602060405180830381865afa158015611d56573d6000803e3d6000fd5b505050506040513d601f19601f82011682018060405250810190611d7a9190612fcf565b6001600160a01b038516600090815260076020526040812054600a549293509091611da59190612d90565b9050808211611df65760405162461bcd60e51b815260206004820152601b60248201527f496e73756666696369656e7420657863657373207265776172647300000000006044820152606401610820565b611e008183612d90565b841115611e415760405162461bcd60e51b815260206004820152600f60248201526e082dadeeadce840e8dede40d0d2ced608b1b6044820152606401610820565b60015460405163a9059cbb60e01b81526001600160a01b038781166004830152602482018790529091169063a9059cbb906044016020604051808303816000875af1158015611e94573d6000803e3d6000fd5b505050506040513d601f19601f82011682018060405250810190611eb89190612dba565b611ef65760405162461bcd60e51b815260206004820152600f60248201526e151c985b9cd9995c8819985a5b1959608a1b6044820152606401610820565b5050505050565b60008051602061305b833981519152611f15816121e6565b6001546040516323b872dd60e01b8152336004820152306024820152604481018490526001600160a01b03909116906323b872dd906064016020604051808303816000875af1158015611f6c573d6000803e3d6000fd5b505050506040513d601f19601f82011682018060405250810190611f909190612dba565b611fac5760405162461bcd60e51b815260040161082090612dea565b6040518281527ff8fad42e780bfa5459be3fe691e8ba1aec70342250112139c5771c3fd155f3129060200160405180910390a15050565b60008051602061301b833981519152611ffb816121e6565b50600180546001600160a01b0319166001600160a01b0392909216919091179055565b60006120286124d8565b805490915060ff600160401b820416159067ffffffffffffffff166000811580156120505750825b905060008267ffffffffffffffff16600114801561206d5750303b155b90508115801561207b575080155b156120995760405163f92ee8a960e01b815260040160405180910390fd5b845467ffffffffffffffff1916600117855583156120c357845460ff60401b1916600160401b1785555b6120cb612501565b6120d3612501565b600080546001600160a01b03808b166001600160a01b031992831617835560018054918b169190921617905561210990876121f3565b5061212260008051602061301b833981519152876121f3565b5061213b60008051602061305b833981519152876121f3565b5060016003819055600655831561218c57845460ff60401b19168555604051600181527fc7f505b2f371ae2175ee4913f4499e1f2633a7b5936321eed1cdaeb6115181d29060200160405180910390a15b5050505050505050565b61219f82610e1f565b6121a8816121e6565b6112318383612298565b600081815260018301602052604081205415155b9392505050565b60006121c68383612509565b606060006121c6836125f2565b6121f0813361264e565b50565b600060008051602061307b83398151915261220e84846119c8565b61228e576000848152602082815260408083206001600160a01b03871684529091529020805460ff191660011790556122443390565b6001600160a01b0316836001600160a01b0316857f2f8788117e7eff1d82e926ec794901d17c78024a50270940304540a733656f0d60405160405180910390a46001915050610b42565b6000915050610b42565b600060008051602061307b8339815191526122b384846119c8565b1561228e576000848152602082815260408083206001600160a01b0387168085529252808320805460ff1916905551339287917ff6391f5c32d9c69d2a47ea670b442974b53935d1edc7fd64eb21e047a839171b9190a46001915050610b42565b306001600160a01b037f000000000000000000000000000000000000000000000000000000000000000016148061239b57507f00000000000000000000000000000000000000000000000000000000000000006001600160a01b031661238f60008051602061303b833981519152546001600160a01b031690565b6001600160a01b031614155b156123b95760405163703e46dd60e11b815260040160405180910390fd5b565b6000611417816121e6565b816001600160a01b03166352d1902d6040518163ffffffff1660e01b8152600401602060405180830381865afa925050508015612420575060408051601f3d908101601f1916820190925261241d91810190612fcf565b60015b61244857604051634c9c8ce360e01b81526001600160a01b0383166004820152602401610820565b60008051602061303b833981519152811461247957604051632a87526960e21b815260048101829052602401610820565b6113f78383612687565b306001600160a01b037f000000000000000000000000000000000000000000000000000000000000000016146123b95760405163703e46dd60e11b815260040160405180910390fd5b60006121c683836126dd565b6000807ff0c57e16840df040f15088dc2f81fe391c3923bec73e23a9662efc9c229c6a00610b42565b6123b961272c565b6000818152600183016020526040812054801561228e57600061252d600183612d90565b855490915060009061254190600190612d90565b90508082146125a657600086600001828154811061256157612561612e1a565b906000526020600020015490508087600001848154811061258457612584612e1a565b6000918252602080832090910192909255918252600188019052604090208390555b85548690806125b7576125b7612fe8565b600190038181906000526020600020016000905590558560010160008681526020019081526020016000206000905560019350505050610b42565b60608160000180548060200260200160405190810160405280929190818152602001828054801561264257602002820191906000526020600020905b81548152602001906001019080831161262e575b50505050509050919050565b61265882826119c8565b6114175760405163e2517d3f60e01b81526001600160a01b038216600482015260248101839052604401610820565b61269082612751565b6040516001600160a01b038316907fbc7cd75a20ee27fd9adebab32041f755214dbc6bffa90cc0225b39da2e5c2d3b90600090a28051156126d5576113f782826127b6565b611417612823565b600081815260018301602052604081205461272457508154600181810184556000848152602080822090930184905584548482528286019093526040902091909155610b42565b506000610b42565b612734612842565b6123b957604051631afcd79f60e31b815260040160405180910390fd5b806001600160a01b03163b60000361278757604051634c9c8ce360e01b81526001600160a01b0382166004820152602401610820565b60008051602061303b83398151915280546001600160a01b0319166001600160a01b0392909216919091179055565b6060600080846001600160a01b0316846040516127d39190612ffe565b600060405180830381855af49150503d806000811461280e576040519150601f19603f3d011682016040523d82523d6000602084013e612813565b606091505b5091509150611cec85838361285c565b34156123b95760405163b398979f60e01b815260040160405180910390fd5b600061284c6124d8565b54600160401b900460ff16919050565b6060826128715761286c826128b8565b6121c6565b815115801561288857506001600160a01b0384163b155b156128b157604051639996b31560e01b81526001600160a01b0385166004820152602401610820565b5092915050565b8051156128c757805160208201fd5b60405163d6bda27560e01b815260040160405180910390fd5b6000602082840312156128f257600080fd5b5035919050565b60006020828403121561290b57600080fd5b81356001600160e01b0319811681146121c657600080fd5b80356001600160a01b038116811461293a57600080fd5b919050565b60006020828403121561295157600080fd5b6121c682612923565b6000806040838503121561296d57600080fd5b8235915061297d60208401612923565b90509250929050565b60005b838110156129a1578181015183820152602001612989565b50506000910152565b600081518084526129c2816020860160208601612986565b601f01601f19169290920160200192915050565b60e0815260006129e960e083018a6129aa565b60208301989098525060408101959095526060850193909352608084019190915260a0830152151560c090910152919050565b6020808252825182820181905260009190848201906040850190845b81811015612a5457835183529284019291840191600101612a38565b50909695505050505050565b634e487b7160e01b600052604160045260246000fd5b600067ffffffffffffffff80841115612a9157612a91612a60565b604051601f8501601f19908116603f01168101908282118183101715612ab957612ab9612a60565b81604052809350858152868686011115612ad257600080fd5b858560208301376000602087830101525050509392505050565b60008060408385031215612aff57600080fd5b612b0883612923565b9150602083013567ffffffffffffffff811115612b2457600080fd5b8301601f81018513612b3557600080fd5b612b4485823560208401612a76565b9150509250929050565b60006101408c8352806020840152612b688184018d6129aa565b604084019b909b5250506060810197909752608087019590955260a086019390935260c085019190915260e084015215156101008301526101209091015292915050565b600080600080600060a08688031215612bc457600080fd5b853567ffffffffffffffff811115612bdb57600080fd5b8601601f81018813612bec57600080fd5b612bfb88823560208401612a76565b9860208801359850604088013597606081013597506080013595509350505050565b60008060408385031215612c3057600080fd5b50508035926020909101359150565b80151581146121f057600080fd5b600080600060608486031215612c6257600080fd5b83359250602084013591506040840135612c7b81612c3f565b809150509250925092565b6020815260006121c660208301846129aa565b60008060408385031215612cac57600080fd5b612cb583612923565b946020939093013593505050565b600080600060608486031215612cd857600080fd5b612ce184612923565b9250612cef60208501612923565b9150612cfd60408501612923565b90509250925092565b60208082526010908201526f5374616b65206e6f742061637469766560801b604082015260600190565b6020808252600e908201526d4e6f7420796f7572207374616b6560901b604082015260600190565b634e487b7160e01b600052601160045260246000fd5b600082612d8b57634e487b7160e01b600052601260045260246000fd5b500490565b81810381811115610b4257610b42612d58565b600081612db257612db2612d58565b506000190190565b600060208284031215612dcc57600080fd5b81516121c681612c3f565b80820180821115610b4257610b42612d58565b60208082526016908201527514995dd85c99081d1c985b9cd9995c8819985a5b195960521b604082015260600190565b634e487b7160e01b600052603260045260246000fd5b600181811c90821680612e4457607f821691505b602082108103612e6457634e487b7160e01b600052602260045260246000fd5b50919050565b600060018201612e7c57612e7c612d58565b5060010190565b601f8211156113f7576000816000526020600020601f850160051c81016020861015612eac5750805b601f850160051c820191505b81811015612ecb57828155600101612eb8565b505050505050565b815167ffffffffffffffff811115612eed57612eed612a60565b612f0181612efb8454612e30565b84612e83565b602080601f831160018114612f365760008415612f1e5750858301515b600019600386901b1c1916600185901b178555612ecb565b600085815260208120601f198616915b82811015612f6557888601518255948401946001909101908401612f46565b5085821015612f835787850151600019600388901b60f8161c191681555b5050505050600190811b01905550565b606081526000612fa660608301866129aa565b60208301949094525060400152919050565b8082028115828204841417610b4257610b42612d58565b600060208284031215612fe157600080fd5b5051919050565b634e487b7160e01b600052603160045260246000fd5b60008251613010818460208701612986565b919091019291505056fe24791c44c040514a5d2580696fc45e7d3cb6c9fa65bf3db2e4755362d6c155b5360894a13ba1a3210667c828492db98dca3e2076cc3735a920a3ca505d382bbc0f51adb3f49e4a9bbb17b3783f025995eaf8c24be2c8eefff214bdfda05ef94d02dd7bc7dec4dceedda775e58dd541e08a116c6c53815c0bd028192f7b626800a2646970667358221220ef9b2dd1ba3fac33da4c7fbb55e2fcc81e845ed80be9aae629b70b27d67996f764736f6c63430008160033",
  "linkReferences": {},
  "deployedLinkReferences": {}
}