{
  "_format": "hh-sol-artifact-1",
  "contractName": "MNBGovernance",
  "sourceName": "contracts/MNBGovernance.sol",
  "abi": [
    {
      "inputs": [],
      "stateMutability": "nonpayable",
      "type": "constructor"
    },
    {
      "inputs": [],
      "name": "AccessControlBadConfirmation",
      "type": "error"
    },
    {
      "inputs": [
        {
          "internalType": "address",
          "name": "account",
          "type": "address"
        },
        {
          "internalType": "bytes32",
          "name": "neededRole",
          "type": "bytes32"
        }
      ],
      "name": "AccessControlUnauthorizedAccount",
      "type": "error"
    },
    {
      "inputs": [
        {
          "internalType": "address",
          "name": "target",
          "type": "address"
        }
      ],
      "name": "AddressEmptyCode",
      "type": "error"
    },
    {
      "inputs": [
        {
          "internalType": "address",
          "name": "implementation",
          "type": "address"
        }
      ],
      "name": "ERC1967InvalidImplementation",
      "type": "error"
    },
    {
      "inputs": [],
      "name": "ERC1967NonPayable",
      "type": "error"
    },
    {
      "inputs": [],
      "name": "FailedCall",
      "type": "error"
    },
    {
      "inputs": [],
      "name": "InvalidInitialization",
      "type": "error"
    },
    {
      "inputs": [],
      "name": "NotInitializing",
      "type": "error"
    },
    {
      "inputs": [],
      "name": "UUPSUnauthorizedCallContext",
      "type": "error"
    },
    {
      "inputs": [
        {
          "internalType": "bytes32",
          "name": "slot",
          "type": "bytes32"
        }
      ],
      "name": "UUPSUnsupportedProxiableUUID",
      "type": "error"
    },
    {
      "anonymous": false,
      "inputs": [
        {
          "indexed": true,
          "internalType": "address",
          "name": "governor",
          "type": "address"
        }
      ],
      "name": "GovernorRemoved",
      "type": "event"
    },
    {
      "anonymous": false,
      "inputs": [
        {
          "indexed": false,
          "internalType": "uint64",
          "name": "version",
          "type": "uint64"
        }
      ],
      "name": "Initialized",
      "type": "event"
    },
    {
      "anonymous": false,
      "inputs": [
        {
          "indexed": true,
          "internalType": "address",
          "name": "governor",
          "type": "address"
        }
      ],
      "name": "NewGovernor",
      "type": "event"
    },
    {
      "anonymous": false,
      "inputs": [
        {
          "indexed": true,
          "internalType": "uint256",
          "name": "proposalId",
          "type": "uint256"
        }
      ],
      "name": "ProposalCanceled",
      "type": "event"
    },
    {
      "anonymous": false,
      "inputs": [
        {
          "indexed": true,
          "internalType": "uint256",
          "name": "proposalId",
          "type": "uint256"
        },
        {
          "indexed": false,
          "internalType": "address",
          "name": "proposer",
          "type": "address"
        },
        {
          "indexed": false,
          "internalType": "address[]",
          "name": "targets",
          "type": "address[]"
        },
        {
          "indexed": false,
          "internalType": "uint256[]",
          "name": "values",
          "type": "uint256[]"
        },
        {
          "indexed": false,
          "internalType": "string[]",
          "name": "signatures",
          "type": "string[]"
        },
        {
          "indexed": false,
          "internalType": "bytes[]",
          "name": "calldatas",
          "type": "bytes[]"
        },
        {
          "indexed": false,
          "internalType": "uint256",
          "name": "startBlock",
          "type": "uint256"
        },
        {
          "indexed": false,
          "internalType": "uint256",
          "name": "endBlock",
          "type": "uint256"
        },
        {
          "indexed": false,
          "internalType": "string",
          "name": "description",
          "type": "string"
        }
      ],
      "name": "ProposalCreated",
      "type": "event"
    },
    {
      "anonymous": false,
      "inputs": [
        {
          "indexed": true,
          "internalType": "uint256",
          "name": "proposalId",
          "type": "uint256"
        }
      ],
      "name": "ProposalExecuted",
      "type": "event"
    },
    {
      "anonymous": false,
      "inputs": [
        {
          "indexed": true,
          "internalType": "bytes32",
          "name": "role",
          "type": "bytes32"
        },
        {
          "indexed": true,
          "internalType": "bytes32",
          "name": "previousAdminRole",
          "type": "bytes32"
        },
        {
          "indexed": true,
          "internalType": "bytes32",
          "name": "newAdminRole",
          "type": "bytes32"
        }
      ],
      "name": "RoleAdminChanged",
      "type": "event"
    },
    {
      "anonymous": false,
      "inputs": [
        {
          "indexed": true,
          "internalType": "bytes32",
          "name": "role",
          "type": "bytes32"
        },
        {
          "indexed": true,
          "internalType": "address",
          "name": "account",
          "type": "address"
        },
        {
          "indexed": true,
          "internalType": "address",
          "name": "sender",
          "type": "address"
        }
      ],
      "name": "RoleGranted",
      "type": "event"
    },
    {
      "anonymous": false,
      "inputs": [
        {
          "indexed": true,
          "internalType": "bytes32",
          "name": "role",
          "type": "bytes32"
        },
        {
          "indexed": true,
          "internalType": "address",
          "name": "account",
          "type": "address"
        },
        {
          "indexed": true,
          "internalType": "address",
          "name": "sender",
          "type": "address"
        }
      ],
      "name": "RoleRevoked",
      "type": "event"
    },
    {
      "anonymous": false,
      "inputs": [
        {
          "indexed": true,
          "internalType": "address",
          "name": "implementation",
          "type": "address"
        }
      ],
      "name": "Upgraded",
      "type": "event"
    },
    {
      "anonymous": false,
      "inputs": [
        {
          "indexed": true,
          "internalType": "address",
          "name": "voter",
          "type": "address"
        },
        {
          "indexed": true,
          "internalType": "uint256",
          "name": "proposalId",
          "type": "uint256"
        },
        {
          "indexed": false,
          "internalType": "uint8",
          "name": "support",
          "type": "uint8"
        },
        {
          "indexed": false,
          "internalType": "uint256",
          "name": "votes",
          "type": "uint256"
        },
        {
          "indexed": false,
          "internalType": "string",
          "name": "reason",
          "type": "string"
        }
      ],
      "name": "VoteCast",
      "type": "event"
    },
    {
      "anonymous": false,
      "inputs": [
        {
          "indexed": false,
          "internalType": "uint256",
          "name": "oldVotingDelay",
          "type": "uint256"
        },
        {
          "indexed": false,
          "internalType": "uint256",
          "name": "newVotingDelay",
          "type": "uint256"
        }
      ],
      "name": "VotingDelaySet",
      "type": "event"
    },
    {
      "anonymous": false,
      "inputs": [
        {
          "indexed": false,
          "internalType": "uint256",
          "name": "oldVotingPeriod",
          "type": "uint256"
        },
        {
          "indexed": false,
          "internalType": "uint256",
          "name": "newVotingPeriod",
          "type": "uint256"
        }
      ],
      "name": "VotingPeriodSet",
      "type": "event"
    },
    {
      "inputs": [],
      "name": "DEFAULT_ADMIN_ROLE",
      "outputs": [
        {
          "internalType": "bytes32",
          "name": "",
          "type": "bytes32"
        }
      ],
      "stateMutability": "view",
      "type": "function"
    },
    {
      "inputs": [],
      "name": "GOVERNANCE_ADMIN_ROLE",
      "outputs": [
        {
          "internalType": "bytes32",
          "name": "",
          "type": "bytes32"
        }
      ],
      "stateMutability": "view",
      "type": "function"
    },
    {
      "inputs": [],
      "name": "PROPOSAL_CREATOR_ROLE",
      "outputs": [
        {
          "internalType": "bytes32",
          "name": "",
          "type": "bytes32"
        }
      ],
      "stateMutability": "view",
      "type": "function"
    },
    {
      "inputs": [],
      "name": "UPGRADE_INTERFACE_VERSION",
      "outputs": [
        {
          "internalType": "string",
          "name": "",
          "type": "string"
        }
      ],
      "stateMutability": "view",
      "type": "function"
    },
    {
      "inputs": [
        {
          "internalType": "address",
          "name": "governor",
          "type": "address"
        }
      ],
      "name": "addGovernor",
      "outputs": [],
      "stateMutability": "nonpayable",
      "type": "function"
    },
    {
      "inputs": [
        {
          "internalType": "uint256",
          "name": "proposalId",
          "type": "uint256"
        }
      ],
      "name": "cancel",
      "outputs": [],
      "stateMutability": "nonpayable",
      "type": "function"
    },
    {
      "inputs": [
        {
          "internalType": "uint256",
          "name": "proposalId",
          "type": "uint256"
        },
        {
          "internalType": "uint8",
          "name": "support",
          "type": "uint8"
        },
        {
          "internalType": "string",
          "name": "reason",
          "type": "string"
        }
      ],
      "name": "castVote",
      "outputs": [],
      "stateMutability": "nonpayable",
      "type": "function"
    },
    {
      "inputs": [
        {
          "internalType": "uint256",
          "name": "proposalId",
          "type": "uint256"
        }
      ],
      "name": "execute",
      "outputs": [],
      "stateMutability": "nonpayable",
      "type": "function"
    },
    {
      "inputs": [
        {
          "internalType": "uint256",
          "name": "index",
          "type": "uint256"
        }
      ],
      "name": "getGovernor",
      "outputs": [
        {
          "internalType": "address",
          "name": "",
          "type": "address"
        }
      ],
      "stateMutability": "view",
      "type": "function"
    },
    {
      "inputs": [],
      "name": "getGovernorCount",
      "outputs": [
        {
          "internalType": "uint256",
          "name": "",
          "type": "uint256"
        }
      ],
      "stateMutability": "view",
      "type": "function"
    },
    {
      "inputs": [
        {
          "internalType": "uint256",
          "name": "proposalId",
          "type": "uint256"
        }
      ],
      "name": "getProposal",
      "outputs": [
        {
          "internalType": "uint256",
          "name": "id",
          "type": "uint256"
        },
        {
          "internalType": "address",
          "name": "proposer",
          "type": "address"
        },
        {
          "internalType": "uint256",
          "name": "startBlock",
          "type": "uint256"
        },
        {
          "internalType": "uint256",
          "name": "endBlock",
          "type": "uint256"
        },
        {
          "internalType": "string",
          "name": "description",
          "type": "string"
        },
        {
          "internalType": "uint256",
          "name": "forVotes",
          "type": "uint256"
        },
        {
          "internalType": "uint256",
          "name": "againstVotes",
          "type": "uint256"
        },
        {
          "internalType": "uint256",
          "name": "abstainVotes",
          "type": "uint256"
        },
        {
          "internalType": "bool",
          "name": "canceled",
          "type": "bool"
        },
        {
          "internalType": "bool",
          "name": "executed",
          "type": "bool"
        }
      ],
      "stateMutability": "view",
      "type": "function"
    },
    {
      "inputs": [
        {
          "internalType": "uint256",
          "name": "proposalId",
          "type": "uint256"
        },
        {
          "internalType": "address",
          "name": "voter",
          "type": "address"
        }
      ],
      "name": "getReceipt",
      "outputs": [
        {
          "internalType": "bool",
          "name": "",
          "type": "bool"
        },
        {
          "internalType": "uint8",
          "name": "",
          "type": "uint8"
        },
        {
          "internalType": "uint256",
          "name": "",
          "type": "uint256"
        }
      ],
      "stateMutability": "view",
      "type": "function"
    },
    {
      "inputs": [
        {
          "internalType": "bytes32",
          "name": "role",
          "type": "bytes32"
        }
      ],
      "name": "getRoleAdmin",
      "outputs": [
        {
          "internalType": "bytes32",
          "name": "",
          "type": "bytes32"
        }
      ],
      "stateMutability": "view",
      "type": "function"
    },
    {
      "inputs": [],
      "name": "governanceToken",
      "outputs": [
        {
          "internalType": "contract MNBToken",
          "name": "",
          "type": "address"
        }
      ],
      "stateMutability": "view",
      "type": "function"
    },
    {
      "inputs": [
        {
          "internalType": "bytes32",
          "name": "role",
          "type": "bytes32"
        },
        {
          "internalType": "address",
          "name": "account",
          "type": "address"
        }
      ],
      "name": "grantRole",
      "outputs": [],
      "stateMutability": "nonpayable",
      "type": "function"
    },
    {
      "inputs": [
        {
          "internalType": "bytes32",
          "name": "role",
          "type": "bytes32"
        },
        {
          "internalType": "address",
          "name": "account",
          "type": "address"
        }
      ],
      "name": "hasRole",
      "outputs": [
        {
          "internalType": "bool",
          "name": "",
          "type": "bool"
        }
      ],
      "stateMutability": "view",
      "type": "function"
    },
    {
      "inputs": [
        {
          "internalType": "address",
          "name": "defaultAdmin",
          "type": "address"
        },
        {
          "internalType": "address",
          "name": "_governanceToken",
          "type": "address"
        },
        {
          "internalType": "uint256",
          "name": "_votingDelay",
          "type": "uint256"
        },
        {
          "internalType": "uint256",
          "name": "_votingPeriod",
          "type": "uint256"
        },
        {
          "internalType": "uint256",
          "name": "_proposalThreshold",
          "type": "uint256"
        },
        {
          "internalType": "uint256",
          "name": "_quorumVotes",
          "type": "uint256"
        }
      ],
      "name": "initialize",
      "outputs": [],
      "stateMutability": "nonpayable",
      "type": "function"
    },
    {
      "inputs": [
        {
          "internalType": "address",
          "name": "account",
          "type": "address"
        }
      ],
      "name": "isGovernor",
      "outputs": [
        {
          "internalType": "bool",
          "name": "",
          "type": "bool"
        }
      ],
      "stateMutability": "view",
      "type": "function"
    },
    {
      "inputs": [],
      "name": "proposalCount",
      "outputs": [
        {
          "internalType": "uint256",
          "name": "",
          "type": "uint256"
        }
      ],
      "stateMutability": "view",
      "type": "function"
    },
    {
      "inputs": [],
      "name": "proposalThreshold",
      "outputs": [
        {
          "internalType": "uint256",
          "name": "",
          "type": "uint256"
        }
      ],
      "stateMutability": "view",
      "type": "function"
    },
    {
      "inputs": [
        {
          "internalType": "uint256",
          "name": "",
          "type": "uint256"
        }
      ],
      "name": "proposals",
      "outputs": [
        {
          "internalType": "uint256",
          "name": "id",
          "type": "uint256"
        },
        {
          "internalType": "address",
          "name": "proposer",
          "type": "address"
        },
        {
          "internalType": "uint256",
          "name": "startBlock",
          "type": "uint256"
        },
        {
          "internalType": "uint256",
          "name": "endBlock",
          "type": "uint256"
        },
        {
          "internalType": "string",
          "name": "description",
          "type": "string"
        },
        {
          "internalType": "uint256",
          "name": "forVotes",
          "type": "uint256"
        },
        {
          "internalType": "uint256",
          "name": "againstVotes",
          "type": "uint256"
        },
        {
          "internalType": "uint256",
          "name": "abstainVotes",
          "type": "uint256"
        },
        {
          "internalType": "bool",
          "name": "canceled",
          "type": "bool"
        },
        {
          "internalType": "bool",
          "name": "executed",
          "type": "bool"
        }
      ],
      "stateMutability": "view",
      "type": "function"
    },
    {
      "inputs": [
        {
          "internalType": "address[]",
          "name": "targets",
          "type": "address[]"
        },
        {
          "internalType": "uint256[]",
          "name": "values",
          "type": "uint256[]"
        },
        {
          "internalType": "string[]",
          "name": "signatures",
          "type": "string[]"
        },
        {
          "internalType": "bytes[]",
          "name": "calldatas",
          "type": "bytes[]"
        },
        {
          "internalType": "string",
          "name": "description",
          "type": "string"
        }
      ],
      "name": "propose",
      "outputs": [
        {
          "internalType": "uint256",
          "name": "",
          "type": "uint256"
        }
      ],
      "stateMutability": "nonpayable",
      "type": "function"
    },
    {
      "inputs": [],
      "name": "proxiableUUID",
      "outputs": [
        {
          "internalType": "bytes32",
          "name": "",
          "type": "bytes32"
        }
      ],
      "stateMutability": "view",
      "type": "function"
    },
    {
      "inputs": [
        {
          "internalType": "bytes32",
          "name": "",
          "type": "bytes32"
        }
      ],
      "name": "queuedTransactions",
      "outputs": [
        {
          "internalType": "bool",
          "name": "",
          "type": "bool"
        }
      ],
      "stateMutability": "view",
      "type": "function"
    },
    {
      "inputs": [],
      "name": "quorumVotes",
      "outputs": [
        {
          "internalType": "uint256",
          "name": "",
          "type": "uint256"
        }
      ],
      "stateMutability": "view",
      "type": "function"
    },
    {
      "inputs": [
        {
          "internalType": "address",
          "name": "governor",
          "type": "address"
        }
      ],
      "name": "removeGovernor",
      "outputs": [],
      "stateMutability": "nonpayable",
      "type": "function"
    },
    {
      "inputs": [
        {
          "internalType": "bytes32",
          "name": "role",
          "type": "bytes32"
        },
        {
          "internalType": "address",
          "name": "callerConfirmation",
          "type": "address"
        }
      ],
      "name": "renounceRole",
      "outputs": [],
      "stateMutability": "nonpayable",
      "type": "function"
    },
    {
      "inputs": [
        {
          "internalType": "bytes32",
          "name": "role",
          "type": "bytes32"
        },
        {
          "internalType": "address",
          "name": "account",
          "type": "address"
        }
      ],
      "name": "revokeRole",
      "outputs": [],
      "stateMutability": "nonpayable",
      "type": "function"
    },
    {
      "inputs": [
        {
          "internalType": "uint256",
          "name": "newThreshold",
          "type": "uint256"
        }
      ],
      "name": "setProposalThreshold",
      "outputs": [],
      "stateMutability": "nonpayable",
      "type": "function"
    },
    {
      "inputs": [
        {
          "internalType": "uint256",
          "name": "newQuorumVotes",
          "type": "uint256"
        }
      ],
      "name": "setQuorumVotes",
      "outputs": [],
      "stateMutability": "nonpayable",
      "type": "function"
    },
    {
      "inputs": [
        {
          "internalType": "uint256",
          "name": "newVotingDelay",
          "type": "uint256"
        }
      ],
      "name": "setVotingDelay",
      "outputs": [],
      "stateMutability": "nonpayable",
      "type": "function"
    },
    {
      "inputs": [
        {
          "internalType": "uint256",
          "name": "newVotingPeriod",
          "type": "uint256"
        }
      ],
      "name": "setVotingPeriod",
      "outputs": [],
      "stateMutability": "nonpayable",
      "type": "function"
    },
    {
      "inputs": [
        {
          "internalType": "uint256",
          "name": "proposalId",
          "type": "uint256"
        }
      ],
      "name": "state",
      "outputs": [
        {
          "internalType": "enum MNBGovernance.ProposalState",
          "name": "",
          "type": "uint8"
        }
      ],
      "stateMutability": "view",
      "type": "function"
    },
    {
      "inputs": [
        {
          "internalType": "bytes4",
          "name": "interfaceId",
          "type": "bytes4"
        }
      ],
      "name": "supportsInterface",
      "outputs": [
        {
          "internalType": "bool",
          "name": "",
          "type": "bool"
        }
      ],
      "stateMutability": "view",
      "type": "function"
    },
    {
      "inputs": [],
      "name": "timelockDelay",
      "outputs": [
        {
          "internalType": "uint256",
          "name": "",
          "type": "uint256"
        }
      ],
      "stateMutability": "view",
      "type": "function"
    },
    {
      "inputs": [
        {
          "internalType": "address",
          "name": "newImplementation",
          "type": "address"
        },
        {
          "internalType": "bytes",
          "name": "data",
          "type": "bytes"
        }
      ],
      "name": "upgradeToAndCall",
      "outputs": [],
      "stateMutability": "payable",
      "type": "function"
    },
    {
      "inputs": [],
      "name": "votingDelay",
      "outputs": [
        {
          "internalType": "uint256",
          "name": "",
          "type": "uint256"
        }
      ],
      "stateMutability": "view",
      "type": "function"
    },
    {
      "inputs": [],
      "name": "votingPeriod",
      "outputs": [
        {
          "internalType": "uint256",
          "name": "",
          "type": "uint256"
        }
      ],
      "stateMutability": "view",
      "type": "function"
    }
  ],
  "bytecode": "0x60a0604052306080523480156200001557600080fd5b506200002062000026565b620000da565b7ff0c57e16840df040f15088dc2f81fe391c3923bec73e23a9662efc9c229c6a00805468010000000000000000900460ff1615620000775760405163f92ee8a960e01b815260040160405180910390fd5b80546001600160401b0390811614620000d75780546001600160401b0319166001600160401b0390811782556040519081527fc7f505b2f371ae2175ee4913f4499e1f2633a7b5936321eed1cdaeb6115181d29060200160405180910390a15b50565b608051612b9f620001046000396000818161190b015281816119340152611a7a0152612b9f6000f3fe6080604052600436106102255760003560e01c806377fb8d7a11610123578063da95691a116100ab578063eecdac881161006f578063eecdac88146106f5578063eef09bad14610715578063f2b065371461072b578063f96dae0a1461075b578063fe0d94c11461077b57600080fd5b8063da95691a146105e2578063e23a9a5214610602578063e43581b814610695578063ea0217cf146106b5578063ece40cc1146106d557600080fd5b8063ad3cb1cc116100f2578063ad3cb1cc14610538578063b58131b014610576578063c7f758a81461058c578063d547741f146105ac578063da35c664146105cc57600080fd5b806377fb8d7a146104c157806386489ba9146104e357806391d1485414610503578063a217fddf1461052357600080fd5b80632f2ff15d116101b157806340e58ee51161017557806340e58ee514610439578063470b7622146104595780634f1ef2861461047957806352d1902d1461048c57806370b0f660146104a157600080fd5b80632f2ff15d1461039657806336568abe146103b65780633932abb1146103d65780633c4a25d0146103ec5780633e4f49e61461040c57600080fd5b8063072eb4d3116101f8578063072eb4d3146102df57806315b3958e146102f4578063175c71d214610328578063248a9ca31461036057806324bc1a641461038057600080fd5b8063013cf08b1461022a57806301ffc9a71461026957806302a251a31461029957806302ec8f9e146102bd575b600080fd5b34801561023657600080fd5b5061024a61024536600461209b565b61079b565b6040516102609a99989796959493929190612104565b60405180910390f35b34801561027557600080fd5b5061028961028436600461216c565b610883565b6040519015158152602001610260565b3480156102a557600080fd5b506102af60025481565b604051908152602001610260565b3480156102c957600080fd5b506102dd6102d836600461209b565b6108ba565b005b3480156102eb57600080fd5b506102af6108d8565b34801561030057600080fd5b506102af7f8a21e8fdae6c23863f7de5307e2e7162c88dab602a41610addb5f1505d25939881565b34801561033457600080fd5b5061034861034336600461209b565b6108e9565b6040516001600160a01b039091168152602001610260565b34801561036c57600080fd5b506102af61037b36600461209b565b6108f6565b34801561038c57600080fd5b506102af60045481565b3480156103a257600080fd5b506102dd6103b13660046121b2565b610918565b3480156103c257600080fd5b506102dd6103d13660046121b2565b61093a565b3480156103e257600080fd5b506102af60015481565b3480156103f857600080fd5b506102dd6104073660046121de565b610972565b34801561041857600080fd5b5061042c61042736600461209b565b610a13565b604051610260919061220f565b34801561044557600080fd5b506102dd61045436600461209b565b610ab3565b34801561046557600080fd5b506102dd6104743660046122ee565b610b65565b6102dd61048736600461234d565b610dac565b34801561049857600080fd5b506102af610dcb565b3480156104ad57600080fd5b506102dd6104bc36600461209b565b610de8565b3480156104cd57600080fd5b506102af600080516020612b0a83398151915281565b3480156104ef57600080fd5b506102dd6104fe36600461239b565b610e42565b34801561050f57600080fd5b5061028961051e3660046121b2565b610fdc565b34801561052f57600080fd5b506102af600081565b34801561054457600080fd5b50610569604051806040016040528060058152602001640352e302e360dc1b81525081565b60405161026091906123f0565b34801561058257600080fd5b506102af60035481565b34801561059857600080fd5b5061024a6105a736600461209b565b611014565b3480156105b857600080fd5b506102dd6105c73660046121b2565b611146565b3480156105d857600080fd5b506102af60095481565b3480156105ee57600080fd5b506102af6105fd3660046125fc565b611162565b34801561060e57600080fd5b5061067661061d3660046121b2565b60009182526005602090815260408084206001600160a01b03939093168452600d9092018152918190208151606081018352815460ff808216151580845261010090920416948201859052600190920154920182905292565b60408051931515845260ff909216602084015290820152606001610260565b3480156106a157600080fd5b506102896106b03660046121de565b61145e565b3480156106c157600080fd5b506102dd6106d036600461209b565b61146b565b3480156106e157600080fd5b506102dd6106f036600461209b565b6114c5565b34801561070157600080fd5b506102dd6107103660046121de565b6114e3565b34801561072157600080fd5b506102af600a5481565b34801561073757600080fd5b5061028961074636600461209b565b60066020526000908152604090205460ff1681565b34801561076757600080fd5b50600054610348906001600160a01b031681565b34801561078757600080fd5b506102dd61079636600461209b565b61157b565b6005602052600090815260409020805460018201546006830154600784015460088501805494956001600160a01b0390941694929391926107db906126ce565b80601f0160208091040260200160405190810160405280929190818152602001828054610807906126ce565b80156108545780601f1061082957610100808354040283529160200191610854565b820191906000526020600020905b81548152906001019060200180831161083757829003601f168201915b505050506009830154600a840154600b850154600c909501549394919390925060ff808216916101009004168a565b60006001600160e01b03198216637965db0b60e01b14806108b457506301ffc9a760e01b6001600160e01b03198316145b92915050565b600080516020612b0a8339815191526108d2816117a0565b50600455565b60006108e460076117ad565b905090565b60006108b46007836117b7565b6000908152600080516020612b4a833981519152602052604090206001015490565b610921826108f6565b61092a816117a0565b61093483836117ca565b50505050565b6001600160a01b03811633146109635760405163334bd91960e11b815260040160405180910390fd5b61096d828261186f565b505050565b600080516020612b0a83398151915261098a816117a0565b6109956007836118eb565b6109db5760405162461bcd60e51b815260206004820152601260248201527120b63932b0b23c90309033b7bb32b93737b960711b60448201526064015b60405180910390fd5b6040516001600160a01b038316907f5425363a03f182281120f5919107c49c7a1a623acc1cbc6df468b6f0c11fcf8c90600090a25050565b6000818152600560205260408120600c81015460ff1615610a375750600292915050565b80600601544311610a4b5750600092915050565b80600701544311610a5f5750600192915050565b80600a01548160090154111580610a7b57506004548160090154105b15610a895750600392915050565b600c810154610100900460ff1615610aa45750600792915050565b50600492915050565b50919050565b600080516020612b0a833981519152610acb816117a0565b6000828152600560205260409020600c810154610100900460ff1615610b265760405162461bcd60e51b815260206004820152601060248201526f105b1c9958591e48195e1958dd5d195960821b60448201526064016109d2565b600c8101805460ff1916600117905560405183907f789cf55be980739dad1d0699b93b58e806b51c9d96619bfa8fe0a28abaa7b30c90600090a2505050565b6001610b7084610a13565b6007811115610b8157610b816121f9565b14610bc25760405162461bcd60e51b8152602060048201526011602482015270566f74696e67206e6f742061637469766560781b60448201526064016109d2565b60028260ff161115610c0a5760405162461bcd60e51b8152602060048201526011602482015270496e76616c696420766f7465207479706560781b60448201526064016109d2565b6000838152600560209081526040808320338452600d8101909252909120805460ff1615610c6a5760405162461bcd60e51b815260206004820152600d60248201526c105b1c9958591e481d9bdd1959609a1b60448201526064016109d2565b600080546040516370a0823160e01b81523360048201526001600160a01b03909116906370a0823190602401602060405180830381865afa158015610cb3573d6000803e3d6000fd5b505050506040513d601f19601f82011682018060405250810190610cd79190612702565b90508460ff16600003610d03578083600a016000828254610cf89190612731565b90915550610d479050565b8460ff16600103610d225780836009016000828254610cf89190612731565b8460ff16600203610d47578083600b016000828254610d419190612731565b90915550505b8154600161ffff1990911661010060ff88160217811783558201819055604051869033907fb8e138887d0aa13bab447e82de9d5c1777041ecd21ca36ba824ff1e6c07ddda490610d9c90899086908a90612744565b60405180910390a3505050505050565b610db4611900565b610dbd826119a7565b610dc782826119b2565b5050565b6000610dd5611a6f565b50600080516020612b2a83398151915290565b600080516020612b0a833981519152610e00816117a0565b60015460408051918252602082018490527fc565b045403dc03c2eea82b81a0465edad9e2e7fc4d97e11421c209da93d7a93910160405180910390a150600155565b6000610e4c611ab8565b805490915060ff600160401b820416159067ffffffffffffffff16600081158015610e745750825b905060008267ffffffffffffffff166001148015610e915750303b155b905081158015610e9f575080155b15610ebd5760405163f92ee8a960e01b815260040160405180910390fd5b845467ffffffffffffffff191660011785558315610ee757845460ff60401b1916600160401b1785555b610eef611ae1565b610ef7611ae1565b610f0260008c6117ca565b50610f1b600080516020612b0a8339815191528c6117ca565b50610f467f8a21e8fdae6c23863f7de5307e2e7162c88dab602a41610addb5f1505d2593988c6117ca565b50600080546001600160a01b0319166001600160a01b038c1617905560018990556002889055600387905560048690556202a300600a55610f8860078c6118eb565b508315610fcf57845460ff60401b19168555604051600181527fc7f505b2f371ae2175ee4913f4499e1f2633a7b5936321eed1cdaeb6115181d29060200160405180910390a15b5050505050505050505050565b6000918252600080516020612b4a833981519152602090815260408084206001600160a01b0393909316845291905290205460ff1690565b6000806000806060600080600080600080600560008d8152602001908152602001600020905080600001548160010160009054906101000a90046001600160a01b03168260060154836007015484600801856009015486600a015487600b015488600c0160009054906101000a900460ff1689600c0160019054906101000a900460ff168580546110a4906126ce565b80601f01602080910402602001604051908101604052809291908181526020018280546110d0906126ce565b801561111d5780601f106110f25761010080835404028352916020019161111d565b820191906000526020600020905b81548152906001019060200180831161110057829003601f168201915b505050505095509a509a509a509a509a509a509a509a509a509a50509193959799509193959799565b61114f826108f6565b611158816117a0565b610934838361186f565b600354600080546040516370a0823160e01b81523360048201529192916001600160a01b03909116906370a0823190602401602060405180830381865afa1580156111b1573d6000803e3d6000fd5b505050506040513d601f19601f820116820180604052508101906111d59190612702565b10156112235760405162461bcd60e51b815260206004820181905260248201527f496e73756666696369656e7420746f6b656e7320666f722070726f706f73616c60448201526064016109d2565b84518651146112445760405162461bcd60e51b81526004016109d290612766565b83518651146112655760405162461bcd60e51b81526004016109d290612766565b82518651146112865760405162461bcd60e51b81526004016109d290612766565b60008651116112c45760405162461bcd60e51b815260206004820152600a6024820152694e6f20616374696f6e7360b01b60448201526064016109d2565b600a865111156113095760405162461bcd60e51b815260206004820152601060248201526f546f6f206d616e7920616374696f6e7360801b60448201526064016109d2565b600980546000918261131a83612790565b9091555060008181526005602090815260409091208281556001810180546001600160a01b0319163317905589519293509161135e916002840191908b0190611ece565b50865161137490600383019060208a0190611f33565b50855161138a9060048301906020890190611f6e565b5084516113a09060058301906020880190611fc0565b506001546113ae9043612731565b60068201556002546001546113c39043612731565b6113cd9190612731565b6007820155600881016113e085826127f9565b50600060098201819055600a8201819055600b820155600c8101805461ffff191690556006810154600782015460405184927f7d84a6263ae0d98d3329bd7b46bb4e8d6f98cd35a7adb45c274c8b7fd5ebd5e09261144b9233928e928e928e928e9290918e9061294f565b60405180910390a2509695505050505050565b60006108b4600783611ae9565b600080516020612b0a833981519152611483816117a0565b60025460408051918252602082018490527f7e3f7f0708a84de9203036abaa450dccc85ad5ff52f78c170f3edb55cf5e8828910160405180910390a150600255565b600080516020612b0a8339815191526114dd816117a0565b50600355565b600080516020612b0a8339815191526114fb816117a0565b611506600783611b0b565b6115435760405162461bcd60e51b815260206004820152600e60248201526d2737ba10309033b7bb32b93737b960911b60448201526064016109d2565b6040516001600160a01b038316907f1ebe834e73d60a5fec822c1e1727d34bc79f2ad977ed504581cc1822fe20fb5b90600090a25050565b600461158682610a13565b6007811115611597576115976121f9565b146115e45760405162461bcd60e51b815260206004820152601760248201527f50726f706f73616c206e6f74207375636365737366756c00000000000000000060448201526064016109d2565b6000818152600560205260408120600c8101805461ff001916610100179055905b600282015481101561177057600082600201828154811061162857611628612a0b565b6000918252602090912001546003840180546001600160a01b03909216918490811061165657611656612a0b565b906000526020600020015484600401848154811061167657611676612a0b565b9060005260206000200160405161168d9190612a94565b60405180910390208560050185815481106116aa576116aa612a0b565b906000526020600020016040516020016116c5929190612aa0565b60408051601f19818403018152908290526116df91612ac4565b60006040518083038185875af1925050503d806000811461171c576040519150601f19603f3d011682016040523d82523d6000602084013e611721565b606091505b50509050806117675760405162461bcd60e51b8152602060048201526012602482015271151c985b9cd858dd1a5bdb8819985a5b195960721b60448201526064016109d2565b50600101611605565b5060405182907f712ae1383f79ac853f8d882153778e0260ef8f03b504e2866e0593e04d2b291f90600090a25050565b6117aa8133611b20565b50565b60006108b4825490565b60006117c38383611b59565b9392505050565b6000600080516020612b4a8339815191526117e58484610fdc565b611865576000848152602082815260408083206001600160a01b03871684529091529020805460ff1916600117905561181b3390565b6001600160a01b0316836001600160a01b0316857f2f8788117e7eff1d82e926ec794901d17c78024a50270940304540a733656f0d60405160405180910390a460019150506108b4565b60009150506108b4565b6000600080516020612b4a83398151915261188a8484610fdc565b15611865576000848152602082815260408083206001600160a01b0387168085529252808320805460ff1916905551339287917ff6391f5c32d9c69d2a47ea670b442974b53935d1edc7fd64eb21e047a839171b9190a460019150506108b4565b60006117c3836001600160a01b038416611b83565b306001600160a01b037f000000000000000000000000000000000000000000000000000000000000000016148061198757507f00000000000000000000000000000000000000000000000000000000000000006001600160a01b031661197b600080516020612b2a833981519152546001600160a01b031690565b6001600160a01b031614155b156119a55760405163703e46dd60e11b815260040160405180910390fd5b565b6000610dc7816117a0565b816001600160a01b03166352d1902d6040518163ffffffff1660e01b8152600401602060405180830381865afa925050508015611a0c575060408051601f3d908101601f19168201909252611a0991810190612702565b60015b611a3457604051634c9c8ce360e01b81526001600160a01b03831660048201526024016109d2565b600080516020612b2a8339815191528114611a6557604051632a87526960e21b8152600481018290526024016109d2565b61096d8383611bd2565b306001600160a01b037f000000000000000000000000000000000000000000000000000000000000000016146119a55760405163703e46dd60e11b815260040160405180910390fd5b6000807ff0c57e16840df040f15088dc2f81fe391c3923bec73e23a9662efc9c229c6a006108b4565b6119a5611c28565b6001600160a01b038116600090815260018301602052604081205415156117c3565b60006117c3836001600160a01b038416611c4d565b611b2a8282610fdc565b610dc75760405163e2517d3f60e01b81526001600160a01b0382166004820152602481018390526044016109d2565b6000826000018281548110611b7057611b70612a0b565b9060005260206000200154905092915050565b6000818152600183016020526040812054611bca575081546001818101845560008481526020808220909301849055845484825282860190935260409020919091556108b4565b5060006108b4565b611bdb82611d36565b6040516001600160a01b038316907fbc7cd75a20ee27fd9adebab32041f755214dbc6bffa90cc0225b39da2e5c2d3b90600090a2805115611c205761096d8282611d9b565b610dc7611e11565b611c30611e30565b6119a557604051631afcd79f60e31b815260040160405180910390fd5b60008181526001830160205260408120548015611865576000611c71600183612ae0565b8554909150600090611c8590600190612ae0565b9050808214611cea576000866000018281548110611ca557611ca5612a0b565b9060005260206000200154905080876000018481548110611cc857611cc8612a0b565b6000918252602080832090910192909255918252600188019052604090208390555b8554869080611cfb57611cfb612af3565b6001900381819060005260206000200160009055905585600101600086815260200190815260200160002060009055600193505050506108b4565b806001600160a01b03163b600003611d6c57604051634c9c8ce360e01b81526001600160a01b03821660048201526024016109d2565b600080516020612b2a83398151915280546001600160a01b0319166001600160a01b0392909216919091179055565b6060600080846001600160a01b031684604051611db89190612ac4565b600060405180830381855af49150503d8060008114611df3576040519150601f19603f3d011682016040523d82523d6000602084013e611df8565b606091505b5091509150611e08858383611e4a565b95945050505050565b34156119a55760405163b398979f60e01b815260040160405180910390fd5b6000611e3a611ab8565b54600160401b900460ff16919050565b606082611e5f57611e5a82611ea6565b6117c3565b8151158015611e7657506001600160a01b0384163b155b15611e9f57604051639996b31560e01b81526001600160a01b03851660048201526024016109d2565b5092915050565b805115611eb557805160208201fd5b60405163d6bda27560e01b815260040160405180910390fd5b828054828255906000526020600020908101928215611f23579160200282015b82811115611f2357825182546001600160a01b0319166001600160a01b03909116178255602090920191600190910190611eee565b50611f2f929150612012565b5090565b828054828255906000526020600020908101928215611f23579160200282015b82811115611f23578251825591602001919060010190611f53565b828054828255906000526020600020908101928215611fb4579160200282015b82811115611fb45782518290611fa490826127f9565b5091602001919060010190611f8e565b50611f2f929150612027565b828054828255906000526020600020908101928215612006579160200282015b828111156120065782518290611ff690826127f9565b5091602001919060010190611fe0565b50611f2f929150612044565b5b80821115611f2f5760008155600101612013565b80821115611f2f57600061203b8282612061565b50600101612027565b80821115611f2f5760006120588282612061565b50600101612044565b50805461206d906126ce565b6000825580601f1061207d575050565b601f0160209004906000526020600020908101906117aa9190612012565b6000602082840312156120ad57600080fd5b5035919050565b60005b838110156120cf5781810151838201526020016120b7565b50506000910152565b600081518084526120f08160208601602086016120b4565b601f01601f19169290920160200192915050565b60006101408c835260018060a01b038c1660208401528a60408401528960608401528060808401526121388184018a6120d8565b60a0840198909852505060c081019490945260e0840192909252151561010083015215156101209091015295945050505050565b60006020828403121561217e57600080fd5b81356001600160e01b0319811681146117c357600080fd5b80356001600160a01b03811681146121ad57600080fd5b919050565b600080604083850312156121c557600080fd5b823591506121d560208401612196565b90509250929050565b6000602082840312156121f057600080fd5b6117c382612196565b634e487b7160e01b600052602160045260246000fd5b602081016008831061223157634e487b7160e01b600052602160045260246000fd5b91905290565b634e487b7160e01b600052604160045260246000fd5b604051601f8201601f1916810167ffffffffffffffff8111828210171561227657612276612237565b604052919050565b600082601f83011261228f57600080fd5b813567ffffffffffffffff8111156122a9576122a9612237565b6122bc601f8201601f191660200161224d565b8181528460208386010111156122d157600080fd5b816020850160208301376000918101602001919091529392505050565b60008060006060848603121561230357600080fd5b83359250602084013560ff8116811461231b57600080fd5b9150604084013567ffffffffffffffff81111561233757600080fd5b6123438682870161227e565b9150509250925092565b6000806040838503121561236057600080fd5b61236983612196565b9150602083013567ffffffffffffffff81111561238557600080fd5b6123918582860161227e565b9150509250929050565b60008060008060008060c087890312156123b457600080fd5b6123bd87612196565b95506123cb60208801612196565b95989597505050506040840135936060810135936080820135935060a0909101359150565b6020815260006117c360208301846120d8565b600067ffffffffffffffff82111561241d5761241d612237565b5060051b60200190565b600082601f83011261243857600080fd5b8135602061244d61244883612403565b61224d565b8083825260208201915060208460051b87010193508684111561246f57600080fd5b602086015b848110156124925761248581612196565b8352918301918301612474565b509695505050505050565b600082601f8301126124ae57600080fd5b813560206124be61244883612403565b8083825260208201915060208460051b8701019350868411156124e057600080fd5b602086015b8481101561249257803583529183019183016124e5565b600082601f83011261250d57600080fd5b8135602061251d61244883612403565b82815260059290921b8401810191818101908684111561253c57600080fd5b8286015b8481101561249257803567ffffffffffffffff8111156125605760008081fd5b61256e8986838b010161227e565b845250918301918301612540565b600082601f83011261258d57600080fd5b8135602061259d61244883612403565b82815260059290921b840181019181810190868411156125bc57600080fd5b8286015b8481101561249257803567ffffffffffffffff8111156125e05760008081fd5b6125ee8986838b010161227e565b8452509183019183016125c0565b600080600080600060a0868803121561261457600080fd5b853567ffffffffffffffff8082111561262c57600080fd5b61263889838a01612427565b9650602088013591508082111561264e57600080fd5b61265a89838a0161249d565b9550604088013591508082111561267057600080fd5b61267c89838a016124fc565b9450606088013591508082111561269257600080fd5b61269e89838a0161257c565b935060808801359150808211156126b457600080fd5b506126c18882890161227e565b9150509295509295909350565b600181811c908216806126e257607f821691505b602082108103610aad57634e487b7160e01b600052602260045260246000fd5b60006020828403121561271457600080fd5b5051919050565b634e487b7160e01b600052601160045260246000fd5b808201808211156108b4576108b461271b565b60ff84168152826020820152606060408201526000611e0860608301846120d8565b60208082526010908201526f125b9d985b1a59081c1c9bdc1bdcd85b60821b604082015260600190565b6000600182016127a2576127a261271b565b5060010190565b601f82111561096d576000816000526020600020601f850160051c810160208610156127d25750805b601f850160051c820191505b818110156127f1578281556001016127de565b505050505050565b815167ffffffffffffffff81111561281357612813612237565b6128278161282184546126ce565b846127a9565b602080601f83116001811461285c57600084156128445750858301515b600019600386901b1c1916600185901b1785556127f1565b600085815260208120601f198616915b8281101561288b5788860151825594840194600190910190840161286c565b50858210156128a95787850151600019600388901b60f8161c191681555b5050505050600190811b01905550565b60008151808452602080850194506020840160005b838110156128ea578151875295820195908201906001016128ce565b509495945050505050565b60008282518085526020808601955060208260051b8401016020860160005b8481101561294257601f198684030189526129308383516120d8565b98840198925090830190600101612914565b5090979650505050505050565b6001600160a01b03898116825261010060208084018290528a519184018290526000926101208501928c83019290855b8181101561299d57845184168652948201949382019360010161297f565b505050505082810360408401526129b4818a6128b9565b905082810360608401526129c881896128f5565b905082810360808401526129dc81886128f5565b90508560a08401528460c084015282810360e08401526129fc81856120d8565b9b9a5050505050505050505050565b634e487b7160e01b600052603260045260246000fd5b60008154612a2e816126ce565b60018281168015612a465760018114612a5b57612a8a565b60ff1984168752821515830287019450612a8a565b8560005260208060002060005b85811015612a815781548a820152908401908201612a68565b50505082870194505b5050505092915050565b60006117c38284612a21565b6001600160e01b0319831681526000612abc6004830184612a21565b949350505050565b60008251612ad68184602087016120b4565b9190910192915050565b818103818111156108b4576108b461271b565b634e487b7160e01b600052603160045260246000fdfee7e0b301de1c1e268073a6b56ff0876cffca0becba0dca08f945c1394e3e9727360894a13ba1a3210667c828492db98dca3e2076cc3735a920a3ca505d382bbc02dd7bc7dec4dceedda775e58dd541e08a116c6c53815c0bd028192f7b626800a264697066735822122080f4f09de1c04ec83177a7cc1c1697b6a9bfc47e5b8f34c9450ccc38d70b632a64736f6c63430008160033",
  "linkReferences": {},
  "deployedLinkReferences": {}
}